202311010010000100000000000000000571                8000000000030717164330PRIMETEC                      000000016090702000000000000000000000000000000000000000000000000000000000000000000000000000000000000000000000000000000000PES00010000001000000000279260200000000000000000000000000                              000000000000000  
202311010010000100000000000000000627                8000000000020348359550MORAS IGNACIO                 000000020449000000000000000000000000000000000000000000000000000000000000000000000000000000000000000000000000000000000000PES00010000001000000000354900000000000000000000000000000                              000000000000000  
202311010010000200000000000000001731                8000000000033716413719CLEANX S.A.                   000000231758348000000000000000000000000000000000000000000000000000000000000000000000000000000000000000000000000000000000PES00010000001000000004022252300000000000000000000000000                              000000000000000  
202311010010000200000000000000002682                8000000000033709770719C Y M PUBLICIDAD S.R.L.       000000019611801000000000000000000000000000000000000000000000000000000000000000000000000000000000000000000000000000000000PES00010000001000000000340370100000000000000000000000000                              000000000000000  
202311010010000200000000000000036413                8000000000030707000690SERVICIOS AMBIENTALES BUENOS A000000004779500000000000000000000000000000000000000000000000000000000000000000000000000000000000000000000000000000000000PES00010000001000000000082950000000000000000000000000000                              000000000000000  
202311010010000300000000000000000197                8000000000030714533793PIER MEDIA S.R.L.             000000011495000000000000000000000000000000000000000000000000000000000000000000000000000000000000000000000000000000000000PES00010000001000000000199500000000000000000000000000000                              000000000000000  
202311010010000500000000000000000002                8000000000027289625564GEROMINI ALDANA LAURA         000000108416000000000000000000000000000000000000000000000000000000000000000000000000000000000000000000000000000000000000PES00010000001000000001881600000000000000000000000000000                              000000000000000  
202311010010000500000000000000000004                8000000000027289625564GEROMINI ALDANA LAURA         000000104423000000000000000000000000000000000000000000000000000000000000000000000000000000000000000000000000000000000000PES00010000001000000001812300000000000000000000000000000                              000000000000000  
202311010010000600000000000000000223                8000000000027304290558MASSAUX CLARA DEL CORAZON DE J000000000360000000000000000000000000000000000000000000000000000000000000000000000000000000000000000000000000000000000000PES00010000001000000000006247900000000000000000000000000                              000000000000000  
202311010010000200000000000000008273                8000000000030580183928EMPRESA DE SEGURIDAD INTEGRAL 000000117481995000000000000000000000000000000000000000000000000000000000000000000000000000000000000000000000000000000000PES00010000001000000002038943700000000000000000000000000                              000000000000000  
202311010010000200000000000000008274                8000000000030580183928EMPRESA DE SEGURIDAD INTEGRAL 000000117481995000000000000000000000000000000000000000000000000000000000000000000000000000000000000000000000000000000000PES00010000001000000002038943700000000000000000000000000                              000000000000000  
202311010010000300000000000000002219                8000000000033709470359L Y M PRODUCCIONES S.R.L.     000000052311688000000000000000000000000000000000000000000000000000000000000000000000000000000000000000000000000000000000PES00010000001000000000907888800000000000000000000000000                              000000000000000  
202311010010000300000000000000046971                8000000000033663419949EJES SA                       000000009861500000000000000000000000000000000000000000000000000000000000000000000000000000000000000000000000000000000000PES00010000001000000000171150000000000000000000000000000                              000000000000000  
202311010010000400000000000000009811                8000000000030715096419ASG S.A.                      000000010877900000000000000000000000000000000000000000000000000000000000000000000000000000000000000000000000000000000000PES00010000001000000000188790000000000000000000000000000                              000000000000000  
202311010010000400000000000000009813                8000000000030715096419ASG S.A.                      000000009317000000000000000000000000000000000000000000000000000000000000000000000000000000000000000000000000000000000000PES00010000001000000000161700000000000000000000000000000                              000000000000000  
202311010010000500000000000000002301                8000000000023291929109BERRETTA CARLOS MARIANO       000000058080000000000000000000000000000000000000000000000000000000000000000000000000000000000000000000000000000000000000PES00010000001000000001008000000000000000000000000000000                              000000000000000  
202311010010000500000000000000012140                8000000000030716271168ZHUO TECHNOLOGIES S.A.S.      000000006411589000000000000000000000000000000000000000000000000000000000000000000000000000000000000000000000000000000000PES00010000001000000000111275500000000000000000000000000                              000000000000000  
202311010010000600000000000000034348                8000000000030710428642DISMASER SA                   000000044098692000000000000000000000000000000000000000000000000000000000000000000000000000000000000000000000000000000000PES00010000001000000000765349200000000000000000000000000                              000000000000000  
202311010010000800000000000000001059                8000000000030697578990EMPRENDIMIENTOS INMOBILIARIOS 000000584661110000000000000000000000000000000000000000000000000000000000000000000000000000000000000000000000000000000000PES00010000001000000010147011000000000000000000000000000                              000000000000000  
202311010010001800000000000000266215                8000000000030696850972CPS COMUNICACIONES S.A.       000000022661000000000000000000000000000000000000000000000000000000000000000000000000548250000000000000000000000000000000PES00010000001000000000383775000000000000000000000000000                              000000000000000  
202311010010001800000000000000266216                8000000000030696850972CPS COMUNICACIONES S.A.       000000022661000000000000000000000000000000000000000000000000000000000000000000000000548250000000000000000000000000000000PES00010000001000000000383775000000000000000000000000000                              000000000000000  
202311010010944700000000000000000322                8000000000030685849751DIA ARGENTINA S.A.            000000000438306000000000000000000000000000000000000000000000000000000000000000000000000000000000000000000000000000000000PES00010000001000000000007607000000000000000000000000000                              000000000000000  
202311010110000200000000000000000026                8000000000027326086121RIPOLL MARIANA BELEN          000000021840000000000000000000000000000000000000000000000000000000000000000000000000000000000000000000000000000000000000PES00010000000000000000000000000000000000000000000000000                              000000000000000  
202311010110000200000000000000000769                8000000000030701272788AREOPAGO ASOC CIVIL           000000004000000000000000000000000000000000000000000000000000000000000000000000000000000000000000000000000000000000000000PES00010000000000000000000000000000000000000000000000000                              000000000000000  
202311010110000300000000000000000038                8000000000020076020656AROZENA JUAN CARLOS           000000017457100000000000000000000000000000000000000000000000000000000000000000000000000000000000000000000000000000000000PES00010000000000000000000000000000000000000000000000000                              000000000000000  
202311010110000300000000000000000039                8000000000020076020656AROZENA JUAN CARLOS           000000000266900000000000000000000000000000000000000000000000000000000000000000000000000000000000000000000000000000000000PES00010000000000000000000000000000000000000000000000000                              000000000000000  
202311010110000300000000000000000718                8000000000020320369585CAVALIERE ESTEBAN             000000003500000000000000000000000000000000000000000000000000000000000000000000000000000000000000000000000000000000000000PES00010000000000000000000000000000000000000000000000000                              000000000000000  
202311020010000200000000000000000389                8000000000030709250228EN EL BLANCO PRODUCCIONES S.A.000000006050000000000000000000000000000000000000000000000000000000000000000000000000000000000000000000000000000000000000PES00010000001000000000105000000000000000000000000000000                              000000000000000  
202311020010000200000000000000000389                8000000000030716344858TURM S.R.L.                   000000164194701000000000000000000000000000000000000000000000000000000000000000000000000000000000000000000000000000000000PES00010000001000000002849660100000000000000000000000000                              000000000000000  
202311020010000200000000000000000390                8000000000030716344858TURM S.R.L.                   000000041612868000000000000000000000000000000000000000000000000000000000000000000000000000000000000000000000000000000000PES00010000001000000000722206800000000000000000000000000                              000000000000000  
202311020010000200000000000000000391                8000000000030716344858TURM S.R.L.                   000000066338250000000000000000000000000000000000000000000000000000000000000000000000000000000000000000000000000000000000PES00010000001000000001151325000000000000000000000000000                              000000000000000  
202311020010000200000000000000001836                8000000000030708916605METALURGICA LAGILLA S.R.L.    000000014520000000000000000000000000000000000000000000000000000000000000000000000000000000000000000000000000000000000000PES00010000001000000000252000000000000000000000000000000                              000000000000000  
202311020010000200000000000000014096                8000000000030710434863QUART PRODUCCIONES S.R.L.     000000033880000000000000000000000000000000000000000000000000000000000000000000000000000000000000000000000000000000000000PES00010000001000000000588000000000000000000000000000000                              000000000000000  
202311020010000200000000000000018632                8000000000033677679609SILMAR PRODUCCIONES S.R.L.    000000039930000000000000000000000000000000000000000000000000000000000000000000000000000000000000000000000000000000000000PES00010000001000000000693000000000000000000000000000000                              000000000000000  
202311020010000300000000000000000439                8000000000020214845289SAYEGH JAVIER ALEJANDRO       000000015730000000000000000000000000000000000000000000000000000000000000000000000000000000000000000000000000000000000000PES00010000001000000000273000000000000000000000000000000                              000000000000000  
202311020010000300000000000000004081                8000000000030714369500ARGENTINOS MEDIA SA           000000037752000000000000000000000000000000000000000000000000000000000000000000000000000000000000000000000000000000000000PES00010000001000000000655200000000000000000000000000000                              000000000000000  
202311020110000100000000000000000165                8000000000020438722476GRIMALDI THIAGO               000000004901000000000000000000000000000000000000000000000000000000000000000000000000000000000000000000000000000000000000PES00010000000000000000000000000000000000000000000000000                              000000000000000  
202311030010000100000000000000000056                8000000000027924914195GUALTER LOO SIU YIE CRISTINA  000000036798530000000000000000000000000000000000000000000000000000000000000000000000000000000000000000000000000000000000PES00010000001000000000638652200000000000000000000000000                              000000000000000  
202311030010000100000000000000000057                8000000000027924914195GUALTER LOO SIU YIE CRISTINA  000000002541500000000000000000000000000000000000000000000000000000000000000000000000000000000000000000000000000000000000PES00010000001000000000024150000000000000000000000000000                              000000000000000  
202311030010000200000000000000000013                8000000000020924627914COSTANZI MARCELO              000000178959000000000000000000000000000000000000000000000000000000000000000000000000000000000000000000000000000000000000PES00010000001000000003105900000000000000000000000000000                              000000000000000  
202311030010000200000000000000000390                8000000000030709250228EN EL BLANCO PRODUCCIONES S.A.000000006050000000000000000000000000000000000000000000000000000000000000000000000000000000000000000000000000000000000000PES00010000001000000000105000000000000000000000000000000                              000000000000000  
202311030010000600000000000000071556                8000000000030711053669GADIK SRL                     000000010522500000000000000000000000000000000000000000000000000000000000000000000000000000000000000000000000000000000000PES00010000001000000000182621900000000000000000000000000                              000000000000000  
202311030010000300000000000000029345                8000000000033628152689VOCACION S.R.L.               000000014196000000000000000000000000000000000000000000000000000000000000000000000000000000000000000000000000000000000000PES00010000001000000000067600000000000000000000000000000                              000000000000000  
202311030010000300000000000000029346                8000000000033628152689VOCACION S.R.L.               000000018218801000000000000000000000000000000000000000000000000000000000000000000000000000000000000000000000000000000000PES00010000001000000000316194100000000000000000000000000                              000000000000000  
202311030010000600000000000000002151                8000000000030716383519TUPAPELERIA S.R.L.            000000000949569000000000000000000000000000000000000000000000000000000000000000000000000000000000000000000000000000000000PES00010000001000000000016480100000000000000000000000000                              000000000000000  
202311030030000800000000000000000112                8000000000030697578990EMPRENDIMIENTOS INMOBILIARIOS 000000008279835000000000000000000000008279835000000000000000000000000000000000000000000000000000000000000000000000000000PES00010000001000000000000000000000000000000000000000000                              000000000000000  
202311030010001100000000000000003277                8000000000033711304989PIRGUI S.R.L.                 000000011000400000000000000000000000000000000000000000000000000000000000000000000000000000000000000000000000000000000000PES00010000002000000000117172100000000000000000000000000                              000000000000000  
202311030010003500000000000000821663                8000000000033692148229OFFICENET S.A.                000000013031272000000000000000000000000000000000000000000000000000000000000000000000315273000000000000000000000000000000PES00010000001000000000220690900000000000000000000000000                              000000000000000  
202311030110000100000000000000000051                8000000000020425669630PINELLA RODRIGO               000000039034412000000000000000000000000000000000000000000000000000000000000000000000000000000000000000000000000000000000PES00010000000000000000000000000000000000000000000000000                              000000000000000  
202311030110000100000000000000000051                8000000000020946060276CHEREY ANTONIO FEDERICO       000000043396125000000000000000000000000000000000000000000000000000000000000000000000000000000000000000000000000000000000PES00010000000000000000000000000000000000000000000000000                              000000000000000  
202311030110000200000000000000000345                8000000000020945446855BAHAMONDE ORTIZ JUAN CARLOS   000000002550000000000000000000000000000000000000000000000000000000000000000000000000000000000000000000000000000000000000PES00010000000000000000000000000000000000000000000000000                              000000000000000  
202311050010000500000000000002889111                8000000000030702652975NSS S.A.                      000000239064413000000000000000000000000000000000000000000000000000000000000000000005774575000000000000000000000000000000PES00010000002000000004080036000000000000000000000000000                              000000000000000  
202311050010000500000000000002889112                8000000000030702652975NSS S.A.                      000000000161925000000000000000000000000000000000000000000000000000000000000000000000000000000000000000000000000000000000PES00010000001000000000003442500000000000000000000000000                              000000000000000  
202311060010000200000000000000000459                8000000000030709517801P & M PRODUCCIONES S.R.L.     000000006655000000000000000000000000000000000000000000000000000000000000000000000000000000000000000000000000000000000000PES00010000001000000000115500000000000000000000000000000                              000000000000000  
202311060010000300000000000000000577                8000000000020133822659RIGOLI CLAUDIO OMAR ENRIQUE   000000017563392000000000000000000000000000000000000000000000000000000000000000000000000000000000000000000000000000000000PES00010000001000000000304819200000000000000000000000000                              000000000000000  
202311060010000300000000000000001135                8000000000023239928749FERNANDEZ MUGICA JUAN IGNACIO 000000009831250000000000000000000000000000000000000000000000000000000000000000000000000000000000000000000000000000000000PES00010000001000000000170625000000000000000000000000000                              000000000000000  
202311060010000700000000000000000753                8000000000020258521448AMELA HORACIO ARIEL           000000009200000000000000000000000000000000000000000000000000000000000000000000000000000000000000000000000000000000000000PES00010000001000000000159669400000000000000000000000000                              000000000000000  
202311060110000100000000000000000133                8000000000020200478453LOPREITE DARIO ESTEBAN        000000003250000000000000000000000000000000000000000000000000000000000000000000000000000000000000000000000000000000000000PES00010000000000000000000000000000000000000000000000000                              000000000000000  
202311020010000300000000000000001978                8000000000023182616699SERENELLINI EDUARDO JOSE      000000033396000000000000000000000000000000000000000000000000000000000000000000000000000000000000000000000000000000000000PES00010000001000000000579600000000000000000000000000000                              000000000000000  
202311070010000900000000000000000151                8000000000030709043796DROPS SRL                     000000002825000000000000000000000000000000000000000000000000000000000000000000000000000000000000000000000000000000000000PES00010000001000000000049028900000000000000000000000000                              000000000000000  
202311080010000100000000000000000254                8000000000030715151320DESARROLLOS AL MAR SA         000000040656000000000000000000000000000000000000000000000000000000000000000000000000000000000000000000000000000000000000PES00010000001000000000705600000000000000000000000000000                              000000000000000  
202311080010000200000000000000000005                8000000000020120117727PARRA DIEGO MIGUEL            000000012291785000000000000000000000000000000000000000000000000000000000000000000000000000000000000000000000000000000000PES00010000001000000000213328500000000000000000000000000                              000000000000000  
202311080010000200000000000000002712                8000000000020171212384TOURNOUR ADRIAN               000000675180000000000000000000000000000000000000000000000000000000000000000000000000000000000000000000000000000000000000PES00010000001000000011718000000000000000000000000000000                              000000000000000  
202311080010000200000000000000037140                8000000000030568210790RAUL EIJO PROPAGANDA S.A.I.C. 000000028217200000000000000000000000000000000000000000000000000000000000000000000000000000000000000000000000000000000000PES00010000001000000000489720000000000000000000000000000                              000000000000000  
202311080010000200000000000000037142                8000000000030568210790RAUL EIJO PROPAGANDA S.A.I.C. 000000028217200000000000000000000000000000000000000000000000000000000000000000000000000000000000000000000000000000000000PES00010000001000000000489720000000000000000000000000000                              000000000000000  
202311080010000200000000000000037144                8000000000030568210790RAUL EIJO PROPAGANDA S.A.I.C. 000000028217200000000000000000000000000000000000000000000000000000000000000000000000000000000000000000000000000000000000PES00010000001000000000489720000000000000000000000000000                              000000000000000  
202311080010000200000000000000037146                8000000000030568210790RAUL EIJO PROPAGANDA S.A.I.C. 000000028217200000000000000000000000000000000000000000000000000000000000000000000000000000000000000000000000000000000000PES00010000001000000000489720000000000000000000000000000                              000000000000000  
202311080030000300000000000000000125                8000000000030688498615TELEFONIA DEL PLATA S.R.L.    000000001210000000000000000000000000000000000000000000000000000000000000000000000000000000000000000000000000000000000000PES00010000001000000000021000000000000000000000000000000                              000000000000000  
202311080010000400000000000000001442                8000000000033628540239L D INGENIERIA S R L          000000010039975000000000000000000000000000000000000000000000000000000000000000000000000000000000000000000000000000000000PES00010000001000000000174247500000000000000000000000000                              000000000000000  
202311080010000500000000000000000221                8000000000020372458349GONZALEZ PALUMBO JUAN MANUEL  000000019360000000000000000000000000000000000000000000000000000000000000000000000000000000000000000000000000000000000000PES00010000001000000000336000000000000000000000000000000                              000000000000000  
202311080010000700000000000000000781                8000000000020258521448AMELA HORACIO ARIEL           000000001089999000000000000000000000000000000000000000000000000000000000000000000000000000000000000000000000000000000000PES00010000001000000000018917300000000000000000000000000                              000000000000000  
202311100010000200000000000000000006                8000000000020120117727PARRA DIEGO MIGUEL            000000016335000000000000000000000000000000000000000000000000000000000000000000000000000000000000000000000000000000000000PES00010000001000000000283500000000000000000000000000000                              000000000000000  
202311070010000200000000000000009704                8000000000030708653078EMPRENDIMIENTOS CORPORATIVOS S000000030250000000000000000000000000000000000000000000000000000000000000000000000000000000000000000000000000000000000000PES00010000001000000000525000000000000000000000000000000                              000000000000000  
202311100010000700000000000000006129                8000000000030709325120ALTA DENSIDAD SA              000000072600000000000000000000000000000000000000000000000000000000000000000000000000000000000000000000000000000000000000PES00010000001000000001260000000000000000000000000000000                              000000000000000  
202311100030000200000000000000000556                8000000000030580183928EMPRESA DE SEGURIDAD INTEGRAL 000000099105565000000000000000000000000000000000000000000000000000000000000000000000000000000000000000000000000000000000PES00010000001000000001720013900000000000000000000000000                              000000000000000  
202311100010000200000000000000008284                8000000000030580183928EMPRESA DE SEGURIDAD INTEGRAL 000000018377639000000000000000000000000000000000000000000000000000000000000000000000000000000000000000000000000000000000PES00010000001000000000318950800000000000000000000000000                              000000000000000  
202311100010000200000000000000008285                8000000000030580183928EMPRESA DE SEGURIDAD INTEGRAL 000000018377639000000000000000000000000000000000000000000000000000000000000000000000000000000000000000000000000000000000PES00010000001000000000318950800000000000000000000000000                              000000000000000  
202311100010018600000000000000009451                8000000000030644727463EMFACO S.A.                   000000001550071000000000000000000000000000000000000000000000000000000000000000000000000000000000000000000000000000098907PES00010000001000000000025185500000000000000000000000000                              000000000000000  
202311100010007600000000000000007473                8000000000030677093427EL LAB TALLER DE IDIOMAS SRL  000000004177989000000000000000000000004056300000000000000000000000000000000000000000121689000000000000000000000000000000PES00010000001000000000000000000000000000000000000000000                              000000000000000  
202311110010001500000000000000031152                8000000000030677909001RERIFE S.A.                   000000000449998000000000000000000000000000000000000000000000000000000000000000000000000000000000000000000000000000040273PES00010000001000000000007110900000000000000000000000000                              000000000000000  
202311130010000100000000000000002363                8000000000030715516620COBROS LOMAS S.A.             000000027641240000000000000000000000000000000000000000000000000000000000000000000000000000000000000000000000000000000000PES00010000001000000000479724000000000000000000000000000                              000000000000000  
202311130010000200000000000000002995                8000000000030714212571RENO PROTECCION S.A.          000000029816820000000000000000000000000000000000000000000000000000000000000000000000000000000000000000000000000000000000PES00010000001000000000517482000000000000000000000000000                              000000000000000  
202311130010000200000000000000004811                8000000000033714698899FIDUCIARIA PARA EMPREND. DE NE000000031518080000000000000000000000000000000000000000000000000000000000000000000000000000000000000000000000000000000000PES00010000001000000000547008000000000000000000000000000                              000000000000000  
202311130010000300000000000000004849                8000000000030714560235COPO CURTO S.A.               000000062313612000000000000000000000000000000000000000000000000000000000000000000000000000000000000000000000000000000000PES00010000001000000001081475900000000000000000000000000                              000000000000000  
202311130010000500000000000002903317                8000000000030702652975NSS S.A.                      000000289736747000000000000000000000000000000000000000000000000000000000000000000007009760000000000000000000000000000000PES00010000001000000004906832000000000000000000000000000                              000000000000000  
202311130010000600000000000000000049                8000000000020124869979FERNANDEZ DANIEL PATRICIO     000000012584000000000000000000000000000000000000000000000000000000000000000000000000000000000000000000000000000000000000PES00010000001000000000218400000000000000000000000000000                              000000000000000  
202311130010001000000000000000002014                8000000000030715139428PUBLICIDAD  MULTILED  S.R.L.  000000130680000000000000000000000000000000000000000000000000000000000000000000000000000000000000000000000000000000000000PES00010000001000000002268000000000000000000000000000000                              000000000000000  
202311130010003500000000000000822075                8000000000033692148229OFFICENET S.A.                000000026077380000000000000000000000000000000000000000000000000000000000000000000000630905000000000000000000000000000000PES00010000001000000000441633000000000000000000000000000                              000000000000000  
202311130110000100000000000000000148                8000000000020319328476FERNANDEZ CHRISTIAN JAVIER    000000006500000000000000000000000000000000000000000000000000000000000000000000000000000000000000000000000000000000000000PES00010000000000000000000000000000000000000000000000000                              000000000000000  
202311130110000100000000000000000149                8000000000020319328476FERNANDEZ CHRISTIAN JAVIER    000000006500000000000000000000000000000000000000000000000000000000000000000000000000000000000000000000000000000000000000PES00010000000000000000000000000000000000000000000000000                              000000000000000  
202311130110000100000000000000000150                8000000000020319328476FERNANDEZ CHRISTIAN JAVIER    000000006500000000000000000000000000000000000000000000000000000000000000000000000000000000000000000000000000000000000000PES00010000000000000000000000000000000000000000000000000                              000000000000000  
202311130110000300000000000000000191                8000000000027320230751RAMIREZ ERICA GISELA          000000007000000000000000000000000000000000000000000000000000000000000000000000000000000000000000000000000000000000000000PES00010000000000000000000000000000000000000000000000000                              000000000000000  
202311140010000200000000000000000007                8000000000020120117727PARRA DIEGO MIGUEL            000000057043272000000000000000000000000000000000000000000000000000000000000000000000000000000000000000000000000000000000PES00010000001000000000990007200000000000000000000000000                              000000000000000  
202311140010000300000000000000000344                8000000000020355345123VILLARRUEL NICOLAS NORBERTO   000000002577300000000000000000000000000000000000000000000000000000000000000000000000000000000000000000000000000000000000PES00010000001000000000044730000000000000000000000000000                              000000000000000  
202311140010000300000000000000000345                8000000000020355345123VILLARRUEL NICOLAS NORBERTO   000000002577300000000000000000000000000000000000000000000000000000000000000000000000000000000000000000000000000000000000PES00010000001000000000044730000000000000000000000000000                              000000000000000  
202311140010000300000000000000000346                8000000000020355345123VILLARRUEL NICOLAS NORBERTO   000000007417300000000000000000000000000000000000000000000000000000000000000000000000000000000000000000000000000000000000PES00010000001000000000128730000000000000000000000000000                              000000000000000  
202311140010000200000000000000012847                8000000000023127670099ARAMBURU CARLOS ALEJANDRO     000000032409047000000000000000000000000000000000000000000000000000000000000000000000000000000000000000000000000000000000PES00010000001000000000562471100000000000000000000000000                              000000000000000  
202311140010018600000000000000009503                8000000000030644727463EMFACO S.A.                   000000001200399000000000000000000000000000000000000000000000000000000000000000000000000000000000000000000000000000076596PES00010000001000000000019504000000000000000000000000000                              000000000000000  
202311140010123800000000000000003415                8000000000030685849751DIA ARGENTINA S.A.            000000000894410000000000000000000000000000000000000000000000000000000000000000000000000000000000000000000000000000000000PES00010000002000000000014885000000000000000000000000000                              000000000000000  
202311150010000200000000000000000508                8000000000030715471791ECONO JOURNAL SOCIEDAD DE RESP000000013650000000000000000000000000000000000000000000000000000000000000000000000000000000000000000000000000000000000000PES00010000001000000000065000000000000000000000000000000                              000000000000000  
202311150010000300000000000000000233                8000000000020270507256MICHKIN ANDRES                000000156090000000000000000000000000000000000000000000000000000000000000000000000000000000000000000000000000000000000000PES00010000001000000002709000000000000000000000000000000                              000000000000000  
202311150010000300000000000000001981                8000000000023182616699SERENELLINI EDUARDO JOSE      000000033396000000000000000000000000000000000000000000000000000000000000000000000000000000000000000000000000000000000000PES00010000001000000000579600000000000000000000000000000                              000000000000000  
202311150010000300000000000000004946                8000000000030688498615TELEFONIA DEL PLATA S.R.L.    000000004840000000000000000000000000000000000000000000000000000000000000000000000000000000000000000000000000000000000000PES00010000001000000000084000000000000000000000000000000                              000000000000000  
202311150110000100000000000000000088                8000000000027363992817LAVIERO MARIA LUCIA           000000031500000000000000000000000000000000000000000000000000000000000000000000000000000000000000000000000000000000000000PES00010000000000000000000000000000000000000000000000000                              000000000000000  
202311160010000200000000000000000218                8000000000030716723735MAN DAR SERVICIOS S.A.S       000000023885400000000000000000000000000000000000000000000000000000000000000000000000000000000000000000000000000000000000PES00010000001000000000414540000000000000000000000000000                              000000000000000  
202311160010000200000000000000000348                8000000000030715929364AUTODANTE S.A.                000000988000000000000000000000000000000000000000000000000000000000000000000000000000000000000000000000000000000000000000PES00010000001000000017147107400000000000000000000000000                              000000000000000  
202311160010000200000000000000000348                8000000000020258983271VALENZUELA ADOLFO DIEGO       000000072600000000000000000000000000000000000000000000000000000000000000000000000000000000000000000000000000000000000000PES00010000001000000001260000000000000000000000000000000                              000000000000000  
202311160010000300000000000000000021                8000000000020043775678DAGNINO JUAN CARLOS           000000090750000000000000000000000000000000000000000000000000000000000000000000000000000000000000000000000000000000000000PES00010000001000000001575000000000000000000000000000000                              000000000000000  
202311160010000500000000000000011470                8000000000030714190373DIELIAN S.R.L.                000000019163999000000000000000000000000000000000000000000000000000000000000000000000000000000000000000000000000000000000PES00010000001000000000332598300000000000000000000000000                              000000000000000  
202311160010000600000000000000009918                8000000000030709653780ACRILICOS MESCH S.A.          000000001504862000000000000000000000000000000000000000000000000000000000000000000000000000000000000000000000000000000000PES00010000001000000000026117400000000000000000000000000                              000000000000000  
202311160010001000000000000000325751                8000000000030652010489NATIONAL SERVICE ARGENTINA S.A000000024350955000000000000000000000000000000000000000000000000000000000000000000000589136000000000000000000000000000000PES00010000001000000000412395200000000000000000000000000                              000000000000000  
202311160110000200000000000000000637                8000000000023219927509REGIO PINTO GABRIEL           000000001200000000000000000000000000000000000000000000000000000000000000000000000000000000000000000000000000000000000000PES00010000000000000000000000000000000000000000000000000                              000000000000000  
202311170010000100000000000000000058                8000000000027924914195GUALTER LOO SIU YIE CRISTINA  000000156417745000000000000000000000000000000000000000000000000000000000000000000000000000000000000000000000000000000000PES00010000001000000002714688100000000000000000000000000                              000000000000000  
202311170010000200000000000000000603                8000000000020224329424MOCCIA SERGIO RUBEN           000000054145000000000000000000000000000000000000000000000000000000000000000000000000000000000000000000000000000000000000PES00010000001000000000514500000000000000000000000000000                              000000000000000  
202311170010000200000000000000000816                8000000000020348049489TOURNOUR FACUNDO              000000242000000000000000000000000000000000000000000000000000000000000000000000000000000000000000000000000000000000000000PES00010000001000000004200000000000000000000000000000000                              000000000000000  
202311170010000200000000000000001859                8000000000030708916605METALURGICA LAGILLA S.R.L.    000000085268700000000000000000000000000000000000000000000000000000000000000000000000000000000000000000000000000000000000PES00010000001000000001479870000000000000000000000000000                              000000000000000  
202311170010000200000000000000001860                8000000000030708916605METALURGICA LAGILLA S.R.L.    000000228073989000000000000000000000000000000000000000000000000000000000000000000000000000000000000000000000000000000000PES00010000001000000003958308900000000000000000000000000                              000000000000000  
202311170010001600000000000000002713                8000000000030680759894QUETAL S.A.                   000000007377999000000000000000000000000000000000000000000000000000000000000000000000000000000000000000000000000000000000PES00010000001000000000128047900000000000000000000000000                              000000000000000  
202311170010000400000000000000000418                8000000000023284233514ZANZOTTERA MARIA XIMENA       000000000726000000000000000000000000000000000000000000000000000000000000000000000000000000000000000000000000000000000000PES00010000001000000000012600000000000000000000000000000                              000000000000000  
202311170010018600000000000000009575                8000000000030644727463EMFACO S.A.                   000000001330283000000000000000000000000000000000000000000000000000000000000000000000000000000000000000000000000000084884PES00010000001000000000021614400000000000000000000000000                              000000000000000  
202311210010000200000000000000002184                8000000000030698326537AHORA PUBLICIDAD SOC COL      000000014278000000000000000000000000000000000000000000000000000000000000000000000000000000000000000000000000000000000000PES00010000001000000000247800000000000000000000000000000                              000000000000000  
202311210010001200000000000000000201                8000000000030715213709FUTUROCK PRODUCCIONES SRL     000000021780000000000000000000000000000000000000000000000000000000000000000000000000000000000000000000000000000000000000PES00010000001000000000378000000000000000000000000000000                              000000000000000  
202311210010001700000000000000006954                8000000000030636827661TELEVISION ABC S.A.           000000040656000000000000000000000000000000000000000000000000000000000000000000000000000000000000000000000000000000000000PES00010000001000000000705600000000000000000000000000000                              000000000000000  
202311210110000200000000000000000411                8000000000020269982536SUAREZ RUBEN DAMIAN           000000004500000000000000000000000000000000000000000000000000000000000000000000000000000000000000000000000000000000000000PES00010000000000000000000000000000000000000000000000000                              000000000000000  
202311220010000200000000000000000144                8000000000020103062366GILARDI JULIO JORGE           000000008966100000000000000000000000000000000000000000000000000000000000000000000000000000000000000000000000000000000000PES00010000001000000000155610000000000000000000000000000                              000000000000000  
202311220010000900000000000000013155                8000000000030575019524100000 LAMPARAS SRL           000000001885620000000000000000000000000000000000000000000000000000000000000000000000045620000000000000000000000000000000PES00010000001000000000031933900000000000000000000000000                              000000000000000  
202311220010000200000000000000008313                8000000000030580183928EMPRESA DE SEGURIDAD INTEGRAL 000000126047621000000000000000000000000000000000000000000000000000000000000000000000000000000000000000000000000000000000PES00010000001000000002187603300000000000000000000000000                              000000000000000  
202311220010001100000000000000014452                8000000000033708543239MATISA S.A.                   000000000798000000000000000000000000000000000000000000000000000000000000000000000000000000000000000000000000000000000000PES00010000001000000000013849600000000000000000000000000                              000000000000000  
202311220010022700000000000000000011                8000000000030644727463EMFACO S.A.                   000000000186999000000000000000000000000000000000000000000000000000000000000000000000000000000000000000000000000000000000PES00010000001000000000003245400000000000000000000000000                              000000000000000  
202311220010008000000000000000238367                8000000000030546741253OSDE ORGANIZACION DE SERVICIOS000000014862337000000000000000000000000000000000000000000000000000000000000000000000392837000000000000000000000000000000PES00010000001000000000137493000000000000000000000000000                              000000000000000  
202311220110000100000000000000000053                8000000000020946060276CHEREY ANTONIO FEDERICO       000000011714343000000000000000000000000000000000000000000000000000000000000000000000000000000000000000000000000000000000PES00010000000000000000000000000000000000000000000000000                              000000000000000  
202311220110000200000000000000000162                8000000000020327647084MUERZA LUIS MARTIN            000000020400000000000000000000000000000000000000000000000000000000000000000000000000000000000000000000000000000000000000PES00010000000000000000000000000000000000000000000000000                              000000000000000  
202311230010000200000000000000003601                8000000000030709192015COLORES AUSTRALES S.R.L.      000000007865000000000000000000000000000000000000000000000000000000000000000000000000000000000000000000000000000000000000PES00010000001000000000136500000000000000000000000000000                              000000000000000  
202311230010004700000000000000003022                8000000000030707834834COLORMAC S.R.L.               000000001330814000000000000000000000000000000000000000000000000000000000000000000000000000000000000000000000000000000000PES00010000001000000000023096800000000000000000000000000                              000000000000000  
202311230010001100000000000000014499                8000000000033708543239MATISA S.A.                   000000002351103000000000000000000000000000000000000000000000000000000000000000000000000000000000000000000000000000000000PES00010000001000000000040804300000000000000000000000000                              000000000000000  
202311230010003500000000000000822590                8000000000033692148229OFFICENET S.A.                000000008463613000000000000000000000000000000000000000000000000000000000000000000000204765000000000000000000000000000000PES00010000001000000000143335400000000000000000000000000                              000000000000000  
202311230010816000000000000000001197                8000000000030678774495OPERADORA DE ESTACIONES DE SER000000000263000000000000000000000000000004203000000000000000000000000000000000000000000000000000000000000000000000000000PES00010000001000000000004491500000000000000000000000000                              000000000000000  
202310230110000200000000000000000028                8000000000020172274618GONZALEZ RIVERO MARIO GASTON  000000024000000000000000000000000000000000000000000000000000000000000000000000000000000000000000000000000000000000000000PES00010000000000000000000000000000000000000000000000000                              000000000000000  
202311230110000200000000000000000039                8000000000020203501847BARLES ERNESTO RAMON RAFAEL   000000022550000000000000000000000000000000000000000000000000000000000000000000000000000000000000000000000000000000000000PES00010000000000000000000000000000000000000000000000000                              000000000000000  
202311240010000100000000000000000060                8000000000027924914195GUALTER LOO SIU YIE CRISTINA  000000003327500000000000000000000000000000000000000000000000000000000000000000000000000000000000000000000000000000000000PES00010000001000000000057750000000000000000000000000000                              000000000000000  
202311240010000200000000000000000008                8000000000020120117727PARRA DIEGO MIGUEL            000000101950244000000000000000000000000000000000000000000000000000000000000000000000000000000000000000000000000000000000PES00010000001000000001769384400000000000000000000000000                              000000000000000  
202311240010000200000000000000003603                8000000000030709192015COLORES AUSTRALES S.R.L.      000000062825620000000000000000000000000000000000000000000000000000000000000000000000000000000000000000000000000000000000PES00010000001000000001090362000000000000000000000000000                              000000000000000  
202311240010000300000000000000003620                8000000000027165217360ALVEOLITE MARIA CELIA         000000006134700000000000000000000000000000000000000000000000000000000000000000000000000000000000000000000000000000000000PES00010000001000000000106470000000000000000000000000000                              000000000000000  
202311240020000800000000000000000385                8000000000030697578990EMPRENDIMIENTOS INMOBILIARIOS 000000003663406000000000000000000000003663406000000000000000000000000000000000000000000000000000000000000000000000000000PES00010000001000000000000000000000000000000000000000000                              000000000000000  
202311240010636400000000000007939163                8000000000030639453738TELECOM ARGENTINA S.A.        000000006771713000000000000000000000000000000000000000159738000000000000000000000000164596000000000000000000000000002156PES00010000002000000000112062300000000000000000000000000                              000000000000000  
202311260010001200000000000000008987                8000000000030677909001RERIFE S.A.                   000000000299990000000000000000000000000000000000000000000000000000000000000000000000000000000000000000000000000000023480PES00010000001000000000004798900000000000000000000000000                              000000000000000  
202311270010000200000000000000001867                8000000000030708916605METALURGICA LAGILLA S.R.L.    000000161419445000000000000000000000000000000000000000000000000000000000000000000000000000000000000000000000000000000000PES00010000001000000002801494500000000000000000000000000                              000000000000000  
202311270010000300000000000000000542                8000000000030712286780ESCUELA ARGENTINA DE FINANZAS 000000014723280000000000000000000000000000000000000000000000000000000000000000000000000000000000000000000000000000000000PES00010000001000000000255528000000000000000000000000000                              000000000000000  
202311270010000400000000000000002511                8000000000020162255631PENDZIK JAVIER ENRIQUE        000000010890000000000000000000000000000000000000000000000000000000000000000000000000000000000000000000000000000000000000PES00010000001000000000189000000000000000000000000000000                              000000000000000  
202311270010000400000000000000002512                8000000000020162255631PENDZIK JAVIER ENRIQUE        000000010164000000000000000000000000000000000000000000000000000000000000000000000000000000000000000000000000000000000000PES00010000001000000000176400000000000000000000000000000                              000000000000000  
202311270010000900000000000001007175                8000000000030628455518NOSIS LAB. DE INVESTIGACION Y 000000026530916000000000000000000000000000000000000000000000000000000000000000000000641877000000000000000000000000000000PES00010000001000000000449313900000000000000000000000000                              000000000000000  
202311270110000100000000000000000034                8000000000020404075552PIERSIGILLI LAUTARO ADRIAN    000000011166100000000000000000000000000000000000000000000000000000000000000000000000000000000000000000000000000000000000PES00010000000000000000000000000000000000000000000000000                              000000000000000  
202311270110000100000000000000000035                8000000000020404075552PIERSIGILLI LAUTARO ADRIAN    000000000525390000000000000000000000000000000000000000000000000000000000000000000000000000000000000000000000000000000000PES00010000000000000000000000000000000000000000000000000                              000000000000000  
202311220110000200000000000000000151                8000000000027261329102URIONA LUCIANA VANESA         000000008450000000000000000000000000000000000000000000000000000000000000000000000000000000000000000000000000000000000000PES00010000000000000000000000000000000000000000000000000                              000000000000000  
202311280010000200000000000000000878                8000000000030710287488LAS COSAS CLARAS PRODUCCIONES 000000006655000000000000000000000000000000000000000000000000000000000000000000000000000000000000000000000000000000000000PES00010000001000000000115500000000000000000000000000000                              000000000000000  
202311280010000200000000000000002199                8000000000020244247572GUARINO JULIAN                000000049840142000000000000000000000000000000000000000000000000000000000000000000000000000000000000000000000000000000000PES00010000001000000000864994200000000000000000000000000                              000000000000000  
202311280010000300000000000000004971                8000000000030688498615TELEFONIA DEL PLATA S.R.L.    000000007502000000000000000000000000000000000000000000000000000000000000000000000000000000000000000000000000000000000000PES00010000001000000000130200000000000000000000000000000                              000000000000000  
202311280010004300000000000000005288                8000000000030710283547GESTION DE EMPRENDIMIENTOS DEP000000022980989000000000000000000000000000000000000000000000000000000000000000000000555992000000000000000000000000000000PES00010000001000000000389194200000000000000000000000000                              000000000000000  
202311280010019200000000000000008245                8000000000030644727463EMFACO S.A.                   000000000381999000000000000000000000000000000000000000000000000000000000000000000000000000000000000000000000000000000000PES00010000001000000000006629700000000000000000000000000                              000000000000000  
202311280110000100000000000000000110                8000000000027406413735DI FABIO PRISCILA             000000009944307000000000000000000000000000000000000000000000000000000000000000000000000000000000000000000000000000000000PES00010000000000000000000000000000000000000000000000000                              000000000000000  
202311280110000100000000000000000111                8000000000027406413735DI FABIO PRISCILA             000000000547311000000000000000000000000000000000000000000000000000000000000000000000000000000000000000000000000000000000PES00010000000000000000000000000000000000000000000000000                              000000000000000  
202311280110000300000000000000000040                8000000000020076020656AROZENA JUAN CARLOS           000000017457100000000000000000000000000000000000000000000000000000000000000000000000000000000000000000000000000000000000PES00010000000000000000000000000000000000000000000000000                              000000000000000  
202311280110000300000000000000000041                8000000000020076020656AROZENA JUAN CARLOS           000000000268900000000000000000000000000000000000000000000000000000000000000000000000000000000000000000000000000000000000PES00010000000000000000000000000000000000000000000000000                              000000000000000  
202311290010000100000000000000000289                8000000000030715298461MINTA GROUP SRL               000000029446560000000000000000000000000000000000000000000000000000000000000000000000000000000000000000000000000000000000PES00010000001000000000511056000000000000000000000000000                              000000000000000  
202311290010000100000000000000000821                8000000000030715442392RELATORES COOPERATIVA DE TRABA000000009638013000000000000000000000000000000000000000000000000000000000000000000000000000000000000000000000000000000000PES00010000001000000000167271300000000000000000000000000                              000000000000000  
202311290010000200000000000000000840                8000000000030709744816RABONA SRL                    000000024200000000000000000000000000000000000000000000000000000000000000000000000000000000000000000000000000000000000000PES00010000001000000000420000000000000000000000000000000                              000000000000000  
202311290010000200000000000000000841                8000000000030709744816RABONA SRL                    000000014520000000000000000000000000000000000000000000000000000000000000000000000000000000000000000000000000000000000000PES00010000001000000000252000000000000000000000000000000                              000000000000000  
202311290010000200000000000000000842                8000000000030709744816RABONA SRL                    000000070785000000000000000000000000000000000000000000000000000000000000000000000000000000000000000000000000000000000000PES00010000001000000001228500000000000000000000000000000                              000000000000000  
202311290010000200000000000000000843                8000000000030709744816RABONA SRL                    000000015609000000000000000000000000000000000000000000000000000000000000000000000000000000000000000000000000000000000000PES00010000001000000000270900000000000000000000000000000                              000000000000000  
202311290010000500000000000000000229                8000000000020372458349GONZALEZ PALUMBO JUAN MANUEL  000000025410000000000000000000000000000000000000000000000000000000000000000000000000000000000000000000000000000000000000PES00010000001000000000441000000000000000000000000000000                              000000000000000  
202311290010000600000000000000171790                8000000000030708384158MONITOREO SIN ABONO S.A.      000000002115213000000000000000000000000000000000000000000000000000000000000000000000000000000000000000000000000000000000PES00010000001000000000036710300000000000000000000000000                              000000000000000  
202311290010000300000000000000032015                8000000000030714406627BARRANDEGUY LEONARDO Y FUENTES000000006487008000000000000000000000000388608000000000000000000000000000000000000000000000000000000000000000000000000000PES00010000001000000000105840000000000000000000000000000                              000000000000000  
202311290010004700000000000000003040                8000000000030707834834COLORMAC S.R.L.               000000001199984000000000000000000000000000000000000000000000000000000000000000000000000000000000000000000000000000000000PES00010000001000000000020826200000000000000000000000000                              000000000000000  
202311290010000600000000000000010001                8000000000030709653780ACRILICOS MESCH S.A.          000000004600345000000000000000000000000000001000000000000000000000000000000000000000000000000000000000000000000000000000PES00010000001000000000079840700000000000000000000000000                              000000000000000  
202311290010018600000000000000009756                8000000000030644727463EMFACO S.A.                   000000001180138000000000000000000000000000000000000000000000000000000000000000000000000000000000000000000000000000066990PES00010000001000000000019319100000000000000000000000000                              000000000000000  
202311290010022700000000000000000012                8000000000030644727463EMFACO S.A.                   000000000246000000000000000000000000000000000000000000000000000000000000000000000000000000000000000000000000000000000000PES00010000001000000000004269400000000000000000000000000                              000000000000000  
202311290510000100000000000000000010                8000000000030716443430CATSIER S.R.L.                000000006272640000000000000000000000000000000000000000000000000000000000000000000000000000000000000000000000000000000000PES00010000001000000000108864000000000000000000000000000                              000000000000000  
202311300010000100000000000000001325                8000000000030709897612MEDIOS Y PARTICIPACIONES SA   000000024200000000000000000000000000000000000000000000000000000000000000000000000000000000000000000000000000000000000000PES00010000001000000000420000000000000000000000000000000                              000000000000000  
202311300010000100000000000000004580                8000000000030707722777CONSORCIO DE COPROPIETARIOS OL000000266506098000000000000000000000019423957000000000000000000000000000000000000000000000000000000000000000000000000000PES00010000002000000004556397100000000000000000000000000                              000000000000000  
202311300010000200000000000000000135                8000000000020182488144NORIEGA ADRIAN OCTAVIO        000000018150000000000000000000000000000000000000000000000000000000000000000000000000000000000000000000000000000000000000PES00010000001000000000315000000000000000000000000000000                              000000000000000  
202311300010000200000000000000001507                8000000000020160716917RATIBEL ANIBAL GABRIEL        000002228571950000000000000000000000000000000000000000000000000000000000000000000000000000000000000000000000000000000000PES00010000001000000038677695000000000000000000000000000                              000000000000000  
202311300010000200000000000000001508                8000000000020160716917RATIBEL ANIBAL GABRIEL        000000077377080000000000000000000000000000000000000000000000000000000000000000000000000000000000000000000000000000000000PES00010000001000000001342908000000000000000000000000000                              000000000000000  
202311300010000200000000000000001509                8000000000020160716917RATIBEL ANIBAL GABRIEL        000000217800000000000000000000000000000000000000000000000000000000000000000000000000000000000000000000000000000000000000PES00010000001000000003780000000000000000000000000000000                              000000000000000  
202311300010000200000000000000001814                8000000000030717604977ELEGI FRUTA S. R. L.          000000012307932000000000000000000000000000000000000000000000000000000000000000000000000000000000000000000000000000000000PES00010000001000000000116953200000000000000000000000000                              000000000000000  
202311300010000200000000000000001916                8000000000020203709898ECHEVARRIA GONZALO            000000119306000000000000000000000000000000000000000000000000000000000000000000000000000000000000000000000000000000000000PES00010000001000000002070600000000000000000000000000000                              000000000000000  
202311300010000200000000000000002136                8000000000020045230911GARCIA ROBERTO ANGEL          000000033553300000000000000000000000000000000000000000000000000000000000000000000000000000000000000000000000000000000000PES00010000001000000000582330000000000000000000000000000                              000000000000000  
202311300010000200000000000000002216                8000000000030698326537AHORA PUBLICIDAD SOC COL      000000016698000000000000000000000000000000000000000000000000000000000000000000000000000000000000000000000000000000000000PES00010000001000000000289800000000000000000000000000000                              000000000000000  
202311300010000200000000000000003332                8000000000030683013184COMUNICACION PUBLICITARIA S.R.000000009815520000000000000000000000000000000000000000000000000000000000000000000000000000000000000000000000000000000000PES00010000001000000000170352000000000000000000000000000                              000000000000000  
202311300010000200000000000000003558                8000000000030695578713JMS Y ASOCIADOS S.A.          000000036468432000000000000000000000000000000000000000000000000000000000000000000000000000000000000000000000000000000000PES00010000001000000000632923200000000000000000000000000                              000000000000000  
202311300010000300000000000000000220                8000000000030714533793PIER MEDIA S.R.L.             000000132634150000000000000000000000000000000000000000000000000000000000000000000000000000000000000000000000000000000000PES00010000001000000002301915000000000000000000000000000                              000000000000000  
202311300010000300000000000000000221                8000000000030714533793PIER MEDIA S.R.L.             000000058213100000000000000000000000000000000000000000000000000000000000000000000000000000000000000000000000000000000000PES00010000001000000001010310000000000000000000000000000                              000000000000000  
202311300010000300000000000000000222                8000000000030714533793PIER MEDIA S.R.L.             000000156888600000000000000000000000000000000000000000000000000000000000000000000000000000000000000000000000000000000000PES00010000001000000002722860000000000000000000000000000                              000000000000000  
202311300010000300000000000000000352                8000000000020355345123VILLARRUEL NICOLAS NORBERTO   000000019965000000000000000000000000000000000000000000000000000000000000000000000000000000000000000000000000000000000000PES00010000001000000000346500000000000000000000000000000                              000000000000000  
202311300010000300000000000000005223                8000000000030709388114DAK GRUPO CREATIVO S.R.L      000000006050000000000000000000000000000000000000000000000000000000000000000000000000000000000000000000000000000000000000PES00010000001000000000105000000000000000000000000000000                              000000000000000  
202311300010000400000000000000000016                8000000000027185286040GHELFI MARIA LIA              000000008418735000000000000000000000000000000000000000000000000000000000000000000000000000000000000000000000000000000000PES00010000001000000000020533500000000000000000000000000                              000000000000000  
202311300010000400000000000000000237                8000000000023313423069FERRENTINO ARIEL LEANDRO      000000008712000000000000000000000000000000000000000000000000000000000000000000000000000000000000000000000000000000000000PES00010000001000000000151200000000000000000000000000000                              000000000000000  
202311300030000400000000000000000803                8000000000030712389512CADENAZZI PUBLICIDAD DE CADENA000000300989376000000000000000000000000000000000000000000000000000000000000000000000000000000000000000000000000000000000PES00010000001000000005223782600000000000000000000000000                              000000000000000  
202311300010000400000000000000001444                8000000000030712389512CADENAZZI PUBLICIDAD DE CADENA000000528979572000000000000000000000000000000000000000000000000000000000000000000000000000000000000000000000000000000000PES00010000001000000009180637200000000000000000000000000                              000000000000000  
202311300010000400000000000000001445                8000000000030712389512CADENAZZI PUBLICIDAD DE CADENA000000051667000000000000000000000000000000000000000000000000000000000000000000000000000000000000000000000000000000000000PES00010000001000000000896700000000000000000000000000000                              000000000000000  
202311300010000400000000000000001446                8000000000030712389512CADENAZZI PUBLICIDAD DE CADENA000000007487480000000000000000000000000000000000000000000000000000000000000000000000000000000000000000000000000000000000PES00010000001000000000129948000000000000000000000000000                              000000000000000  
202311300010000400000000000000001447                8000000000030712389512CADENAZZI PUBLICIDAD DE CADENA000000278473272000000000000000000000000000000000000000000000000000000000000000000000000000000000000000000000000000000000PES00010000001000000004833007200000000000000000000000000                              000000000000000  
202311300030000500000000000000000098                8000000000033708416679SAWGRASS S.R.L.               000000000210064000000000000000000000000000000000000000000000000000000000000000000000000000000000000000000000000000000000PES00010000001000000000003645700000000000000000000000000                              000000000000000  
202311300030000500000000000000000099                8000000000033708416679SAWGRASS S.R.L.               000000001695381000000000000000000000000000000000000000000000000000000000000000000000000000000000000000000000000000000000PES00010000001000000000029424000000000000000000000000000                              000000000000000  
202311300010000500000000000000000349                8000000000033708416679SAWGRASS S.R.L.               000000004201289000000000000000000000000000000000000000000000000000000000000000000000000000000000000000000000000000000000PES00010000001000000000072914900000000000000000000000000                              000000000000000  
202311300010000500000000000000000350                8000000000033708416679SAWGRASS S.R.L.               000000033907618000000000000000000000000000000000000000000000000000000000000000000000000000000000000000000000000000000000PES00010000001000000000588479300000000000000000000000000                              000000000000000  
202311300010000600000000000000001152                8000000000020147410507DUBOIS ALEJANDRO DANIEL       000000013937800000000000000000000000000000000000000000000000000000000000000000000000000000000000000000000000000000000000PES00010000001000000000241895700000000000000000000000000                              000000000000000  
202311300010000100000000000000001325                8000000000030709897612MEDIOS Y PARTICIPACIONES SA   000000024200000000000000000000000000000000000000000000000000000000000000000000000000000000000000000000000000000000000000PES00010000001000000000420000000000000000000000000000000                              000000000000000  
202311300010000100000000000000030862                8000000000030711091552BIGBOX S.A                    000000003869999000000000000000000000000000000000000000000000000000000000000000000000000000000000000000000000000000000000PES00010000001000000000067165300000000000000000000000000                              000000000000000  
202311300010000100000000000000112023                8000000000030500003193BBVA BANCO FRANCES S.A.       000000022962768000000000000000000000000000000000000000418260000000000000000000000000418260000000000000000000000000000000PES00010000001000000000384009100000000000000000000000000                              000000000000000  
202311300010001000000000000000003221                8000000000030709663603MADERO ESTE PARKING S.A.      000000002790000000000000000000000000000000000000000000000000000000000000000000000000000000000000000000000000000000000000PES00010000001000000000048421500000000000000000000000000                              000000000000000  
202311300010000200000000000000000138                8000000000030717194884VACAS PUBLICIDAD S.A.S.       000000003651563000000000000000000000000000000000000000000000000000000000000000000000000000000000000000000000000000000000PES00010000001000000000008906300000000000000000000000000                              000000000000000  
202311300010000200000000000000000139                8000000000030717194884VACAS PUBLICIDAD S.A.S.       000000100901900000000000000000000000000000000000000000000000000000000000000000000000000000000000000000000000000000000000PES00010000001000000001751190000000000000000000000000000                              000000000000000  
202311300010000200000000000000000140                8000000000030717194884VACAS PUBLICIDAD S.A.S.       000000036036825000000000000000000000000000000000000000000000000000000000000000000000000000000000000000000000000000000000PES00010000001000000000625432500000000000000000000000000                              000000000000000  
202311300010000200000000000000000141                8000000000030717194884VACAS PUBLICIDAD S.A.S.       000000050252085000000000000000000000000000000000000000000000000000000000000000000000000000000000000000000000000000000000PES00010000001000000000477508500000000000000000000000000                              000000000000000  
202311300010000200000000000000003331                8000000000030683013184COMUNICACION PUBLICITARIA S.R.000000019631040000000000000000000000000000000000000000000000000000000000000000000000000000000000000000000000000000000000PES00010000001000000000340704000000000000000000000000000                              000000000000000  
202311300010000300000000000000199833                8000000000030609178430AMERICA TV S.A.               000000077453376000000000000000000000000000000000000000000000000000000000000000000001873872000000000000000000000000000000PES00010000001000000001311710400000000000000000000000000                              000000000000000  
202311300010000300000000000000200171                8000000000030609178430AMERICA TV S.A.               000000032272240000000000000000000000000000000000000000000000000000000000000000000000780780000000000000000000000000000000PES00010000001000000000546546000000000000000000000000000                              000000000000000  
202311300010000600000000000000001341                8000000000030587511726POLIMAX S R L                 000000010474463000000000000000000000000000000000000000000000000000000000000000000000000000000000000000000000000000000000PES00010000001000000000181788200000000000000000000000000                              000000000000000  
202311300010000900000000000000243359                8000000000030575170125PROSEGUR S A                  000000060087066000000000000000000000000000000000000000000000000000000000000000000001806225000000000000000000000000000000PES00010000001000000001011485700000000000000000000000000                              000000000000000  
202311300010001100000000000000014687                8000000000033708543239MATISA S.A.                   000000000860000000000000000000000000000000000000000000000000000000000000000000000000000000000000000000000000000000000000PES00010000001000000000014925600000000000000000000000000                              000000000000000  
202311300010001100000000000000014698                8000000000033708543239MATISA S.A.                   000000000230000000000000000000000000000000000000000000000000000000000000000000000000000000000000000000000000000000000000PES00010000001000000000003991700000000000000000000000000                              000000000000000  
202311300030001100000000000000674138                8000000000033709585229GOOGLE ARGENTINA S.R.L.       000000000077457000000000000000000000000000000000000000000000000000000000000000000000001874000000000000000000000000000000PES00010000001000000000001311800000000000000000000000000                              000000000000000  
202311300010001100000000000000908661                8000000000033709585229GOOGLE ARGENTINA S.R.L.       000000036818384000000000000000000000000000000000000000869726000000000000000000000000869726000000000000000000000000000000PES00010000001000000000608807900000000000000000000000000                              000000000000000  
202311300020001200000000000000012620                8000000000030696850972CPS COMUNICACIONES S.A.       000000000461280000000000000000000000000000000000000000000000000000000000000000000000011160000000000000000000000000000000PES00010000001000000000007812000000000000000000000000000                              000000000000000  
202311300010001600000000000000005134                8000000000030500090029EL CRONISTA COMERCIAL S.A.    000000057629000000000000000000000000000000000000000000000000000000000000000000000001394250000000000000000000000000000000PES00010000001000000000975975000000000000000000000000000                              000000000000000  
202311300010001700000000000000006986                8000000000030636827661TELEVISION ABC S.A.           000000033786225000000000000000000000000000000000000000000000000000000000000000000000000000000000000000000000000000000000PES00010000001000000000586372500000000000000000000000000                              000000000000000  
202311300010001700000000000000007075                8000000000030636827661TELEVISION ABC S.A.           000000040656000000000000000000000000000000000000000000000000000000000000000000000000000000000000000000000000000000000000PES00010000001000000000705600000000000000000000000000000                              000000000000000  
202311300010010000000000000000004700                8000000000030707221565NEFIR S.A.                    000000029835000000000000000000000000000000000000000000000000000000000000000000000000000000000000000000000000000000000000PES00010000001000000000283500000000000000000000000000000                              000000000000000  
202311300010135000000000000000022837                8000000000030500089624LA NACION S.A.                000000024735000000000000000000000000024735000000000000000000000000000000000000000000000000000000000000000000000000000000PES00010000001000000000000000000000000000000000000000000                              000000000000000  
202311300010246500000000000000313049                8000000000030708574836CORREO OFICIAL DE LA REPUBLICA000000000015000000000000000000000000000000000000000000000000000000000000000000000000000000000000000000000000000000000000PES00010000001000000000000260300000000000000000000000000                              000000000000000  
202311300010246500000000000000313091                8000000000030708574836CORREO OFICIAL DE LA REPUBLICA000000000445000000000000000000000000000445000000000000000000000000000000000000000000000000000000000000000000000000000000PES00010000001000000000000000000000000000000000000000000                              000000000000000  
202311300110000100000000000000000080                8000000000027376202157MALDONADO PAULA DOLORES       000000059965304000000000000000000000000000000000000000000000000000000000000000000000000000000000000000000000000000000000PES00010000000000000000000000000000000000000000000000000                              000000000000000  
202311300110000100000000000000000599                8000000000020142068371LOPEZ KING EMILIO             000000008000000000000000000000000000000000000000000000000000000000000000000000000000000000000000000000000000000000000000PES00010000000000000000000000000000000000000000000000000                              000000000000000  
202311300110000200000000000000000183                8000000000027248040357FERRARI NATALIA ANDREA        000000019316400000000000000000000000000000000000000000000000000000000000000000000000000000000000000000000000000000000000PES00010000000000000000000000000000000000000000000000000                              000000000000000  
202311300110000200000000000000000184                8000000000027248040357FERRARI NATALIA ANDREA        000000000635700000000000000000000000000000000000000000000000000000000000000000000000000000000000000000000000000000000000PES00010000000000000000000000000000000000000000000000000                              000000000000000  
202311300110000200000000000000000339                8000000000020141421779MC GAW RICARDO MARCOS         000000003000000000000000000000000000000000000000000000000000000000000000000000000000000000000000000000000000000000000000PES00010000000000000000000000000000000000000000000000000                              000000000000000  
202311300630000100000000000000000102                8000000000030516997504SICAME ARGENTINA S.A          000000384595000000000000000000000000000000000000000000000000000000000000000000000000000000000000000000000000000000000000PES00010000002000000005659500000000000000000030718033612ADRIAN MERCADO SUBASTAS S.A.  000000000000000  
202311300630000100000000000000000104                8000000000030716259370VELLA ITALIA CRISTAL          000000053240000000000000000000000000000000000000000000000000000000000000000000000000000000000000000000000000000000000000PES00010000001000000000924000000000000000000030718033612ADRIAN MERCADO SUBASTAS S.A.  000000000000000  
202311300630000100000000000000000105                8000000000030701307115DESPEGAR.COM.AR SA            000000050941000000000000000000000000000000000000000000000000000000000000000000000000000000000000000000000000000000000000PES00010000001000000000884100000000000000000030718033612ADRIAN MERCADO SUBASTAS S.A.  000000000000000  
202311300630000100000000000000000106                8000000000030701307115DESPEGAR.COM.AR SA            000001107150000000000000000000000000000000000000000000000000000000000000000000000000000000000000000000000000000000000000PES00010000001000000019215000000000000000000030718033612ADRIAN MERCADO SUBASTAS S.A.  000000000000000  
202311300630000100000000000000000107                8000000000030714498904CARNES MOREIRA SRL            000000730070000000000000000000000000000000000000000000000000000000000000000000000000000000000000000000000000000000000000PES00010000002000000009807000000000000000000030718033612ADRIAN MERCADO SUBASTAS S.A.  000000000000000  
202311300630000100000000000000000108                8000000000030578079994OBRA SOCIAL DEL PERS          000000748385000000000000000000000000000000000000000000000000000000000000000000000000000000000000000000000000000000000000PES00010000001000000012988500000000000000000030718033612ADRIAN MERCADO SUBASTAS S.A.  000000000000000  
202311300630000100000000000000000109                8000000000030670571447IBERCONSA DE ARGENTI          000001725135000000000000000000000000000000000000000000000000000000000000000000000000000000000000000000000000000000000000PES00010000002000000020863500000000000000000030718033612ADRIAN MERCADO SUBASTAS S.A.  000000000000000  
202311300630000100000000000000000110                8000000000030716590883ALFA METALES SRL              -00000038675000000000000000000000000000000000000000000000000000000000000000000000000000000000000000000000000000000000000PES000100000010-0000000367500000000000000000030718033612ADRIAN MERCADO SUBASTAS S.A.  000000000000000  
