202309050010000200000000000000004957                8000000000027055716744SOBREIRA MARIA                000000002758712000000000000000000000002758712000000000000000000000000000000000000000000000000000000000000000000000000000PES00010000001000000000000000000000000000000000000000000                              000000000000000  
202309120010000100000000000000000051                8000000000027924914195GUALTER LOO SIU YIE CRISTINA  000000003478750000000000000000000000000000000000000000000000000000000000000000000000000000000000000000000000000000000000PES00010000001000000000060375000000000000000000000000000                              000000000000000  
202309120010000200000000000000001750                8000000000030708916605METALURGICA LAGILLA S.R.L.    000000018150000000000000000000000000000000000000000000000000000000000000000000000000000000000000000000000000000000000000PES00010000001000000000315000000000000000000000000000000                              000000000000000  
202309120010001600000000000000002514                8000000000030680759894QUETAL S.A.                   000000002730000000000000000000000000000000000000000000000000000000000000000000000000000000000000000000000000000000000000PES00010000001000000000047380200000000000000000000000000                              000000000000000  
202309130010000200000000000000012581                8000000000023127670099ARAMBURU CARLOS ALEJANDRO     000000016772421000000000000000000000000000000000000000000000000000000000000000000000000000000000000000000000000000000000PES00010000001000000000291091600000000000000000000000000                              000000000000000  
202309150010000200000000000000000405                8000000000030715471791ECONO JOURNAL SOCIEDAD DE RESP000000013650000000000000000000000000000000000000000000000000000000000000000000000000000000000000000000000000000000000000PES00010000001000000000065000000000000000000000000000000                              000000000000000  
202309150010001500000000000000001515                8000000000030680759894QUETAL S.A.                   000000000200000000000000000000000000000000000000000000000000000000000000000000000000000000000000000000000000000000000000PES00010000001000000000003471100000000000000000000000000                              000000000000000  
202309150110000200000000000000000028                8000000000020211131706DESIDERIO CRISTIAN GABRIEL    000000020000000000000000000000000000000000000000000000000000000000000000000000000000000000000000000000000000000000000000PES00010000000000000000000000000000000000000000000000000                              000000000000000  
202309190010001100000000000000003750                8000000000030660840199L VOITURE S.A.                000000007289735000000000000000000000000000000000000000000000000000000000000000000000176365000000000000000000000000000000PES00010000001000000000123455200000000000000000000000000                              000000000000000  
202309190010001100000000000000003751                8000000000030660840199L VOITURE S.A.                000000003906000000000000000000000000000000000000000000000000000000000000000000000000094500000000000000000000000000000000PES00010000001000000000066150000000000000000000000000000                              000000000000000  
202309190110000600000000000000000469                8000000000020381530958PALADINO MAXIMILIANO NAHUEL   000000006850000000000000000000000000000000000000000000000000000000000000000000000000000000000000000000000000000000000000PES00010000000000000000000000000000000000000000000000000                              000000000000000  
202309200010000400000000000000014925                8000000000030710524587WIDE FORMAT S.A               000000005590200000000000000000000000000000000000000000000000000000000000000000000000000000000000000000000000000000000000PES00010000001000000000097020000000000000000000000000000                              000000000000000  
202309200010001500000000000000001538                8000000000030680759894QUETAL S.A.                   000000000480000000000000000000000000000000000000000000000000000000000000000000000000000000000000000000000000000000000000PES00010000001000000000008330600000000000000000000000000                              000000000000000  
202309210010000200000000000000001244                8000000000027203497844CALVELO MARIA GABRIELA        000000035336235000000000000000000000000000000000000000000000000000000000000000000000000000000000000000000000000000000000PES00010000001000000000613273500000000000000000000000000                              000000000000000  
202309210010000200000000000000003539                8000000000030709192015COLORES AUSTRALES S.R.L.      000000005808000000000000000000000000000000000000000000000000000000000000000000000000000000000000000000000000000000000000PES00010000001000000000100800000000000000000000000000000                              000000000000000  
202309210010000600000000000000002047                8000000000030716383519TUPAPELERIA S.R.L.            000000001124211000000000000000000000000000000000000000000000000000000000000000000000000000000000000000000000000000000000PES00010000001000000000019511100000000000000000000000000                              000000000000000  
202309210010000600000000000000009515                8000000000030709653780ACRILICOS MESCH S.A.          000000001592118000000000000000000000000000000000000000000000000000000000000000000000000000000000000000000000000000000000PES00010000001000000000027631800000000000000000000000000                              000000000000000  
202309210010001000000000000000114910                8000000000030711069360BIDCOM SRL                    000000021058479000000000000000000000000000000000000000000000000000000000000000000000509479000000000000000000000000000000PES00010000001000000000356635500000000000000000000000000                              000000000000000  
202309220010000100000000000000002501                8000000000027920070103ASPIAZU FUENTES JUDITH MIGUELI000000001149500000000000000000000000000000000000000000000000000000000000000000000000000000000000000000000000000000000000PES00010000001000000000019950000000000000000000000000000                              000000000000000  
202309220110000100000000000000000075                8000000000020240539935ZUCCONI ARIEL PEDRO           000000007500000000000000000000000000000000000000000000000000000000000000000000000000000000000000000000000000000000000000PES00010000000000000000000000000000000000000000000000000                              000000000000000  
202309220110000100000000000000000566                8000000000020142068371LOPEZ KING EMILIO             000000008000000000000000000000000000000000000000000000000000000000000000000000000000000000000000000000000000000000000000PES00010000000000000000000000000000000000000000000000000                              000000000000000  
202309240010003100000000000000004282                8000000000030679202045LEADER ELECTRONIC S.A         000000001169990000000000000000000000000000000000000000000000000000000000000000000000000000000000000000000000000000000000PES00010000001000000000020305600000000000000000000000000                              000000000000000  
202309250010001800000000000000000441                8000000000030711103534ENCODE S.A.                   000000047069000000000000000000000000000000000000000000000000000000000000000000000000000000000000000000000000000000000000PES00010000001000000000816900000000000000000000000000000                              000000000000000  
202309250110000100000000000000000097                8000000000027406413735DI FABIO PRISCILA             000000000547311000000000000000000000000000000000000000000000000000000000000000000000000000000000000000000000000000000000PES00010000000000000000000000000000000000000000000000000                              000000000000000  
202309250110000100000000000000000098                8000000000027406413735DI FABIO PRISCILA             000000009944307000000000000000000000000000000000000000000000000000000000000000000000000000000000000000000000000000000000PES00010000000000000000000000000000000000000000000000000                              000000000000000  
202309260010000300000000000000003560                8000000000027165217360ALVEOLITE MARIA CELIA         000000006134700000000000000000000000000000000000000000000000000000000000000000000000000000000000000000000000000000000000PES00010000001000000000106470000000000000000000000000000                              000000000000000  
202309260010001000000000000000320815                8000000000030652010489NATIONAL SERVICE ARGENTINA S.A000000019587310000000000000000000000000000000000000000000000000000000000000000000000473887000000000000000000000000000000PES00010000001000000000331720600000000000000000000000000                              000000000000000  
202309260110000100000000000000000030                8000000000020404075552PIERSIGILLI LAUTARO ADRIAN    000000011166100000000000000000000000000000000000000000000000000000000000000000000000000000000000000000000000000000000000PES00010000000000000000000000000000000000000000000000000                              000000000000000  
202309260110000100000000000000000031                8000000000020404075552PIERSIGILLI LAUTARO ADRIAN    000000000525390000000000000000000000000000000000000000000000000000000000000000000000000000000000000000000000000000000000PES00010000000000000000000000000000000000000000000000000                              000000000000000  
202309260110000200000000000000000336                8000000000020945446855BAHAMONDE ORTIZ JUAN CARLOS   000000001350000000000000000000000000000000000000000000000000000000000000000000000000000000000000000000000000000000000000PES00010000000000000000000000000000000000000000000000000                              000000000000000  
202309270010000100000000000000000791                8000000000030715442392RELATORES COOPERATIVA DE TRABA000000009638013000000000000000000000000000000000000000000000000000000000000000000000000000000000000000000000000000000000PES00010000001000000000167271300000000000000000000000000                              000000000000000  
202309270010000100000000000000000792                8000000000030715442392RELATORES COOPERATIVA DE TRABA000000009638013000000000000000000000000000000000000000000000000000000000000000000000000000000000000000000000000000000000PES00010000001000000000167271300000000000000000000000000                              000000000000000  
202309270010000200000000000000000791                8000000000030709744816RABONA SRL                    000000015609000000000000000000000000000000000000000000000000000000000000000000000000000000000000000000000000000000000000PES00010000001000000000270900000000000000000000000000000                              000000000000000  
202309270010000200000000000000000792                8000000000030709744816RABONA SRL                    000000015609000000000000000000000000000000000000000000000000000000000000000000000000000000000000000000000000000000000000PES00010000001000000000270900000000000000000000000000000                              000000000000000  
202309270010000200000000000000000793                8000000000030709744816RABONA SRL                    000000070785000000000000000000000000000000000000000000000000000000000000000000000000000000000000000000000000000000000000PES00010000001000000001228500000000000000000000000000000                              000000000000000  
202309270010000200000000000000000794                8000000000030709744816RABONA SRL                    000000070785000000000000000000000000000000000000000000000000000000000000000000000000000000000000000000000000000000000000PES00010000001000000001228500000000000000000000000000000                              000000000000000  
202309270010000200000000000000000795                8000000000030709744816RABONA SRL                    000000014520000000000000000000000000000000000000000000000000000000000000000000000000000000000000000000000000000000000000PES00010000001000000000252000000000000000000000000000000                              000000000000000  
202309270010000200000000000000000796                8000000000030709744816RABONA SRL                    000000014520000000000000000000000000000000000000000000000000000000000000000000000000000000000000000000000000000000000000PES00010000001000000000252000000000000000000000000000000                              000000000000000  
202309270010000200000000000000000797                8000000000030709744816RABONA SRL                    000000024200000000000000000000000000000000000000000000000000000000000000000000000000000000000000000000000000000000000000PES00010000001000000000420000000000000000000000000000000                              000000000000000  
202309270010000200000000000000000798                8000000000030709744816RABONA SRL                    000000024200000000000000000000000000000000000000000000000000000000000000000000000000000000000000000000000000000000000000PES00010000001000000000420000000000000000000000000000000                              000000000000000  
202309270010000300000000000000000522                8000000000030712286780ESCUELA ARGENTINA DE FINANZAS 000000011325600000000000000000000000000000000000000000000000000000000000000000000000000000000000000000000000000000000000PES00010000001000000000196560000000000000000000000000000                              000000000000000  
202309270010000400000000000000002416                8000000000020162255631PENDZIK JAVIER ENRIQUE        000000007018000000000000000000000000000000000000000000000000000000000000000000000000000000000000000000000000000000000000PES00010000001000000000121800000000000000000000000000000                              000000000000000  
202309270010000400000000000000002417                8000000000020162255631PENDZIK JAVIER ENRIQUE        000000007865000000000000000000000000000000000000000000000000000000000000000000000000000000000000000000000000000000000000PES00010000001000000000136500000000000000000000000000000                              000000000000000  
202309270010000500000000000000002258                8000000000023291929109BERRETTA CARLOS MARIANO       000000024200000000000000000000000000000000000000000000000000000000000000000000000000000000000000000000000000000000000000PES00010000001000000000420000000000000000000000000000000                              000000000000000  
202309270010000600000000000000001285                8000000000030587511726POLIMAX S R L                 000000003635499000000000000000000000000000000000000000000000000000000000000000000000000000000000000000000000000000000000PES00010000001000000000063095400000000000000000000000000                              000000000000000  
202309270010228300000000000000000960                8000000000030692138747FARMCITY S.A.                 000000001351498000000000000000000000000000000000000000032698000000000000000000000000000000000000000000000000000000000000PES00010000001000000000022888200000000000000000000000000                              000000000000000  
202309280010000400000000000000000007                8000000000027185286040GHELFI MARIA LIA              000000008281845000000000000000000000000000000000000000000000000000000000000000000000000000000000000000000000000000000000PES00010000001000000000143734500000000000000000000000000                              000000000000000  
202309280010000400000000000000000179                8000000000030715235745BEATBANG S.R.L.               000000017862988000000000000000000000000000000000000000000000000000000000000000000000000000000000000000000000000000000000PES00010000001000000000310018800000000000000000000000000                              000000000000000  
202309280110000200000000000000000179                8000000000027248040357FERRARI NATALIA ANDREA        000000016412200000000000000000000000000000000000000000000000000000000000000000000000000000000000000000000000000000000000PES00010000000000000000000000000000000000000000000000000                              000000000000000  
202309280110000200000000000000000180                8000000000027248040357FERRARI NATALIA ANDREA        000000000635700000000000000000000000000000000000000000000000000000000000000000000000000000000000000000000000000000000000PES00010000000000000000000000000000000000000000000000000                              000000000000000  
202309290010000100000000000000001696                8000000000030715558331COLMAN'S S.R.L.               000000019602000000000000000000000000000000000000000000000000000000000000000000000000000000000000000000000000000000000000PES00010000001000000000340200000000000000000000000000000                              000000000000000  
202309290010000200000000000000000001                8000000000020120117727PARRA DIEGO MIGUEL            000000001815000000000000000000000000000000000000000000000000000000000000000000000000000000000000000000000000000000000000PES00010000001000000000031500000000000000000000000000000                              000000000000000  
202309290010000200000000000000000002                8000000000020120117727PARRA DIEGO MIGUEL            000000001970969000000000000000000000000000000000000000000000000000000000000000000000000000000000000000000000000000000000PES00010000001000000000034206900000000000000000000000000                              000000000000000  
202309290010000200000000000000000125                8000000000020182488144NORIEGA ADRIAN OCTAVIO        000000018150000000000000000000000000000000000000000000000000000000000000000000000000000000000000000000000000000000000000PES00010000001000000000315000000000000000000000000000000                              000000000000000  
202309290010000200000000000000000129                8000000000030717194884VACAS PUBLICIDAD S.A.S.       000000252948424000000000000000000000000000000000000000000000000000000000000000000000000000000000000000000000000000000000PES00010000001000000002403582300000000000000000000000000                              000000000000000  
202309290010000200000000000000000366                8000000000030716344858TURM S.R.L.                   000000092479937000000000000000000000000000000000000000000000000000000000000000000000000000000000000000000000000000000000PES00010000001000000001605023700000000000000000000000000                              000000000000000  
202309290010000200000000000000000367                8000000000030716344858TURM S.R.L.                   000000031644767000000000000000000000000000000000000000000000000000000000000000000000000000000000000000000000000000000000PES00010000001000000000549206700000000000000000000000000                              000000000000000  
202309290010000200000000000000000368                8000000000030716344858TURM S.R.L.                   000000066574200000000000000000000000000000000000000000000000000000000000000000000000000000000000000000000000000000000000PES00010000001000000001155420000000000000000000000000000                              000000000000000  
202309290010000200000000000000000369                8000000000030716344858TURM S.R.L.                   000000014520000000000000000000000000000000000000000000000000000000000000000000000000000000000000000000000000000000000000PES00010000001000000000252000000000000000000000000000000                              000000000000000  
202309290010000200000000000000000763                8000000000030711548455INTERLOCK SA                  000000020570000000000000000000000000000000000000000000000000000000000000000000000000000000000000000000000000000000000000PES00010000001000000000357000000000000000000000000000000                              000000000000000  
202309290010000200000000000000002098                8000000000020045230911GARCIA ROBERTO ANGEL          000000027958986000000000000000000000000000000000000000000000000000000000000000000000000000000000000000000000000000000000PES00010000001000000000485238600000000000000000000000000                              000000000000000  
202309290010000200000000000000002101                8000000000020244247572GUARINO JULIAN                000000049840142000000000000000000000000000000000000000000000000000000000000000000000000000000000000000000000000000000000PES00010000001000000000864994200000000000000000000000000                              000000000000000  
202309290010000300000000000000000144                8000000000030714533793PIER MEDIA S.R.L.             000000011495000000000000000000000000000000000000000000000000000000000000000000000000000000000000000000000000000000000000PES00010000001000000000199500000000000000000000000000000                              000000000000000  
202309290010000300000000000000000145                8000000000030714533793PIER MEDIA S.R.L.             000000132634150000000000000000000000000000000000000000000000000000000000000000000000000000000000000000000000000000000000PES00010000001000000002301915000000000000000000000000000                              000000000000000  
202309290010000300000000000000000146                8000000000030714533793PIER MEDIA S.R.L.             000000058213100000000000000000000000000000000000000000000000000000000000000000000000000000000000000000000000000000000000PES00010000001000000001010310000000000000000000000000000                              000000000000000  
202309290010000300000000000000000147                8000000000030714533793PIER MEDIA S.R.L.             000000156888600000000000000000000000000000000000000000000000000000000000000000000000000000000000000000000000000000000000PES00010000001000000002722860000000000000000000000000000                              000000000000000  
202309290010000300000000000000000570                8000000000020133822659RIGOLI CLAUDIO OMAR ENRIQUE   000000017563392000000000000000000000000000000000000000000000000000000000000000000000000000000000000000000000000000000000PES00010000001000000000304819200000000000000000000000000                              000000000000000  
202309290010000300000000000000005138                8000000000030709388114DAK GRUPO CREATIVO S.R.L      000000006050000000000000000000000000000000000000000000000000000000000000000000000000000000000000000000000000000000000000PES00010000001000000000105000000000000000000000000000000                              000000000000000  
202309290030000400000000000000000749                8000000000030712389512CADENAZZI PUBLICIDAD DE CADENA000000594533621000000000000000000000000000000000000000000000000000000000000000000000000000000000000000000000000000000000PES00010000001000000010318352100000000000000000000000000                              000000000000000  
202309290010000400000000000000001337                8000000000030712389512CADENAZZI PUBLICIDAD DE CADENA000000023038400000000000000000000000000000000000000000000000000000000000000000000000000000000000000000000000000000000000PES00010000001000000000399840000000000000000000000000000                              000000000000000  
202309290010000400000000000000001338                8000000000030712389512CADENAZZI PUBLICIDAD DE CADENA000000023038400000000000000000000000000000000000000000000000000000000000000000000000000000000000000000000000000000000000PES00010000001000000000399840000000000000000000000000000                              000000000000000  
202309290010000400000000000000001339                8000000000030712389512CADENAZZI PUBLICIDAD DE CADENA000000182841890000000000000000000000000000000000000000000000000000000000000000000000000000000000000000000000000000000000PES00010000001000000003173289000000000000000000000000000                              000000000000000  
202309290010000400000000000000001340                8000000000030712389512CADENAZZI PUBLICIDAD DE CADENA000000051667000000000000000000000000000000000000000000000000000000000000000000000000000000000000000000000000000000000000PES00010000001000000000896700000000000000000000000000000                              000000000000000  
202309290010000400000000000000001341                8000000000030712389512CADENAZZI PUBLICIDAD DE CADENA000001044874688000000000000000000000000000000000000000000000000000000000000000000000000000000000000000000000000000000000PES00010000001000000018134188800000000000000000000000000                              000000000000000  
202309290030000500000000000000000088                8000000000033708416679SAWGRASS S.R.L.               000000000188526000000000000000000000000000000000000000000000000000000000000000000000000000000000000000000000000000000000PES00010000001000000000003271900000000000000000000000000                              000000000000000  
202309290030000500000000000000000089                8000000000033708416679SAWGRASS S.R.L.               000000001195153000000000000000000000000000000000000000000000000000000000000000000000000000000000000000000000000000000000PES00010000001000000000020742300000000000000000000000000                              000000000000000  
202309290010000500000000000000000312                8000000000033708416679SAWGRASS S.R.L.               000000003770548000000000000000000000000000000000000000000000000000000000000000000000000000000000000000000000000000000000PES00010000001000000000065439300000000000000000000000000                              000000000000000  
202309290010000500000000000000000313                8000000000033708416679SAWGRASS S.R.L.               000000023903071000000000000000000000000000000000000000000000000000000000000000000000000000000000000000000000000000000000PES00010000001000000000414846700000000000000000000000000                              000000000000000  
202309290010000500000000000000001523                8000000000020116436648GOLDSTEIN SERGIO LUIS         000000006512220000000000000000000000000000000000000000000000000000000000000000000000000000000000000000000000000000000000PES00010000001000000000113022000000000000000000000000000                              000000000000000  
202309290010000500000000000000001524                8000000000020116436648GOLDSTEIN SERGIO LUIS         000000007163200000000000000000000000000000000000000000000000000000000000000000000000000000000000000000000000000000000000PES00010000001000000000124320000000000000000000000000000                              000000000000000  
202309290010000600000000000000001120                8000000000020147410507DUBOIS ALEJANDRO DANIEL       000000013937800000000000000000000000000000000000000000000000000000000000000000000000000000000000000000000000000000000000PES00010000001000000000241895700000000000000000000000000                              000000000000000  
202309290010000200000000000000000128                8000000000030717194884VACAS PUBLICIDAD S.A.S.       000000014165910000000000000000000000000000000000000000000000000000000000000000000000000000000000000000000000000000000000PES00010000001000000000034551000000000000000000000000000                              000000000000000  
202309290010000200000000000000000130                8000000000030717194884VACAS PUBLICIDAD S.A.S.       000000151925785000000000000000000000000000000000000000000000000000000000000000000000000000000000000000000000000000000000PES00010000001000000002636728500000000000000000000000000                              000000000000000  
202309290010000200000000000000000131                8000000000030717194884VACAS PUBLICIDAD S.A.S.       000000081433000000000000000000000000000000000000000000000000000000000000000000000000000000000000000000000000000000000000PES00010000001000000001413300000000000000000000000000000                              000000000000000  
202309290010000400000000000000001879                8000000000020234159977D AGOSTINO FERNANDO ARIEL     000000636107063000000000000000000000000000000000000000000000000000000000000000000000000000000000000000000000000000000000PES00010000001000000006044456300000000000000000000000000                              000000000000000  
202309290010000600000000000000001287                8000000000030587511726POLIMAX S R L                 000000010238768000000000000000000000000000000000000000000000000000000000000000000000000000000000000000000000000000000000PES00010000001000000000177697600000000000000000000000000                              000000000000000  
202309290110000200000000000000000331                8000000000020141421779MC GAW RICARDO MARCOS         000000002000000000000000000000000000000000000000000000000000000000000000000000000000000000000000000000000000000000000000PES00010000000000000000000000000000000000000000000000000                              000000000000000  
202309290110000300000000000000000036                8000000000020076020656AROZENA JUAN CARLOS           000000017457100000000000000000000000000000000000000000000000000000000000000000000000000000000000000000000000000000000000PES00010000000000000000000000000000000000000000000000000                              000000000000000  
202309290110000300000000000000000037                8000000000020076020656AROZENA JUAN CARLOS           000000000266900000000000000000000000000000000000000000000000000000000000000000000000000000000000000000000000000000000000PES00010000000000000000000000000000000000000000000000000                              000000000000000  
202309300010000100000000000000000064                8000000000030716477823MARKETING Y NEGOCIOS SRL      000000008445800000000000000000000000000000000000000000000000000000000000000000000000000000000000000000000000000000000000PES00010000001000000000146580000000000000000000000000000                              000000000000000  
202309300010000200000000000000001483                8000000000020160716917RATIBEL ANIBAL GABRIEL        000001859048719000000000000000000000000000000000000000000000000000000000000000000000000000000000000000000000000000000000PES00010000001000000032264481900000000000000000000000000                              000000000000000  
202309300010000200000000000000001484                8000000000020160716917RATIBEL ANIBAL GABRIEL        000000058508340000000000000000000000000000000000000000000000000000000000000000000000000000000000000000000000000000000000PES00010000001000000001015434000000000000000000000000000                              000000000000000  
202309300010000200000000000000001485                8000000000020160716917RATIBEL ANIBAL GABRIEL        000000108900000000000000000000000000000000000000000000000000000000000000000000000000000000000000000000000000000000000000PES00010000001000000001890000000000000000000000000000000                              000000000000000  
202309300010000200000000000000001563                8000000000030717604977ELEGI FRUTA S. R. L.          000000011583936000000000000000000000000000000000000000000000000000000000000000000000000000000000000000000000000000000000PES00010000001000000000110073600000000000000000000000000                              000000000000000  
202309300010000200000000000000001887                8000000000020203709898ECHEVARRIA GONZALO            000000103818000000000000000000000000000000000000000000000000000000000000000000000000000000000000000000000000000000000000PES00010000001000000001801800000000000000000000000000000                              000000000000000  
202309300010000200000000000000001888                8000000000020203709898ECHEVARRIA GONZALO            000000103818000000000000000000000000000000000000000000000000000000000000000000000000000000000000000000000000000000000000PES00010000001000000001801800000000000000000000000000000                              000000000000000  
202309300010000200000000000000002139                8000000000030698326537AHORA PUBLICIDAD SOC COL      000000014278000000000000000000000000000000000000000000000000000000000000000000000000000000000000000000000000000000000000PES00010000001000000000247800000000000000000000000000000                              000000000000000  
202309300010000200000000000000003233                8000000000030683013184COMUNICACION PUBLICITARIA S.R.000000009815520000000000000000000000000000000000000000000000000000000000000000000000000000000000000000000000000000000000PES00010000001000000000170352000000000000000000000000000                              000000000000000  
202309300010000200000000000000003234                8000000000030683013184COMUNICACION PUBLICITARIA S.R.000000019631040000000000000000000000000000000000000000000000000000000000000000000000000000000000000000000000000000000000PES00010000001000000000340704000000000000000000000000000                              000000000000000  
202309300010000200000000000000003521                8000000000030695578713JMS Y ASOCIADOS S.A.          000000028052640000000000000000000000000000000000000000000000000000000000000000000000000000000000000000000000000000000000PES00010000001000000000486864000000000000000000000000000                              000000000000000  
202309300010000300000000000000000148                8000000000030714533793PIER MEDIA S.R.L.             000000132634150000000000000000000000000000000000000000000000000000000000000000000000000000000000000000000000000000000000PES00010000001000000002301915000000000000000000000000000                              000000000000000  
202309300010000300000000000000000149                8000000000030714533793PIER MEDIA S.R.L.             000000058213100000000000000000000000000000000000000000000000000000000000000000000000000000000000000000000000000000000000PES00010000001000000001010310000000000000000000000000000                              000000000000000  
202309300010000300000000000000000150                8000000000030714533793PIER MEDIA S.R.L.             000000156888600000000000000000000000000000000000000000000000000000000000000000000000000000000000000000000000000000000000PES00010000001000000002722860000000000000000000000000000                              000000000000000  
202309300010000400000000000000000226                8000000000023313423069FERRENTINO ARIEL LEANDRO      000000007260000000000000000000000000000000000000000000000000000000000000000000000000000000000000000000000000000000000000PES00010000001000000000126000000000000000000000000000000                              000000000000000  
202309300010000100000000000000001243                8000000000030709897612MEDIOS Y PARTICIPACIONES SA   000000024200000000000000000000000000000000000000000000000000000000000000000000000000000000000000000000000000000000000000PES00010000001000000000420000000000000000000000000000000                              000000000000000  
202309300010000100000000000000092023                8000000000030500003193BBVA BANCO FRANCES S.A.       000000052463777000000000000000000000000000000000000001158235000000000000000000000001151035000000000000000000000000000000PES00010000001000000000870449400000000000000000000000000                              000000000000000  
202309300010001000000000000000003003                8000000000030709663603MADERO ESTE PARKING S.A.      000000034500000000000000000000000000000000000000000000000000000000000000000000000000000000000000000000000000000000000000PES00010000001000000000598760300000000000000000000000000                              000000000000000  
202309300010000300000000000000197796                8000000000030609178430AMERICA TV S.A.               000000024824800000000000000000000000000000000000000000000000000000000000000000000000600600000000000000000000000000000000PES00010000001000000000420420000000000000000000000000000                              000000000000000  
202309300010000300000000000000198220                8000000000030609178430AMERICA TV S.A.               000000057064800000000000000000000000000000000000000000000000000000000000000000000001380600000000000000000000000000000000PES00010000001000000000966420000000000000000000000000000                              000000000000000  
202309300030001600000000000000001376                8000000000030500090029EL CRONISTA COMERCIAL S.A.    000000044687500000000000000000000000000000000000000000000000000000000000000000000001430000000000000000000000000000000000PES00010000001000000000750750000000000000000000000000000                              000000000000000  
202309300010001600000000000000004735                8000000000030500090029EL CRONISTA COMERCIAL S.A.    000000044687500000000000000000000000000000000000000000000000000000000000000000000001430000000000000000000000000000000000PES00010000001000000000750750000000000000000000000000000                              000000000000000  
202309300010001600000000000000004787                8000000000030500090029EL CRONISTA COMERCIAL S.A.    000000044330000000000000000000000000000000000000000000000000000000000000000000000001072500000000000000000000000000000000PES00010000001000000000750750000000000000000000000000000                              000000000000000  
202309300010010000000000000000004623                8000000000030707221565NEFIR S.A.                    000000029835000000000000000000000000000000000000000000000000000000000000000000000000000000000000000000000000000000000000PES00010000001000000000283500000000000000000000000000000                              000000000000000  
202309290630000100000000000000000003                8000000000020226540688ELTERMAN ADRIAN               000000336767200000000000000000000000000000000000000000000000000000000000000000000000000000000000000000000000000000000000PES00010000001000000005844720000000000000000030718033612ADRIAN MERCADO SUBASTAS S.A.  000000000000000  
202309290630000100000000000000000004                8000000000030633641966AGRO PATAGONICO SA            000000223920000000000000000000000000000000000000000000000000000000000000000000000000000000000000000000000000000000000000PES00010000002000000003192000000000000000000030718033612ADRIAN MERCADO SUBASTAS S.A.  000000000000000  
202309290630000100000000000000000005                8000000000020215084648YAZBEK JORGE ALBERTO          000002774095000000000000000000000000000000000000000000000000000000000000000000000000000000000000000000000000000000000000PES00010000002000000047659500000000000000000030718033612ADRIAN MERCADO SUBASTAS S.A.  000000000000000  
202309290630000100000000000000000007                8000000000030717208087MM WINES                      000003337145000000000000000000000000000000000000000000000000000000000000000000000000000000000000000000000000000000000000PES00010000002000000040414500000000000000000030718033612ADRIAN MERCADO SUBASTAS S.A.  000000000000000  
202309290630000100000000000000000008                8000000000020246281980PARNOFIELLO PABLO NI          000000690350000000000000000000000000000000000000000000000000000000000000000000000000000000000000000000000000000000000000PES00010000002000000007035000000000000000000030718033612ADRIAN MERCADO SUBASTAS S.A.  000000000000000  
202309290630000100000000000000000009                8000000000020246281980PARNOFIELLO PABLO NI          000002776540000000000000000000000000000000000000000000000000000000000000000000000000000000000000000000000000000000000000PES00010000002000000033054000000000000000000030718033612ADRIAN MERCADO SUBASTAS S.A.  000000000000000  
202309290630000100000000000000000010                8000000000030716590883ALFA METALES SRL              000000074660000000000000000000000000000000000000000000000000000000000000000000000000000000000000000000000000000000000000PES00010000002000000000966000000000000000000030718033612ADRIAN MERCADO SUBASTAS S.A.  000000000000000  
202309290630000100000000000000000011                8000000000020246281980PARNOFIELLO PABLO NI          000000126070000000000000000000000000000000000000000000000000000000000000000000000000000000000000000000000000000000000000PES00010000002000000001407000000000000000000030718033612ADRIAN MERCADO SUBASTAS S.A.  000000000000000  
202309290630000100000000000000000012                8000000000020246281980PARNOFIELLO PABLO NI          000000042350000000000000000000000000000000000000000000000000000000000000000000000000000000000000000000000000000000000000PES00010000001000000000735000000000000000000030718033612ADRIAN MERCADO SUBASTAS S.A.  000000000000000  
202309290630000100000000000000000013                8000000000020246281980PARNOFIELLO PABLO NI          000000229400000000000000000000000000000000000000000000000000000000000000000000000000000000000000000000000000000000000000PES00010000002000000002940000000000000000000030718033612ADRIAN MERCADO SUBASTAS S.A.  000000000000000  
202309290630000100000000000000000014                8000000000020222594910AVILES MARCELO DANIE          000000240780000000000000000000000000000000000000000000000000000000000000000000000000000000000000000000000000000000000000PES00010000002000000003528000000000000000000030718033612ADRIAN MERCADO SUBASTAS S.A.  000000000000000  
202309290630000100000000000000000015                8000000000030717240835MAD EQUIPOS Y SERVIC          000010387850000000000000000000000000000000000000000000000000000000000000000000000000000000000000000000000000000000000000PES00010000001000000180285000000000000000000030718033612ADRIAN MERCADO SUBASTAS S.A.  000000000000000  
