202312010010000100000000000000000654                8000000000020348359550MORAS IGNACIO                 000000066550000000000000000000000000000000000000000000000000000000000000000000000000000000000000000000000000000000000000PES00010000001000000001155000000000000000000000000000000                              000000000000000  
202312010010000200000000000000000009                8000000000020120117727PARRA DIEGO MIGUEL            000000003630000000000000000000000000000000000000000000000000000000000000000000000000000000000000000000000000000000000000PES00010000001000000000063000000000000000000000000000000                              000000000000000  
202312010010000200000000000000000225                8000000000030716723735MAN DAR SERVICIOS S.A.S       000000023885400000000000000000000000000000000000000000000000000000000000000000000000000000000000000000000000000000000000PES00010000001000000000414540000000000000000000000000000                              000000000000000  
202312010010000200000000000000000399                8000000000030716344858TURM S.R.L.                   000000164194701000000000000000000000000000000000000000000000000000000000000000000000000000000000000000000000000000000000PES00010000001000000002849660100000000000000000000000000                              000000000000000  
202312010010000200000000000000000400                8000000000030716344858TURM S.R.L.                   000000041612868000000000000000000000000000000000000000000000000000000000000000000000000000000000000000000000000000000000PES00010000001000000000722206800000000000000000000000000                              000000000000000  
202312010010000200000000000000000401                8000000000030716344858TURM S.R.L.                   000000068334750000000000000000000000000000000000000000000000000000000000000000000000000000000000000000000000000000000000PES00010000001000000001185975000000000000000000000000000                              000000000000000  
202312010010000200000000000000001813                8000000000033716413719CLEANX S.A.                   000000230530554000000000000000000000000000000000000000000000000000000000000000000000000000000000000000000000000000000000PES00010000001000000004000943500000000000000000000000000                              000000000000000  
202312010010000200000000000000002695                8000000000033709770719C Y M PUBLICIDAD S.R.L.       000000019611801000000000000000000000000000000000000000000000000000000000000000000000000000000000000000000000000000000000PES00010000001000000000340370100000000000000000000000000                              000000000000000  
202312010010000200000000000000005094                8000000000027055716744SOBREIRA MARIA                000000005970901000000000000000000000001493901000000000000000000000000000000000000000000000000000000000000000000000000000PES00010000001000000000077700000000000000000000000000000                              000000000000000  
202312010010000300000000000000000226                8000000000030714533793PIER MEDIA S.R.L.             000000011495000000000000000000000000000000000000000000000000000000000000000000000000000000000000000000000000000000000000PES00010000001000000000199500000000000000000000000000000                              000000000000000  
202312010010000400000000000000001469                8000000000033628540239L D INGENIERIA S R L          000000010039975000000000000000000000000000000000000000000000000000000000000000000000000000000000000000000000000000000000PES00010000001000000000174247500000000000000000000000000                              000000000000000  
202312010010000500000000000000000005                8000000000027289625564GEROMINI ALDANA LAURA         000000108416000000000000000000000000000000000000000000000000000000000000000000000000000000000000000000000000000000000000PES00010000001000000001881600000000000000000000000000000                              000000000000000  
202312010010000200000000000000008315                8000000000030580183928EMPRESA DE SEGURIDAD INTEGRAL 000000126047621000000000000000000000000000000000000000000000000000000000000000000000000000000000000000000000000000000000PES00010000001000000002187603300000000000000000000000000                              000000000000000  
202312010010000300000000000000029532                8000000000033628152689VOCACION S.R.L.               000000014196000000000000000000000000000000000000000000000000000000000000000000000000000000000000000000000000000000000000PES00010000001000000000067600000000000000000000000000000                              000000000000000  
202312010010000300000000000000047309                8000000000033663419949EJES SA                       000000009861500000000000000000000000000000000000000000000000000000000000000000000000000000000000000000000000000000000000PES00010000001000000000171150000000000000000000000000000                              000000000000000  
202312010010000400000000000000010016                8000000000030715096419ASG S.A.                      000000010877900000000000000000000000000000000000000000000000000000000000000000000000000000000000000000000000000000000000PES00010000001000000000188790000000000000000000000000000                              000000000000000  
202312010010000400000000000000010018                8000000000030715096419ASG S.A.                      000000009317000000000000000000000000000000000000000000000000000000000000000000000000000000000000000000000000000000000000PES00010000001000000000161700000000000000000000000000000                              000000000000000  
202312010010000500000000000000002340                8000000000023291929109BERRETTA CARLOS MARIANO       000000070276800000000000000000000000000000000000000000000000000000000000000000000000000000000000000000000000000000000000PES00010000001000000001219680000000000000000000000000000                              000000000000000  
202312010010000500000000000000012734                8000000000030716271168ZHUO TECHNOLOGIES S.A.S.      000000006411589000000000000000000000000000000000000000000000000000000000000000000000000000000000000000000000000000000000PES00010000001000000000111275500000000000000000000000000                              000000000000000  
202312010010000500000000000000012972                8000000000030710635974GRUPO DAFING S.R.L            000000043343514000000000000000000000000000000000000000000000000000000000000000000001141955000000000000000000000001150420PES00010000002000000000413638000000000000000000000000000                              000000000000000  
202312010010000800000000000000001071                8000000000030697578990EMPRENDIMIENTOS INMOBILIARIOS 000000602256930000000000000000000000000000000000000000000000000000000000000000000000000000000000000000000000000000000000PES00010000001000000010452393000000000000000000000000000                              000000000000000  
202312010010001800000000000000272439                8000000000030696850972CPS COMUNICACIONES S.A.       000000023312000000000000000000000000000000000000000000000000000000000000000000000000564000000000000000000000000000000000PES00010000001000000000394800000000000000000000000000000                              000000000000000  
202312010010001800000000000000272440                8000000000030696850972CPS COMUNICACIONES S.A.       000000023312000000000000000000000000000000000000000000000000000000000000000000000000564000000000000000000000000000000000PES00010000001000000000394800000000000000000000000000000                              000000000000000  
202312010010018600000000000000009802                8000000000030644727463EMFACO S.A.                   000000001610228000000000000000000000000000000000000000000000000000000000000000000000000000000000000000000000000000091403PES00010000001000000000026359800000000000000000000000000                              000000000000000  
202312010110000200000000000000000784                8000000000030701272788AREOPAGO ASOC CIVIL           000000004000000000000000000000000000000000000000000000000000000000000000000000000000000000000000000000000000000000000000PES00010000000000000000000000000000000000000000000000000                              000000000000000  
202312010110000300000000000000000731                8000000000020320369585CAVALIERE ESTEBAN             000000003500000000000000000000000000000000000000000000000000000000000000000000000000000000000000000000000000000000000000PES00010000000000000000000000000000000000000000000000000                              000000000000000  
202312030010000300000000000000001980                8000000000020205357565ERICKSEN ARTURO               000000002860000000000000000000000000000000000000000000000000000000000000000000000000000000000000000000000000000000000000PES00010000001000000000049636400000000000000000000000000                              000000000000000  
202312030010000600000000000000074688                8000000000030711053669GADIK SRL                     000000014640000000000000000000000000000000004000000000000000000000000000000000000000000000000000000000000000000000000000PES00010000001000000000254082600000000000000000000000000                              000000000000000  
202312040010000100000000000000000597                8000000000030717164330PRIMETEC                      000000016665450000000000000000000000000000000000000000000000000000000000000000000000000000000000000000000000000000000000PES00010000001000000000289235000000000000000000000000000                              000000000000000  
202312010010000100000000000000001759                8000000000030715558331COLMAN'S S.R.L.               000000025410000000000000000000000000000000000000000000000000000000000000000000000000000000000000000000000000000000000000PES00010000001000000000441000000000000000000000000000000                              000000000000000  
202312010010000100000000000000001760                8000000000030715558331COLMAN'S S.R.L.               000000087120000000000000000000000000000000000000000000000000000000000000000000000000000000000000000000000000000000000000PES00010000001000000001512000000000000000000000000000000                              000000000000000  
202312040010000100000000000000002389                8000000000030715516620COBROS LOMAS S.A.             000000010456820000000000000000000000000000000000000000000000000000000000000000000000000000000000000000000000000000000000PES00010000001000000000181482000000000000000000000000000                              000000000000000  
202312040010000200000000000000000402                8000000000030716344858TURM S.R.L.                   000000139150000000000000000000000000000000000000000000000000000000000000000000000000000000000000000000000000000000000000PES00010000001000000002415000000000000000000000000000000                              000000000000000  
202312040010000200000000000000000464                8000000000030709517801P & M PRODUCCIONES S.R.L.     000000006655000000000000000000000000000000000000000000000000000000000000000000000000000000000000000000000000000000000000PES00010000001000000000115500000000000000000000000000000                              000000000000000  
202312040010000200000000000000001863                8000000000033716413719CLEANX S.A.                   000000007746929000000000000000000000000000000000000000000000000000000000000000000000000000000000000000000000000000000000PES00010000001000000000134450800000000000000000000000000                              000000000000000  
202312040010000200000000000000004842                8000000000033714698899FIDUCIARIA PARA EMPREND. DE NE000000016383037000000000000000000000000000000000000000000000000000000000000000000000000000000000000000000000000000000000PES00010000001000000000284333700000000000000000000000000                              000000000000000  
202312010010000300000000000000000449                8000000000020214845289SAYEGH JAVIER ALEJANDRO       000000015730000000000000000000000000000000000000000000000000000000000000000000000000000000000000000000000000000000000000PES00010000001000000000273000000000000000000000000000000                              000000000000000  
202312040010000300000000000000004929                8000000000030714560235COPO CURTO S.A.               000000035340049000000000000000000000000000000000000000000000000000000000000000000000000000000000000000000000000000000000PES00010000001000000000613339700000000000000000000000000                              000000000000000  
202312010010000500000000000000001582                8000000000020116436648GOLDSTEIN SERGIO LUIS         000000006512220000000000000000000000000000000000000000000000000000000000000000000000000000000000000000000000000000000000PES00010000001000000000113022000000000000000000000000000                              000000000000000  
202312010010000500000000000000001583                8000000000020116436648GOLDSTEIN SERGIO LUIS         000000007163200000000000000000000000000000000000000000000000000000000000000000000000000000000000000000000000000000000000PES00010000001000000000124320000000000000000000000000000                              000000000000000  
202312040010001300000000000000007990                8000000000030570052949ARISTON S A                   000000009850000000000000000000000000000000000000000000000000000000000000000000000000000000000000000000000000000000000000PES00010000001000000000170950400000000000000000000000000                              000000000000000  
202312040110000100000000000000000009                8000000000020163361168LAVIERO JUAN CARLOS           000000124891500000000000000000000000000000000000000000000000000000000000000000000000000000000000000000000000000000000000PES00010000000000000000000000000000000000000000000000000                              000000000000000  
202312040110000100000000000000000092                8000000000027363992817LAVIERO MARIA LUCIA           000000124891500000000000000000000000000000000000000000000000000000000000000000000000000000000000000000000000000000000000PES00010000000000000000000000000000000000000000000000000                              000000000000000  
202312040110000100000000000000000182                8000000000020438722476GRIMALDI THIAGO               000000004901000000000000000000000000000000000000000000000000000000000000000000000000000000000000000000000000000000000000PES00010000000000000000000000000000000000000000000000000                              000000000000000  
202312040110000200000000000000000353                8000000000020945446855BAHAMONDE ORTIZ JUAN CARLOS   000000006250000000000000000000000000000000000000000000000000000000000000000000000000000000000000000000000000000000000000PES00010000000000000000000000000000000000000000000000000                              000000000000000  
202312040110000200000000000000000834                8000000000030712155317CAMARA ARG. PROV. Y PREST. SER000000013650000000000000000000000000000000000000000000000000000000000000000000000000000000000000000000000000000000000000PES00010000000000000000000000000000000000000000000000000                              000000000000000  
202312050010000100000000000000000130                8000000000030717305244IRESCAR S.R.L                 000000149088598000000000000000000000000000000000000000000000000000000000000000000000000000000000000000000000000000000000PES00010000001000000002587488100000000000000000000000000                              000000000000000  
202312050010000100000000000000000131                8000000000030717305244IRESCAR S.R.L                 000000005289999000000000000000000000000000000000000000000000000000000000000000000000000000000000000000000000000000000000PES00010000001000000000091809900000000000000000000000000                              000000000000000  
202312040010000200000000000000000774                8000000000030711548455INTERLOCK SA                  000000020570000000000000000000000000000000000000000000000000000000000000000000000000000000000000000000000000000000000000PES00010000001000000000357000000000000000000000000000000                              000000000000000  
202312050010000200000000000000001875                8000000000030708916605METALURGICA LAGILLA S.R.L.    000000019965000000000000000000000000000000000000000000000000000000000000000000000000000000000000000000000000000000000000PES00010000001000000000346500000000000000000000000000000                              000000000000000  
202312050010000200000000000000009783                8000000000030708653078EMPRENDIMIENTOS CORPORATIVOS S000000030250000000000000000000000000000000000000000000000000000000000000000000000000000000000000000000000000000000000000PES00010000001000000000525000000000000000000000000000000                              000000000000000  
202312010010000300000000000000002243                8000000000033709470359L Y M PRODUCCIONES S.R.L.     000000062773953000000000000000000000000000000000000000000000000000000000000000000000000000000000000000000000000000000000PES00010000001000000001089465300000000000000000000000000                              000000000000000  
202312050030000500000000000000124826                8000000000030702652975NSS S.A.                      000000007205663000000000000000000000000000000000000000000000000000000000000000000000000000000000000000000000000000000000PES00010000001000000000125057000000000000000000000000000                              000000000000000  
202312050010000500000000000002911103                8000000000030702652975NSS S.A.                      000000000120091000000000000000000000000000000000000000000000000000000000000000000000000000000000000000000000000000000000PES00010000001000000000002553100000000000000000000000000                              000000000000000  
202312050010000500000000000002925384                8000000000030702652975NSS S.A.                      000000352331136000000000000000000000000000000000000000000000000000000000000000000008524242000000000000000000000000000000PES00010000001000000005966896500000000000000000000000000                              000000000000000  
202312050010000300000000000000017805                8000000000030711372993GRUPO ARGOS BAHIA SOCIEDAD ANO000000005850000000000000000000000000000000000000000000000000000000000000000000000000000000000000000000000000000000000000PES00010000001000000000101528900000000000000000000000000                              000000000000000  
202312050010000500000000000000006899                8000000000030715169254TODO COPIA S.A.               000000000119000000000000000000000000000000000000000000000000000000000000000000000000000000000000000000000000000000000000PES00010000001000000000002065300000000000000000000000000                              000000000000000  
202312050030000800000000000000000114                8000000000030697578990EMPRENDIMIENTOS INMOBILIARIOS 000000008867603000000000000000000000000000000000000000000000000000000000000000000000000000000000000000000000000000000000PES00010000001000000000000000000000000000000000000000000                              000000000000000  
202312050010001100000000000000003143                8000000000030710512295AUTENTICAS CARNES ARGENTINAS S000000004860000000000000000000000000000000000000000000000000000000000000000000000000000000000000000000000000000000000000PES00010000001000000000084347100000000000000000000000000                              000000000000000  
202312050010000200000000000000000400                8000000000030709250228EN EL BLANCO PRODUCCIONES S.A.000000006050000000000000000000000000000000000000000000000000000000000000000000000000000000000000000000000000000000000000PES00010000001000000000105000000000000000000000000000000                              000000000000000  
202312060010000200000000000000002737                8000000000020171212384TOURNOUR ADRIAN               000000024200000000000000000000000000000000000000000000000000000000000000000000000000000000000000000000000000000000000000PES00010000001000000000420000000000000000000000000000000                              000000000000000  
202312060010000200000000000000003235                8000000000027304886361FERNANDEZ PAOLA VANESA        000000001890000000000000000000000000000000000000000000000000000000000000000000000000000000000000000000000000000000000000PES00010000001000000000000000000000000000000000000000000                              000000000000000  
202312060010000300000000000000000022                8000000000020043775678DAGNINO JUAN CARLOS           000000039249617000000000000000000000000000000000000000000000000000000000000000000000000000000000000000000000000000000000PES00010000001000000000681191700000000000000000000000000                              000000000000000  
202312040010001200000000000000002143                8000000000030708421983GRANADOS HNOS. S.R.L.         000000001660000000000000000000000000000000000000000000000000000000000000000000000000000000000000000000000000000000000000PES00010000001000000000028809900000000000000000000000000                              000000000000000  
202312060010001600000000000000002764                8000000000030680759894QUETAL S.A.                   000000000130000000000000000000000000000000000000000000000000000000000000000000000000000000000000000000000000000000000000PES00010000001000000000002256200000000000000000000000000                              000000000000000  
202312060010000300000000000000004164                8000000000030714369500ARGENTINOS MEDIA SA           000000037752000000000000000000000000000000000000000000000000000000000000000000000000000000000000000000000000000000000000PES00010000001000000000655200000000000000000000000000000                              000000000000000  
202312060010000300000000000000017827                8000000000030711372993GRUPO ARGOS BAHIA SOCIEDAD ANO000000001908001000000000000000000000000000000000000000000000000000000000000000000000000000000000000000000000000000000000PES00010000001000000000033114100000000000000000000000000                              000000000000000  
202312060010003500000000000000027100                8000000000033608724279NAFPUR S.A.                   000000000414001000000000000000000000000000000000000000000000000000000000000000000000000000000000000000000000000000024342PES00010000001000000000006762700000000000000000000000000                              000000000000000  
202312060010001100000000000000014849                8000000000033708543239MATISA S.A.                   000000001055251000000000000000000000000000000000000000000000000000000000000000000000000000000000000000000000000000000000PES00010000001000000000018314300000000000000000000000000                              000000000000000  
202312060010001100000000000000014854                8000000000033708543239MATISA S.A.                   000000000635020000000000000000000000000000000000000000000000000000000000000000000000000000000000000000000000000000000000PES00010000001000000000011021000000000000000000000000000                              000000000000000  
202312050010008000000000000000000358                8000000000033714877769FGC FUELS MARKETING SA        000000001481901000000000000000000000000000000000000000000000000000000000000000000000091901000000000000000000000000000000PES00010000001000000000024124000000000000000000000000000                              000000000000000  
202312060010123600000000000000000126                8000000000030685849751DIA ARGENTINA S.A.            000000001695430000000000000000000000000000000000000000000000000000000000000000000000041019000000000000000000000000000000PES00010000001000000000028712900000000000000000000000000                              000000000000000  
202312060110000100000000000000000136                8000000000020200478453LOPREITE DARIO ESTEBAN        000000003250000000000000000000000000000000000000000000000000000000000000000000000000000000000000000000000000000000000000PES00010000000000000000000000000000000000000000000000000                              000000000000000  
202312060110000200000000000000000152                8000000000027261329102URIONA LUCIANA VANESA         000000008450000000000000000000000000000000000000000000000000000000000000000000000000000000000000000000000000000000000000PES00010000000000000000000000000000000000000000000000000                              000000000000000  
202312070030000100000000000000000006                8000000000027924914195GUALTER LOO SIU YIE CRISTINA  000000003327500000000000000000000000000000000000000000000000000000000000000000000000000000000000000000000000000000000000PES00010000001000000000057750000000000000000000000000000                              000000000000000  
202312070010000200000000000000000015                8000000000020924627914COSTANZI MARCELO              000000008228000000000000000000000000000000000000000000000000000000000000000000000000000000000000000000000000000000000000PES00010000001000000000142800000000000000000000000000000                              000000000000000  
202312070010000200000000000000001880                8000000000030708916605METALURGICA LAGILLA S.R.L.    000000421267869000000000000000000000000000000000000000000000000000000000000000000000000000000000000000000000000000000000PES00010000001000000007311260500000000000000000000000000                              000000000000000  
202312070010001000000000000000000012                8000000000023182981559DEL SAVIO ARIEL SILVIO        000000001125000000000000000000000000000000000000000000000000000000000000000000000000000000000000000000000000000000000000PES00010000001000000000019524800000000000000000000000000                              000000000000000  
202312070010001300000000000000008044                8000000000030570052949ARISTON S A                   000000001160000000000000000000000000000000000000000000000000000000000000000000000000000000000000000000000000000000000000PES00010000001000000000020132300000000000000000000000000                              000000000000000  
202312070010541500000000000000000052                8000000000030610252334ARCOS DORADOS ARGENTINA S.A.  000000001900000000000000000000000000000000000000000000000000000000000000000000000000000000000000000000000000000000000000PES00010000001000000000032975200000000000000000000000000                              000000000000000  
202312080010000300000000000000000584                8000000000020133822659RIGOLI CLAUDIO OMAR ENRIQUE   000000017563392000000000000000000000000000000000000000000000000000000000000000000000000000000000000000000000000000000000PES00010000001000000000304819200000000000000000000000000                              000000000000000  
202312080010000700000000000000000739                8000000000027250116026HERRERA ANDREA TAMARA         000000000850002000000000000000000000000000000000000000000000000000000000000000000000000000000000000000000000000000000000PES00010000001000000000014752100000000000000000000000000                              000000000000000  
202312080010001100000000000000003146                8000000000030710512295AUTENTICAS CARNES ARGENTINAS S000000003919998000000000000000000000000000000000000000000000000000000000000000000000000000000000000000000000000000000000PES00010000001000000000068033000000000000000000000000000                              000000000000000  
202312110010001200000000000000000217                8000000000030715213709FUTUROCK PRODUCCIONES SRL     000000021780000000000000000000000000000000000000000000000000000000000000000000000000000000000000000000000000000000000000PES00010000001000000000378000000000000000000000000000000                              000000000000000  
202312110010001500000000000000018025                8000000000030715068733COMBUSTIBLES CANNING SA       000000002000012000000000000000000000000000000000000000000000000000000000000000000000000000000000000000000000000000070759PES00010000001000000000033482900000000000000000000000000                              000000000000000  
202312110010000300000000000000029705                8000000000033628152689VOCACION S.R.L.               000000018218075000000000000000000000000000000000000000000000000000000000000000000000000000000000000000000000000000000000PES00010000001000000000316181500000000000000000000000000                              000000000000000  
202312110010018600000000000000009937                8000000000030644727463EMFACO S.A.                   000000002010140000000000000000000000000000000000000000000000000000000000000000000000000000000000000000000000000000097583PES00010000001000000000033193100000000000000000000000000                              000000000000000  
202312110110000200000000000000000037                8000000000027323120434FERNANDEZ NATALI ELVIRA       000000001000000000000000000000000000000000000000000000000000000000000000000000000000000000000000000000000000000000000000PES00010000000000000000000000000000000000000000000000000                              000000000000000  
202312070030000100000000000000000005                8000000000027924914195GUALTER LOO SIU YIE CRISTINA  000000003206500000000000000000000000000000000000000000000000000000000000000000000000000000000000000000000000000000000000PES00010000001000000000055650000000000000000000000000000                              000000000000000  
202312070010000100000000000000000061                8000000000027924914195GUALTER LOO SIU YIE CRISTINA  000000026620000000000000000000000000000000000000000000000000000000000000000000000000000000000000000000000000000000000000PES00010000001000000000462000000000000000000000000000000                              000000000000000  
202312070010000100000000000000000062                8000000000027924914195GUALTER LOO SIU YIE CRISTINA  000000040237505000000000000000000000000000000000000000000000000000000000000000000000000000000000000000000000000000000000PES00010000001000000000698336900000000000000000000000000                              000000000000000  
202312120010000200000000000000000010                8000000000020120117727PARRA DIEGO MIGUEL            000000010924848000000000000000000000000000000000000000000000000000000000000000000000000000000000000000000000000000000000PES00010000001000000000189604800000000000000000000000000                              000000000000000  
202312070010000200000000000000000014                8000000000020924627914COSTANZI MARCELO              000000185130000000000000000000000000000000000000000000000000000000000000000000000000000000000000000000000000000000000000PES00010000001000000003213000000000000000000000000000000                              000000000000000  
202312120010000200000000000000000212                8000000000030716358689EL BAMBU ESPACIOS VERDES      000000028370870000000000000000000000000000000000000000000000000000000000000000000000000000000000000000000000000000000000PES00010000001000000000492387000000000000000000000000000                              000000000000000  
202312120010000200000000000000000213                8000000000030716358689EL BAMBU ESPACIOS VERDES      000000005916900000000000000000000000000000000000000000000000000000000000000000000000000000000000000000000000000000000000PES00010000001000000000102690000000000000000000000000000                              000000000000000  
202312120010000300000000000000001150                8000000000023239928749FERNANDEZ MUGICA JUAN IGNACIO 000000009831250000000000000000000000000000000000000000000000000000000000000000000000000000000000000000000000000000000000PES00010000001000000000170625000000000000000000000000000                              000000000000000  
202312120010000400000000000000002304                8000000000030717294374OFIPAPER                      000000000600000000000000000000000000000000000000000000000000000000000000000000000000000000000000000000000000000000000000PES00010000001000000000010413200000000000000000000000000                              000000000000000  
202312120010000400000000000000010903                8000000000033711386179SHOPNOW S.R.L                 000000002929700000000000000000000000000000000000000000000000000000000000000000000000000000000000000000000000000000000000PES00010000001000000000027838800000000000000000000000000                              000000000000000  
202312120010000500000000000000012995                8000000000030710635974GRUPO DAFING S.R.L            000000068905207000000000000000000000000795559000000000000000000000000000000000000001813149000000000000000000000001232260PES00010000002000000000665376100000000000000000000000000                              000000000000000  
202312120010000600000000000000003578                8000000000030565247871JACOBO LUDMAN E HIJOS S A C A 000000007100000000000000000000000000000000010000000000000000000000000000000000000000000000000000000000000000000000000000PES00010000001000000000123223000000000000000000000000000                              000000000000000  
202312120010020600000000000000000672                8000000000030550059998DULMES S.A.                   000000000840000000000000000000000000000000000000000000000000000000000000000000000000000000000000000000000000000000000000PES00010000001000000000014578500000000000000000000000000                              000000000000000  
202312120010229600000000000000001564                8000000000030692138747FARMCITY S.A.                 000000002410458000000000000000000000000000000000000000031527000000000000000000000000000000000000000000000000000000000000PES00010000001000000000023477900000000000000000000000000                              000000000000000  
202312010010000600000000000000034751                8000000000030710428642DISMASER SA                   000000049001370000000000000000000000000000000000000000000000000000000000000000000000000000000000000000000000000000000000PES00010000001000000000850437000000000000000000000000000                              000000000000000  
202312120010001600000000000000005198                8000000000030500090029EL CRONISTA COMERCIAL S.A.    000000099200000000000000000000000000000000000000000000000000000000000000000000000002400000000000000000000000000000000000PES00010000001000000001680000000000000000000000000000000                              000000000000000  
202312130010003500000000000000823618                8000000000033692148229OFFICENET S.A.                000000034251686000000000000000000000000000000000000000000000000000000000000000000000828670000000000000000000000000000000PES00010000001000000000580068900000000000000000000000000                              000000000000000  
202312130010228300000000000000001013                8000000000030692138747FARMCITY S.A.                 000000000575790000000000000000000000000000000000000000007967000000000000000000000000000000000000000000000000000000000000PES00010000001000000000005855100000000000000000000000000                              000000000000000  
202312010110000200000000000000000027                8000000000027326086121RIPOLL MARIANA BELEN          000000021840000000000000000000000000000000000000000000000000000000000000000000000000000000000000000000000000000000000000PES00010000000000000000000000000000000000000000000000000                              000000000000000  
202312040110000200000000000000000413                8000000000020269982536SUAREZ RUBEN DAMIAN           000000004500000000000000000000000000000000000000000000000000000000000000000000000000000000000000000000000000000000000000PES00010000000000000000000000000000000000000000000000000                              000000000000000  
202312140010000100000000000000000067                8000000000030716477823MARKETING Y NEGOCIOS SRL      000000008445800000000000000000000000000000000000000000000000000000000000000000000000000000000000000000000000000000000000PES00010000001000000000146580000000000000000000000000000                              000000000000000  
202312140010000200000000000000001882                8000000000030708916605METALURGICA LAGILLA S.R.L.    000000242129213000000000000000000000000000000000000000000000000000000000000000000000000000000000000000000000000000000000PES00010000001000000004202242500000000000000000000000000                              000000000000000  
202312140010001600000000000000023631                8000000000030715068733COMBUSTIBLES CANNING SA       000000002700032000000000000000000000000000000000000000000000000000000000000000000000000000000000000000000000000000095526PES00010000001000000000045202200000000000000000000000000                              000000000000000  
202312050010000200000000000000014201                8000000000030710434863QUART PRODUCCIONES S.R.L.     000000033880000000000000000000000000000000000000000000000000000000000000000000000000000000000000000000000000000000000000PES00010000001000000000588000000000000000000000000000000                              000000000000000  
202312040010000200000000000000018726                8000000000033677679609SILMAR PRODUCCIONES S.R.L.    000000039930000000000000000000000000000000000000000000000000000000000000000000000000000000000000000000000000000000000000PES00010000001000000000693000000000000000000000000000000                              000000000000000  
202312150010001300000000000000007838                8000000000033644153679ATLAS CITY S.A.               000000000160001000000000000000000000000000000000000000000000000000000000000000000000000000000000000000000000000000000000PES00010000001000000000002776900000000000000000000000000                              000000000000000  
202312150010007600000000000000007560                8000000000030677093427EL LAB TALLER DE IDIOMAS SRL  000000013926630000000000000000000000000000000000000000000000000000000000000000000000405630000000000000000000000000000000PES00010000001000000000000000000000000000000000000000000                              000000000000000  
202312150110000300000000000000000053                8000000000027319655501TIZON CARLA DANIELA           000000002000000000000000000000000000000000000000000000000000000000000000000000000000000000000000000000000000000000000000PES00010000000000000000000000000000000000000000000000000                              000000000000000  
202312150110008000000000000000100025                8000000000030525562782IRAM INSTITUTO ARGENTINO DE NO000000061800000000000000000000000000000000000000000000000000000000000000000000000001800000000000000000000000000000000000PES00010000000000000000000000000000000000000000000000000                              000000000000000  
202312160010001500000000000000018248                8000000000030715068733COMBUSTIBLES CANNING SA       000000001000000000000000000000000000000000000000000000000000000000000000000000000000000000000000000000000000000000025795PES00010000001000000000016907700000000000000000000000000                              000000000000000  
202312160010001600000000000000023720                8000000000030715068733COMBUSTIBLES CANNING SA       000000001620230000000000000000000000000000000000000000000000000000000000000000000000000000000000000000000000000000041793PES00010000001000000000027394400000000000000000000000000                              000000000000000  
202312160010002000000000000000000628                8000000000030715068733COMBUSTIBLES CANNING SA       000000000495000000000000000000000000000000000000000000000000000000000000000000000000000000000000000000000000000000000000PES00010000001000000000008590900000000000000000000000000                              000000000000000  
202312180010000400000000000000000291                8000000000030717067726PARADOR CANNING S.R.L         000000000370000000000000000000000000000000000000000000000000000000000000000000000000000000000000000000000000000000000000PES00010000001000000000006421500000000000000000000000000                              000000000000000  
202312180010000500000000000002911102                8000000000030702652975NSS S.A.                      000000268646689000000000000000000000000000000000000000000000000000000000000000000006490107000000000000000000000000000000PES00010000002000000004581968100000000000000000000000000                              000000000000000  
202312180010000200000000000000008329                8000000000030580183928EMPRESA DE SEGURIDAD INTEGRAL 000000141576788000000000000000000000000000000000000000000000000000000000000000000000000000000000000000000000000000000000PES00010000001000000002457117800000000000000000000000000                              000000000000000  
202312180010001000000000000000328664                8000000000030652010489NATIONAL SERVICE ARGENTINA S.A000000027029560000000000000000000000000000000000000000000000000000000000000000000000653941000000000000000000000000000000PES00010000001000000000457758700000000000000000000000000                              000000000000000  
202312180010003700000000000000002218                8000000000030521837000SORENSEN S.R.L.               000000000900000000000000000000000000000000000000000000000000000000000000000000000000000000000000000000000000000000000000PES00010000001000000000015619800000000000000000000000000                              000000000000000  
202312180110000100000000000000000093                8000000000027363992817LAVIERO MARIA LUCIA           000000015000000000000000000000000000000000000000000000000000000000000000000000000000000000000000000000000000000000000000PES00010000000000000000000000000000000000000000000000000                              000000000000000  
202312150010000100000000000000000063                8000000000027924914195GUALTER LOO SIU YIE CRISTINA  000000004658500000000000000000000000000000000000000000000000000000000000000000000000000000000000000000000000000000000000PES00010000001000000000080850000000000000000000000000000                              000000000000000  
202312190010000200000000000000001442                8000000000030711058822MP WORKPLACES SA              000000045345960000000000000000000000000000000000000000000000000000000000000000000000000000000000000000000000000000000000PES00010000001000000000786996000000000000000000000000000                              000000000000000  
202312190010000200000000000000044168                8000000000030716913437SAN MONTE GAS SA              000000002920192000000000000000000000000000000000000000000000000000000000000000000000000000000000000000000000000000107989PES00010000001000000000048806800000000000000000000000000                              000000000000000  
202312190010000400000000000000000150                8000000000030715365363UNIVERSO GASTRONOMICO SA      000000001840000000000000000000000000000000000000000000000000000000000000000000000000000000000000000000000000000000000000PES00010000001000000000031933900000000000000000000000000                              000000000000000  
202312190010000400000000000000001686                8000000000020206866986ACOSTA DIEGO                  000000000780000000000000000000000000000000000000000000000000000000000000000000000000000000000000000000000000000000000000PES00010000001000000000000000000000000000000000000000000                              000000000000000  
202312190010000500000000000000000010                8000000000027289625564GEROMINI ALDANA LAURA         000000039930000000000000000000000000000000000000000000000000000000000000000000000000000000000000000000000000000000000000PES00010000001000000000693000000000000000000000000000000                              000000000000000  
202312190010000500000000000000012106                8000000000030714190373DIELIAN S.R.L.                000000005175001000000000000000000000000000000000000000000000000000000000000000000000000000000000000000000000000000000000PES00010000001000000000089814100000000000000000000000000                              000000000000000  
202312140010001600000000000000002786                8000000000030680759894QUETAL S.A.                   000000002930001000000000000000000000000000000000000000000000000000000000000000000000000000000000000000000000000000000000PES00010000001000000000050851200000000000000000000000000                              000000000000000  
202312190010000200000000000000000881                8000000000030717612791NOBLE CAMPO SAS               000000004480000000000000000000000000000000000000000000000000000000000000000000000000000000000000000000000000000000000000PES00010000001000000000077752100000000000000000000000000                              000000000000000  
202312190010170800000000000000000518                8000000000030707921206ANDREA DANIELA VEGA S.R.L.    000000001120231000000000000000000000000000000000000000000000000000000000000000000000000000000000000000000000000000000000PES00010000001000000000015375100000000000000000000000000                              000000000000000  
202312200010000300000000000000000552                8000000000030712286780ESCUELA ARGENTINA DE FINANZAS 000000014723280000000000000000000000000000000000000000000000000000000000000000000000000000000000000000000000000000000000PES00010000001000000000255528000000000000000000000000000                              000000000000000  
202312200010000500000000000000012134                8000000000030714190373DIELIAN S.R.L.                000000007450000000000000000000000000000000000000000000000000000000000000000000000000000000000000000000000000000000000000PES00010000001000000000129297500000000000000000000000000                              000000000000000  
202312200030000500000000000000125814                8000000000030702652975NSS S.A.                      000000000002327000000000000000000000000000000000000000000000000000000000000000000000000000000000000000000000000000000000PES00010000001000000000000040400000000000000000000000000                              000000000000000  
202312200010001500000000000000018425                8000000000030715068733COMBUSTIBLES CANNING SA       000000002400338000000000000000000000000000000000000000000000000000000000000000000000000000000000000000000000000000061916PES00010000001000000000040584200000000000000000000000000                              000000000000000  
202312190010001600000000000000000544                8000000000023289855394VILARNOVO VALERIA ANDREA      000000007018000000000000000000000000000000000000000000000000000000000000000000000000000000000000000000000000000000000000PES00010000001000000000121800000000000000000000000000000                              000000000000000  
202312200010000300000000000000000288                8000000000030717058603UWEMEN GROUP S.A.S. S. A. S.  000000004666000000000000000000000000000000000000000000000000000000000000000000000000000000000000000000000000000000000000PES00010000001000000000080980200000000000000000000000000                              000000000000000  
202312200010003100000000000000005799                8000000000030708859954GROSCAN S.R.L.                000000002727998000000000000000000000000000000000000000000000000000000000000000000000000000000000000000000000000000000000PES00010000001000000000047345400000000000000000000000000                              000000000000000  
202312200010001200000000000000000657                8000000000033708543239MATISA S.A.                   000000001456000000000000000000000000000000000000000000000000000000000000000000000000000000000000000000000000000000000000PES00010000001000000000025269400000000000000000000000000                              000000000000000  
202312200010001200000000000000000672                8000000000033708543239MATISA S.A.                   000000000450000000000000000000000000000000000000000000000000000000000000000000000000000000000000000000000000000000000000PES00010000001000000000007809900000000000000000000000000                              000000000000000  
202312200010007600000000000000242652                8000000000030546741253OSDE ORGANIZACION DE SERVICIOS000000016572951000000000000000000000000000000000000000000000000000000000000000000000438052000000000000000000000000000000PES00010000001000000000153318000000000000000000000000000                              000000000000000  
202312200010531800000000000000009809                8000000000030695542476PAN AMERICAN ENERGY, S.L      000000003378693000000000000000000000000000000000000000079393000000000000000000000000000000000000000000000000000000097108PES00010000001000000000055575200000000000000000000000000                              000000000000000  
202312210010000200000000000000000228                8000000000030716723735MAN DAR SERVICIOS S.A.S       000000001210000000000000000000000000000000000000000000000000000000000000000000000000000000000000000000000000000000000000PES00010000001000000000021000000000000000000000000000000                              000000000000000  
202312210010000200000000000000001892                8000000000030708916605METALURGICA LAGILLA S.R.L.    000000015572700000000000000000000000000000000000000000000000000000000000000000000000000000000000000000000000000000000000PES00010000001000000000270270000000000000000000000000000                              000000000000000  
202312210010000300000000000000001580                8000000000030714739693BS AS IMPORT SRL              000000216300000000000000000000000000000000000000000000000000000000000000000000000000000000000000000000000000000000000000PES00010000001000000002055339400000000000000000000000000                              000000000000000  
202312200010000500000000000000003561                8000000000033716473029GRUPO DB S.R.L                000000006000000000000000000000000000000000000000000000000000000000000000000000000000000000000000000000000000000000000000PES00010000001000000000104132200000000000000000000000000                              000000000000000  
202312210010000200000000000000002539                8000000000030715929364AUTODANTE S.A.                000000011009813000000000000000000000000000000000000000000000000000000000000000000000000000000000000000000000000000000000PES00010000001000000000191079400000000000000000000000000                              000000000000000  
202312210010000600000000000000003606                8000000000030565247871JACOBO LUDMAN E HIJOS S A C A 000000001775000000000000000000000000000000000000000000000000000000000000000000000000000000000000000000000000000000000000PES00010000001000000000030805800000000000000000000000000                              000000000000000  
202312210010003500000000000000824034                8000000000033692148229OFFICENET S.A.                000000034251686000000000000000000000000000000000000000000000000000000000000000000000828670000000000000000000000000000000PES00010000001000000000580068900000000000000000000000000                              000000000000000  
202312210110000100000000000000000057                8000000000020946060276CHEREY ANTONIO FEDERICO       000000010185980000000000000000000000000000000000000000000000000000000000000000000000000000000000000000000000000000000000PES00010000000000000000000000000000000000000000000000000                              000000000000000  
202312220010000300000000000000000023                8000000000020043775678DAGNINO JUAN CARLOS           000000047843400000000000000000000000000000000000000000000000000000000000000000000000000000000000000000000000000000000000PES00010000001000000000830340000000000000000000000000000                              000000000000000  
202312220010000300000000000000000024                8000000000020043775678DAGNINO JUAN CARLOS           000000002565079000000000000000000000000000000000000000000000000000000000000000000000000000000000000000000000000000000000PES00010000001000000000044517900000000000000000000000000                              000000000000000  
202312220010001200000000000000002221                8000000000030708421983GRANADOS HNOS. S.R.L.         000000001785000000000000000000000000000000000000000000000000000000000000000000000000000000000000000000000000000000000000PES00010000001000000000030979300000000000000000000000000                              000000000000000  
202312220010001200000000000000010284                8000000000030677909001RERIFE S.A.                   000000000600005000000000000000000000000000000000000000000000000000000000000000000000000000000000000000000000000000026411PES00010000001000000000009954900000000000000000000000000                              000000000000000  
202312220010000500000000000000013009                8000000000030710635974GRUPO DAFING S.R.L            000000049212491000000000000000000000000000000000000000000000000000000000000000000001299190000000000000000000000001909647PES00010000002000000000460698100000000000000000000000000                              000000000000000  
202312220010018600000000000000010141                8000000000030644727463EMFACO S.A.                   000000003037208000000000000000000000000000000000000000000000000000000000000000000000000000000000000000000000000000094098PES00010000001000000000051078800000000000000000000000000                              000000000000000  
202312230010001500000000000000018575                8000000000030715068733COMBUSTIBLES CANNING SA       000000002501089000000000000000000000000000000000000000000000000000000000000000000000000000000000000000000000000000064514PES00010000001000000000042287700000000000000000000000000                              000000000000000  
202312240010636400000000000008004844                8000000000030639453738TELECOM ARGENTINA S.A.        000000007315149000000000000000000000000000000000000000172566000000000000000000000000177808000000000000000000000000002156PES00010000002000000000121041900000000000000000000000000                              000000000000000  
202312250010000700000000000000000006                8000000000030710183437ADRIAN MERCADO GESTION INMOBIL000005278887660000000000000000000000000000000000000000000000000000000000000000000000000000000000000000000000000000000000PES00010000001000000091617058600000000000000000000000000                              000000000000000  
202312250010000700000000000000000007                8000000000030710183437ADRIAN MERCADO GESTION INMOBIL000007121954753000000000000000000000000000000000000000000000000000000000000000000000000000000000000000000000000000000000PES00010000001000000123604173400000000000000000000000000                              000000000000000  
202312260010000200000000000000002711                8000000000033709770719C Y M PUBLICIDAD S.R.L.       000000019611801000000000000000000000000000000000000000000000000000000000000000000000000000000000000000000000000000000000PES00010000001000000000340370100000000000000000000000000                              000000000000000  
202312220010000300000000000000004473                8000000000030708281251WILZE SOCIEDAD DE HECHO DE ZER000000010025000000000000000000000000000000000000000000000000000000000000000000000000000000000000000000000000000000000000PES00010000001000000000173987600000000000000000000000000                              000000000000000  
202312260010000700000000000000000008                8000000000030710183437ADRIAN MERCADO GESTION INMOBIL000005965128234000000000000000000000000000000000000000000000000000000000000000000000000000000000000000000000000000000000PES00010000001000000103527018900000000000000000000000000                              000000000000000  
202312260010000800000000000000000718                8000000000030714864382E. G. D. PANIFICADORA SRL     000000000751000000000000000000000000000000000000000000000000000000000000000000000000000000000000000000000000000000000000PES00010000001000000000013033900000000000000000000000000                              000000000000000  
202312260110000100000000000000000036                8000000000020404075552PIERSIGILLI LAUTARO ADRIAN    000000011166100000000000000000000000000000000000000000000000000000000000000000000000000000000000000000000000000000000000PES00010000000000000000000000000000000000000000000000000                              000000000000000  
202312260110000100000000000000000037                8000000000020404075552PIERSIGILLI LAUTARO ADRIAN    000000000525390000000000000000000000000000000000000000000000000000000000000000000000000000000000000000000000000000000000PES00010000000000000000000000000000000000000000000000000                              000000000000000  
202312260110000100000000000000000038                8000000000020404075552PIERSIGILLI LAUTARO ADRIAN    000000004243118000000000000000000000000000000000000000000000000000000000000000000000000000000000000000000000000000000000PES00010000000000000000000000000000000000000000000000000                              000000000000000  
202312260110000100000000000000000039                8000000000020404075552PIERSIGILLI LAUTARO ADRIAN    000000007704609000000000000000000000000000000000000000000000000000000000000000000000000000000000000000000000000000000000PES00010000000000000000000000000000000000000000000000000                              000000000000000  
202312260110000100000000000000000115                8000000000027406413735DI FABIO PRISCILA             000000006861571000000000000000000000000000000000000000000000000000000000000000000000000000000000000000000000000000000000PES00010000000000000000000000000000000000000000000000000                              000000000000000  
202312260110000100000000000000000116                8000000000027406413735DI FABIO PRISCILA             000000000814735000000000000000000000000000000000000000000000000000000000000000000000000000000000000000000000000000000000PES00010000000000000000000000000000000000000000000000000                              000000000000000  
202312260110000100000000000000000117                8000000000027406413735DI FABIO PRISCILA             000000013778836000000000000000000000000000000000000000000000000000000000000000000000000000000000000000000000000000000000PES00010000000000000000000000000000000000000000000000000                              000000000000000  
202312270010000200000000000000000231                8000000000030716723735MAN DAR SERVICIOS S.A.S       000000029040000000000000000000000000000000000000000000000000000000000000000000000000000000000000000000000000000000000000PES00010000001000000000504000000000000000000000000000000                              000000000000000  
202312270010000200000000000000002245                8000000000020244247572GUARINO JULIAN                000000049840142000000000000000000000000000000000000000000000000000000000000000000000000000000000000000000000000000000000PES00010000001000000000864994200000000000000000000000000                              000000000000000  
202312270010000200000000000000003642                8000000000030709192015COLORES AUSTRALES S.R.L.      000000040099400000000000000000000000000000000000000000000000000000000000000000000000000000000000000000000000000000000000PES00010000001000000000695940000000000000000000000000000                              000000000000000  
202312270010000300000000000000001582                8000000000030714739693BS AS IMPORT SRL              000000140000000000000000000000000000000000000000000000000000000000000000000000000000000000000000000000000000000000000000PES00010000001000000001330316700000000000000000000000000                              000000000000000  
202312270010000300000000000000005009                8000000000030688498615TELEFONIA DEL PLATA S.R.L.    000000002420000000000000000000000000000000000000000000000000000000000000000000000000000000000000000000000000000000000000PES00010000001000000000042000000000000000000000000000000                              000000000000000  
202312270010004300000000000000005645                8000000000030710283547GESTION DE EMPRENDIMIENTOS DEP000000028284311000000000000000000000000000000000000000000000000000000000000000000000684298000000000000000000000000000000PES00010000001000000000479008500000000000000000000000000                              000000000000000  
202312270010004700000000000000003137                8000000000030707834834COLORMAC S.R.L.               000000000699980000000000000000000000000000000000000000000000000000000000000000000000000000000000000000000000000000000000PES00010000001000000000012148400000000000000000000000000                              000000000000000  
202312270010004700000000000000003139                8000000000030707834834COLORMAC S.R.L.               000000004449762000000000000000000000000000000000000000000000000000000000000000000000000000000000000000000000000000000000PES00010000001000000000077227300000000000000000000000000                              000000000000000  
202312270010000900000000000001013692                8000000000030628455518NOSIS LAB. DE INVESTIGACION Y 000000036266404000000000000000000000000000000000000000000000000000000000000000000000877413000000000000000000000000000000PES00010000001000000000614189100000000000000000000000000                              000000000000000  
202312270030001600000000000000001487                8000000000030500090029EL CRONISTA COMERCIAL S.A.    000000099200000000000000000000000000000000000000000000000000000000000000000000000002400000000000000000000000000000000000PES00010000001000000001680000000000000000000000000000000                              000000000000000  
202312270010001600000000000000005271                8000000000030500090029EL CRONISTA COMERCIAL S.A.    000000049600000000000000000000000000000000000000000000000000000000000000000000000001200000000000000000000000000000000000PES00010000001000000000840000000000000000000000000000000                              000000000000000  
202312270010018600000000000000010214                8000000000030644727463EMFACO S.A.                   000000002500004000000000000000000000000000000000000000000000000000000000000000000000000000000000000000000000000000088429PES00010000001000000000041853800000000000000000000000000                              000000000000000  
202312270010003500000000000000824269                8000000000033692148229OFFICENET S.A.                000000022686413000000000000000000000000000000000000000000000000000000000000000000000548866000000000000000000000000000000PES00010000001000000000384205400000000000000000000000000                              000000000000000  
202312270010261300000000000000029284                8000000000033699685459CORREO ANDREANI S.A.          000000001079999000000000000000000000000000000000000000000000000000000000000000000000000000000000000000000000000000000000PES00010000001000000000018743800000000000000000000000000                              000000000000000  
202312260130000100000000000000000012                8000000000027406413735DI FABIO PRISCILA             000000000055693000000000000000000000000000000000000000000000000000000000000000000000000000000000000000000000000000000000PES00010000000000000000000000000000000000000000000000000                              000000000000000  
202312260110000200000000000000000185                8000000000027248040357FERRARI NATALIA ANDREA        000000022648800000000000000000000000000000000000000000000000000000000000000000000000000000000000000000000000000000000000PES00010000000000000000000000000000000000000000000000000                              000000000000000  
202312260110000200000000000000000186                8000000000027248040357FERRARI NATALIA ANDREA        000000000877200000000000000000000000000000000000000000000000000000000000000000000000000000000000000000000000000000000000PES00010000000000000000000000000000000000000000000000000                              000000000000000  
202312260110000200000000000000000187                8000000000027248040357FERRARI NATALIA ANDREA        000000011324400000000000000000000000000000000000000000000000000000000000000000000000000000000000000000000000000000000000PES00010000000000000000000000000000000000000000000000000                              000000000000000  
202312260110000300000000000000000043                8000000000020076020656AROZENA JUAN CARLOS           000000012045400000000000000000000000000000000000000000000000000000000000000000000000000000000000000000000000000000000000PES00010000000000000000000000000000000000000000000000000                              000000000000000  
202312260110000300000000000000000044                8000000000020076020656AROZENA JUAN CARLOS           000000024090800000000000000000000000000000000000000000000000000000000000000000000000000000000000000000000000000000000000PES00010000000000000000000000000000000000000000000000000                              000000000000000  
202312280110000100000000000000000614                8000000000020142068371LOPEZ KING EMILIO             000000008000000000000000000000000000000000000000000000000000000000000000000000000000000000000000000000000000000000000000PES00010000000000000000000000000000000000000000000000000                              000000000000000  
202312280010000200000000000000000011                8000000000020120117727PARRA DIEGO MIGUEL            000000001815000000000000000000000000000000000000000000000000000000000000000000000000000000000000000000000000000000000000PES00010000001000000000031500000000000000000000000000000                              000000000000000  
202312280010000200000000000000000354                8000000000020258983271VALENZUELA ADOLFO DIEGO       000000019148250000000000000000000000000000000000000000000000000000000000000000000000000000000000000000000000000000000000PES00010000001000000000332325000000000000000000000000000                              000000000000000  
202312280010000200000000000000000779                8000000000030711548455INTERLOCK SA                  000000020570000000000000000000000000000000000000000000000000000000000000000000000000000000000000000000000000000000000000PES00010000001000000000357000000000000000000000000000000                              000000000000000  
202312280010000400000000000000000021                8000000000027185286040GHELFI MARIA LIA              000000008418735000000000000000000000000000000000000000000000000000000000000000000000000000000000000000000000000000000000PES00010000001000000000020533500000000000000000000000000                              000000000000000  
202312280010000600000000000000173570                8000000000030708384158MONITOREO SIN ABONO S.A.      000000002432494000000000000000000000000000000000000000000000000000000000000000000000000000000000000000000000000000000000PES00010000001000000000042216800000000000000000000000000                              000000000000000  
202312280010000800000000000000000721                8000000000030714864382E. G. D. PANIFICADORA SRL     000000000704000000000000000000000000000000000000000000000000000000000000000000000000000000000000000000000000000000000000PES00010000001000000000006689600000000000000000000000000                              000000000000000  
202312280010001000000000000000002075                8000000000030715139428PUBLICIDAD  MULTILED  S.R.L.  000000130680000000000000000000000000000000000000000000000000000000000000000000000000000000000000000000000000000000000000PES00010000001000000002268000000000000000000000000000000                              000000000000000  
202312280010000400000000000000004249                8000000000030709053007CUSTOMS SERVICES ARGENTINA S.A000000111118800000000000000000000000000000000000000000000000000000000000000000000000000000000000000000000000000000000000PES00010000001000000001055880000000000000000000000000000                              000000000000000  
202312280010000500000000000000007264                8000000000030715169254TODO COPIA S.A.               000000000198000000000000000000000000000000000000000000000000000000000000000000000000000000000000000000000000000000000000PES00010000001000000000003436400000000000000000000000000                              000000000000000  
202312280010001200000000000000002123                8000000000033711304989PIRGUI S.R.L.                 000000011887200000000000000000000000000000000000000000000000000000000000000000000000000000000000000000000000000000000000PES00010000002000000000131488700000000000000000000000000                              000000000000000  
202312280110000100000000000000000059                8000000000020946060276CHEREY ANTONIO FEDERICO       000000020143665000000000000000000000000000000000000000000000000000000000000000000000000000000000000000000000000000000000PES00010000000000000000000000000000000000000000000000000                              000000000000000  
202312280110000200000000000000000345                8000000000020141421779MC GAW RICARDO MARCOS         000000003000000000000000000000000000000000000000000000000000000000000000000000000000000000000000000000000000000000000000PES00010000000000000000000000000000000000000000000000000                              000000000000000  
202312290010000100000000000000001792                8000000000030715558331COLMAN'S S.R.L.               000000025410000000000000000000000000000000000000000000000000000000000000000000000000000000000000000000000000000000000000PES00010000001000000000441000000000000000000000000000000                              000000000000000  
202312290010000100000000000000001793                8000000000030715558331COLMAN'S S.R.L.               000000087120000000000000000000000000000000000000000000000000000000000000000000000000000000000000000000000000000000000000PES00010000001000000001512000000000000000000000000000000                              000000000000000  
202312290010000400000000000000000304                8000000000030717067726PARADOR CANNING S.R.L         000000000285000000000000000000000000000000000000000000000000000000000000000000000000000000000000000000000000000000000000PES00010000001000000000004946300000000000000000000000000                              000000000000000  
202312290030000400000000000000000827                8000000000030712389512CADENAZZI PUBLICIDAD DE CADENA000000458915901000000000000000000000000000000000000000000000000000000000000000000000000000000000000000000000000000000000PES00010000001000000007964656100000000000000000000000000                              000000000000000  
202312290010000400000000000000001485                8000000000030712389512CADENAZZI PUBLICIDAD DE CADENA000000806530582000000000000000000000000000000000000000000000000000000000000000000000000000000000000000000000000000000000PES00010000001000000013997638200000000000000000000000000                              000000000000000  
202312290010000400000000000000001486                8000000000030712389512CADENAZZI PUBLICIDAD DE CADENA000000025410000000000000000000000000000000000000000000000000000000000000000000000000000000000000000000000000000000000000PES00010000001000000000441000000000000000000000000000000                              000000000000000  
202312290010000400000000000000001487                8000000000030712389512CADENAZZI PUBLICIDAD DE CADENA000000127944432000000000000000000000000000000000000000000000000000000000000000000000000000000000000000000000000000000000PES00010000001000000002220523200000000000000000000000000                              000000000000000  
202312290010000500000000000000001605                8000000000020116436648GOLDSTEIN SERGIO LUIS         000000006512220000000000000000000000000000000000000000000000000000000000000000000000000000000000000000000000000000000000PES00010000001000000000113022000000000000000000000000000                              000000000000000  
202312290010000500000000000000001606                8000000000020116436648GOLDSTEIN SERGIO LUIS         000000007163200000000000000000000000000000000000000000000000000000000000000000000000000000000000000000000000000000000000PES00010000001000000000124320000000000000000000000000000                              000000000000000  
202312290010000700000000000000000009                8000000000030710183437ADRIAN MERCADO GESTION INMOBIL000001573000000000000000000000000000000000000000000000000000000000000000000000000000000000000000000000000000000000000000PES00010000001000000027300000000000000000000000000000000                              000000000000000  
202312290010001500000000000000002157                8000000000030680759894QUETAL S.A.                   000000000115000000000000000000000000000000000000000000000000000000000000000000000000000000000000000000000000000000000000PES00010000001000000000001995900000000000000000000000000                              000000000000000  
202312290010000200000000000000000143                8000000000030717194884VACAS PUBLICIDAD S.A.S.       000000007595250000000000000000000000000000000000000000000000000000000000000000000000000000000000000000000000000000000000PES00010000001000000000018525000000000000000000000000000                              000000000000000  
202312290010000200000000000000000144                8000000000030717194884VACAS PUBLICIDAD S.A.S.       000000108257800000000000000000000000000000000000000000000000000000000000000000000000000000000000000000000000000000000000PES00010000001000000001028694000000000000000000000000000                              000000000000000  
202312290010000200000000000000000145                8000000000030717194884VACAS PUBLICIDAD S.A.S.       000000083808859000000000000000000000000000000000000000000000000000000000000000000000000000000000000000000000000000000000PES00010000001000000001454533900000000000000000000000000                              000000000000000  
202312290010000200000000000000000146                8000000000030717194884VACAS PUBLICIDAD S.A.S.       000000027285500000000000000000000000000000000000000000000000000000000000000000000000000000000000000000000000000000000000PES00010000001000000000473550000000000000000000000000000                              000000000000000  
202312290010000200000000000000013010                8000000000023127670099ARAMBURU CARLOS ALEJANDRO     000000046571569000000000000000000000000000000000000000000000000000000000000000000000000000000000000000000000000000000000PES00010000001000000000808266900000000000000000000000000                              000000000000000  
202312290010000600000000000000001363                8000000000030587511726POLIMAX S R L                 000000023245679000000000000000000000000000000000000000000000000000000000000000000000000000000000000000000000000000000000PES00010000001000000000403437400000000000000000000000000                              000000000000000  
202312290010000600000000000000002264                8000000000030716383519TUPAPELERIA S.R.L.            000000017185238000000000000000000000000000000000000000000000000000000000000000000000000000000000000000000000000000000000PES00010000001000000000298256200000000000000000000000000                              000000000000000  
202312290010001800000000000000000823                8000000000030711103534ENCODE S.A.                   000000012100000000000000000000000000000000000000000000000000000000000000000000000000000000000000000000000000000000000000PES00010000001000000000210000000000000000000000000000000                              000000000000000  
202312290010018600000000000000010249                8000000000030644727463EMFACO S.A.                   000000001800194000000000000000000000000000000000000000000000000000000000000000000000000000000000000000000000000000065781PES00010000001000000000030101400000000000000000000000000                              000000000000000  
202312290010123800000000000000003615                8000000000030685849751DIA ARGENTINA S.A.            000000001119970000000000000000000000000000000000000000000000000000000000000000000000027096000000000000000000000000000000PES00010000001000000000018967200000000000000000000000000                              000000000000000  
202312300010000700000000000000000010                8000000000030710183437ADRIAN MERCADO GESTION INMOBIL000000717728992000000000000000000000000000000000000000000000000000000000000000000000000000000000000000000000000000000000PES00010000001000000006820049200000000000000000000000000                              000000000000000  
202312300010000700000000000000000011                8000000000030710183437ADRIAN MERCADO GESTION INMOBIL000001137021967000000000000000000000000000000000000000000000000000000000000000000000000000000000000000000000000000000000PES00010000001000000019733439100000000000000000000000000                              000000000000000  
202312300010000700000000000000000012                8000000000030710183437ADRIAN MERCADO GESTION INMOBIL000006566574785000000000000000000000000000000000000000000000000000000000000000000000000000000000000000000000000000000000PES00010000001000000113965347500000000000000000000000000                              000000000000000  
202312300010000300000000000000201206                8000000000030609178430AMERICA TV S.A.               000000030700540000000000000000000000000000000000000000000000000000000000000000000000742755000000000000000000000000000000PES00010000001000000000519928500000000000000000000000000                              000000000000000  
202312300010000300000000000000201452                8000000000030609178430AMERICA TV S.A.               000000070915104000000000000000000000000000000000000000000000000000000000000000000001715688000000000000000000000000000000PES00010000001000000001200981600000000000000000000000000                              000000000000000  
202312300110000300000000000000000373                8000000000027249564023FOSSATI GUILLERMINA           000000001350000000000000000000000000000000000000000000000000000000000000000000000000000000000000000000000000000000000000PES00010000000000000000000000000000000000000000000000000                              000000000000000  
202312300110000300000000000000000374                8000000000027249564023FOSSATI GUILLERMINA           000000001350000000000000000000000000000000000000000000000000000000000000000000000000000000000000000000000000000000000000PES00010000000000000000000000000000000000000000000000000                              000000000000000  
202312310010000100000000000000004712                8000000000030707722777CONSORCIO DE COPROPIETARIOS OL000000290874185000000000000000000000015959034000000000000000000000000000000000000000000000000000000000000000000000000000PES00010000002000000005027301000000000000000000000000000                              000000000000000  
202312310010000200000000000000001518                8000000000020160716917RATIBEL ANIBAL GABRIEL        000001020438375000000000000000000000000000000000000000000000000000000000000000000000000000000000000000000000000000000000PES00010000001000000017710087500000000000000000000000000                              000000000000000  
202312310010000200000000000000001524                8000000000020160716917RATIBEL ANIBAL GABRIEL        000000363390225000000000000000000000000000000000000000000000000000000000000000000000000000000000000000000000000000000000PES00010000001000000006306772500000000000000000000000000                              000000000000000  
202312310010000200000000000000001932                8000000000020203709898ECHEVARRIA GONZALO            000000119306000000000000000000000000000000000000000000000000000000000000000000000000000000000000000000000000000000000000PES00010000001000000002070600000000000000000000000000000                              000000000000000  
202312310010000200000000000000001945                8000000000030717604977ELEGI FRUTA S. R. L.          000000021655238000000000000000000000000000000000000000000000000000000000000000000000000000000000000000000000000000000000PES00010000001000000000205773800000000000000000000000000                              000000000000000  
202312310010000300000000000000000244                8000000000030714533793PIER MEDIA S.R.L.             000000058213100000000000000000000000000000000000000000000000000000000000000000000000000000000000000000000000000000000000PES00010000001000000001010310000000000000000000000000000                              000000000000000  
202312310010000700000000000000000013                8000000000030710183437ADRIAN MERCADO GESTION INMOBIL000006192302836000000000000000000000000000000000000000000000000000000000000000000000000000000000000000000000000000000000PES00010000001000000058840886700000000000000000000000000                              000000000000000  
202312310010000100000000000000012023                8000000000030500003193BBVA BANCO FRANCES S.A.       000000082965123000000000000000000000000000000000000001831231000000000000000000000001825146000000000000000000000000000000PES00010000001000000001376432400000000000000000000000000                              000000000000000  
202312310010001000000000000000003330                8000000000030709663603MADERO ESTE PARKING S.A.      000000004752000000000000000000000000000000000000000000000000000000000000000000000000000000000000000000000000000000000000PES00010000001000000000082472700000000000000000000000000                              000000000000000  
202312310010000900000000000000244617                8000000000030575170125PROSEGUR S A                  000000060087066000000000000000000000000000000000000000000000000000000000000000000001806225000000000000000000000000000000PES00010000001000000001011485700000000000000000000000000                              000000000000000  
202312310030001100000000000000686454                8000000000033709585229GOOGLE ARGENTINA S.R.L.       000000000024459000000000000000000000000000000000000000000000000000000000000000000000000000000000000000000000000000000000PES00010000001000000000000424500000000000000000000000000                              000000000000000  
202312310010001100000000000000926512                8000000000033709585229GOOGLE ARGENTINA S.R.L.       000000089138939000000000000000000000000000000000000002105644000000000000000000000002105644000000000000000000000000000000PES00010000001000000001473951000000000000000000000000000                              000000000000000  
202312310020001200000000000000013874                8000000000030696850972CPS COMUNICACIONES S.A.       000000068269440000000000000000000000000000000000000000000000000000000000000000000001651680000000000000000000000000000000PES00010000001000000001156176000000000000000000000000000                              000000000000000  
202312310010135000000000000000023037                8000000000030500089624LA NACION S.A.                000000023910500000000000000000000000000000000000000000000000000000000000000000000000000000000000000000000000000000000000PES00010000001000000000000000000000000000000000000000000                              000000000000000  
202312310630000100000000000000000111                8000000000030701307115DESPEGAR.COM.AR SA            000000019965000000000000000000000000000000000000000000000000000000000000000000000000000000000000000000000000000000000000PES00010000001000000000346500000000000000000030718033612ADRIAN MERCADO SUBASTAS S.A.  000000000000000  
202312310630000100000000000000000112                8000000000030714498904CARNES MOREIRA SRL            000000011050000000000000000000000000000000000000000000000000000000000000000000000000000000000000000000000000000000000000PES00010000001000000000105000000000000000000030718033612ADRIAN MERCADO SUBASTAS S.A.  000000000000000  
202312310630000100000000000000000116                8000000000030717240835MAD EQUIPOS Y SERVIC          000018441960000000000000000000000000000000000000000000000000000000000000000000000000000000000000000000000000000000000000PES00010000002000000282996000000000000000000030718033612ADRIAN MERCADO SUBASTAS S.A.  000000000000000  
202312310630000100000000000000000117                8000000000030502245399ESUCO SA                      000003922750000000000000000000000000000000000000000000000000000000000000000000000000000000000000000000000000000000000000PES00010000001000000037275000000000000000000030718033612ADRIAN MERCADO SUBASTAS S.A.  000000000000000  
202312310630000100000000000000000118                8000000000020222594910AVILES MARCELO DANIE          000000190984000000000000000000000000000000000000000000000000000000000000000000000000000000000000000000000000000000000000PES00010000002000000003158400000000000000000030718033612ADRIAN MERCADO SUBASTAS S.A.  000000000000000  
