202310010010000200000000000000002663                8000000000033709770719C Y M PUBLICIDAD S.R.L.       000000019611801000000000000000000000000000000000000000000000000000000000000000000000000000000000000000000000000000000000PES00010000001000000000340370100000000000000000000000000                              000000000000000  
202310010010000300000000000000000154                8000000000030714533793PIER MEDIA S.R.L.             000000011495000000000000000000000000000000000000000000000000000000000000000000000000000000000000000000000000000000000000PES00010000001000000000199500000000000000000000000000000                              000000000000000  
202310010010000200000000000000008239                8000000000030580183928EMPRESA DE SEGURIDAD INTEGRAL 000000099105565000000000000000000000000000000000000000000000000000000000000000000000000000000000000000000000000000000000PES00010000001000000001720013900000000000000000000000000                              000000000000000  
202310010010000200000000000000008240                8000000000030580183928EMPRESA DE SEGURIDAD INTEGRAL 000000099105565000000000000000000000000000000000000000000000000000000000000000000000000000000000000000000000000000000000PES00010000001000000001720013900000000000000000000000000                              000000000000000  
202310020010000100000000000000000052                8000000000027924914195GUALTER LOO SIU YIE CRISTINA  000000001234200000000000000000000000000000000000000000000000000000000000000000000000000000000000000000000000000000000000PES00010000001000000000021420000000000000000000000000000                              000000000000000  
202310020010000100000000000000000053                8000000000027924914195GUALTER LOO SIU YIE CRISTINA  000000035574440000000000000000000000000000000000000000000000000000000000000000000000000000000000000000000000000000000000PES00010000001000000000617411600000000000000000000000000                              000000000000000  
202310020010000100000000000000000054                8000000000027924914195GUALTER LOO SIU YIE CRISTINA  000000014394828000000000000000000000000000000000000000000000000000000000000000000000000000000000000000000000000000000000PES00010000001000000000249827600000000000000000000000000                              000000000000000  
202310020010000100000000000000000607                8000000000020348359550MORAS IGNACIO                 000000020449000000000000000000000000000000000000000000000000000000000000000000000000000000000000000000000000000000000000PES00010000001000000000354900000000000000000000000000000                              000000000000000  
202310020010000200000000000000000376                8000000000030716344858TURM S.R.L.                   000000110342925000000000000000000000000000000000000000000000000000000000000000000000000000000000000000000000000000000000PES00010000001000000001915042500000000000000000000000000                              000000000000000  
202310020010000200000000000000000377                8000000000030716344858TURM S.R.L.                   000000031644767000000000000000000000000000000000000000000000000000000000000000000000000000000000000000000000000000000000PES00010000001000000000549206700000000000000000000000000                              000000000000000  
202310020010000200000000000000000378                8000000000030716344858TURM S.R.L.                   000000066338250000000000000000000000000000000000000000000000000000000000000000000000000000000000000000000000000000000000PES00010000001000000001151325000000000000000000000000000                              000000000000000  
202310020010000200000000000000000379                8000000000030716344858TURM S.R.L.                   000000014520000000000000000000000000000000000000000000000000000000000000000000000000000000000000000000000000000000000000PES00010000001000000000252000000000000000000000000000000                              000000000000000  
202310020010000200000000000000001262                8000000000027203497844CALVELO MARIA GABRIELA        000000012781170000000000000000000000000000000000000000000000000000000000000000000000000000000000000000000000000000000000PES00010000001000000000221822000000000000000000000000000                              000000000000000  
202310020010000200000000000000001665                8000000000033716413719CLEANX S.A.                   000000230136413000000000000000000000000000000000000000000000000000000000000000000000000000000000000000000000000000000000PES00010000001000000003994103000000000000000000000000000                              000000000000000  
202310020010000200000000000000001666                8000000000033716413719CLEANX S.A.                   000000025741158000000000000000000000000000000000000000000000000000000000000000000000000000000000000000000000000000000000PES00010000001000000000446747400000000000000000000000000                              000000000000000  
202309250010000300000000000000000019                8000000000020043775678DAGNINO JUAN CARLOS           000000036300000000000000000000000000000000000000000000000000000000000000000000000000000000000000000000000000000000000000PES00010000001000000000630000000000000000000000000000000                              000000000000000  
202310020010000300000000000000000020                8000000000020043775678DAGNINO JUAN CARLOS           000000010845835000000000000000000000000000000000000000000000000000000000000000000000000000000000000000000000000000000000PES00010000001000000000188233500000000000000000000000000                              000000000000000  
202310020010000300000000000000001549                8000000000030714739693BS AS IMPORT SRL              000000619760002000000000000000000000000000000000000000000000000000000000000000000000000000000000000000000000000000000000PES00010000001000000005889122200000000000000000000000000                              000000000000000  
202310020010000300000000000000004873                8000000000030688498615TELEFONIA DEL PLATA S.R.L.    000000002420000000000000000000000000000000000000000000000000000000000000000000000000000000000000000000000000000000000000PES00010000001000000000042000000000000000000000000000000                              000000000000000  
202310020030000400000000000000000037                8000000000020162255631PENDZIK JAVIER ENRIQUE        000000007018000000000000000000000000000000000000000000000000000000000000000000000000000000000000000000000000000000000000PES00010000001000000000121800000000000000000000000000000                              000000000000000  
202310020030000400000000000000000038                8000000000020162255631PENDZIK JAVIER ENRIQUE        000000007865000000000000000000000000000000000000000000000000000000000000000000000000000000000000000000000000000000000000PES00010000001000000000136500000000000000000000000000000                              000000000000000  
202310020010000400000000000000002461                8000000000020162255631PENDZIK JAVIER ENRIQUE        000000008470000000000000000000000000000000000000000000000000000000000000000000000000000000000000000000000000000000000000PES00010000001000000000147000000000000000000000000000000                              000000000000000  
202310020010000400000000000000002462                8000000000020162255631PENDZIK JAVIER ENRIQUE        000000009831250000000000000000000000000000000000000000000000000000000000000000000000000000000000000000000000000000000000PES00010000001000000000170625000000000000000000000000000                              000000000000000  
202310020010000200000000000000000132                8000000000030717194884VACAS PUBLICIDAD S.A.S.       000000296867040000000000000000000000000000000000000000000000000000000000000000000000000000000000000000000000000000000000PES00010000001000000002820908500000000000000000000000000                              000000000000000  
202310020010000500000000000000002259                8000000000023291929109BERRETTA CARLOS MARIANO       000000036300000000000000000000000000000000000000000000000000000000000000000000000000000000000000000000000000000000000000PES00010000001000000000630000000000000000000000000000000                              000000000000000  
202310020010000600000000000000034083                8000000000030710428642DISMASER SA                   000000037057970000000000000000000000000000001000000000000000000000000000000000000000000000000000000000000000000000000000PES00010000001000000000643154800000000000000000000000000                              000000000000000  
202310020110000200000000000000000030                8000000000023301987889GEROMINI FEDERICO IGNACIO     000000089600000000000000000000000000000000000000000000000000000000000000000000000000000000000000000000000000000000000000PES00010000000000000000000000000000000000000000000000000                              000000000000000  
202310020110000200000000000000000338                8000000000020945446855BAHAMONDE ORTIZ JUAN CARLOS   000000004825000000000000000000000000000000000000000000000000000000000000000000000000000000000000000000000000000000000000PES00010000000000000000000000000000000000000000000000000                              000000000000000  
202310020110000200000000000000000751                8000000000030701272788AREOPAGO ASOC CIVIL           000000004000000000000000000000000000000000000000000000000000000000000000000000000000000000000000000000000000000000000000PES00010000000000000000000000000000000000000000000000000                              000000000000000  
202310030010000100000000000000000023                8000000000030718151666AM2 CONSULTING S. R. L.       000000025071200000000000000000000000000000000000000000000000000000000000000000000000000000000000000000000000000000000000PES00010000001000000000435120000000000000000000000000000                              000000000000000  
202310030010000200000000000000000003                8000000000020120117727PARRA DIEGO MIGUEL            000000143640431000000000000000000000000000000000000000000000000000000000000000000000000000000000000000000000000000000000PES00010000001000000002492933100000000000000000000000000                              000000000000000  
202310030010000200000000000000009623                8000000000030708653078EMPRENDIMIENTOS CORPORATIVOS S000000030250000000000000000000000000000000000000000000000000000000000000000000000000000000000000000000000000000000000000PES00010000001000000000525000000000000000000000000000000                              000000000000000  
202310030010000300000000000000000438                8000000000020214845289SAYEGH JAVIER ALEJANDRO       000000015730000000000000000000000000000000000000000000000000000000000000000000000000000000000000000000000000000000000000PES00010000001000000000273000000000000000000000000000000                              000000000000000  
202310030010000300000000000000001951                8000000000023182616699SERENELLINI EDUARDO JOSE      000000033396000000000000000000000000000000000000000000000000000000000000000000000000000000000000000000000000000000000000PES00010000001000000000579600000000000000000000000000000                              000000000000000  
202310030030000400000000000000000755                8000000000030712389512CADENAZZI PUBLICIDAD DE CADENA000000548800335000000000000000000000000000000000000000000000000000000000000000000000000000000000000000000000000000000000PES00010000001000000009524633900000000000000000000000000                              000000000000000  
202310030010000400000000000000001342                8000000000030712389512CADENAZZI PUBLICIDAD DE CADENA000000073810000000000000000000000000000000000000000000000000000000000000000000000000000000000000000000000000000000000000PES00010000001000000001281000000000000000000000000000000                              000000000000000  
202310030010000400000000000000001343                8000000000030712389512CADENAZZI PUBLICIDAD DE CADENA000000964499712000000000000000000000000000000000000000000000000000000000000000000000000000000000000000000000000000000000PES00010000001000000016739251200000000000000000000000000                              000000000000000  
202310030010000400000000000000001344                8000000000030712389512CADENAZZI PUBLICIDAD DE CADENA000000023038400000000000000000000000000000000000000000000000000000000000000000000000000000000000000000000000000000000000PES00010000001000000000399840000000000000000000000000000                              000000000000000  
202310030010000400000000000000001345                8000000000030712389512CADENAZZI PUBLICIDAD DE CADENA000000028798000000000000000000000000000000000000000000000000000000000000000000000000000000000000000000000000000000000000PES00010000001000000000499800000000000000000000000000000                              000000000000000  
202310030010000400000000000000001346                8000000000030712389512CADENAZZI PUBLICIDAD DE CADENA000000275214500000000000000000000000000000000000000000000000000000000000000000000000000000000000000000000000000000000000PES00010000001000000004776450000000000000000000000000000                              000000000000000  
202310030030000500000000000000000092                8000000000033708416679SAWGRASS S.R.L.               000000000199519000000000000000000000000000000000000000000000000000000000000000000000000000000000000000000000000000000000PES00010000001000000000003462700000000000000000000000000                              000000000000000  
202310030030000500000000000000000093                8000000000033708416679SAWGRASS S.R.L.               000000001384956000000000000000000000000000000000000000000000000000000000000000000000000000000000000000000000000000000000PES00010000001000000000024036400000000000000000000000000                              000000000000000  
202310030010000500000000000000000315                8000000000033708416679SAWGRASS S.R.L.               000000003990405000000000000000000000000000000000000000000000000000000000000000000000000000000000000000000000000000000000PES00010000001000000000069255000000000000000000000000000                              000000000000000  
202310030010000500000000000000000316                8000000000033708416679SAWGRASS S.R.L.               000000027699129000000000000000000000000000000000000000000000000000000000000000000000000000000000000000000000000000000000PES00010000001000000000480728700000000000000000000000000                              000000000000000  
202310030010000600000000000000068595                8000000000030711053669GADIK SRL                     000000010522500000000000000000000000000000000000000000000000000000000000000000000000000000000000000000000000000000000000PES00010000001000000000182621900000000000000000000000000                              000000000000000  
202310030010000300000000000000003984                8000000000030714369500ARGENTINOS MEDIA SA           000000037752000000000000000000000000000000000000000000000000000000000000000000000000000000000000000000000000000000000000PES00010000001000000000655200000000000000000000000000000                              000000000000000  
202310030010000300000000000000029153                8000000000033628152689VOCACION S.R.L.               000000014196000000000000000000000000000000000000000000000000000000000000000000000000000000000000000000000000000000000000PES00010000001000000000067600000000000000000000000000000                              000000000000000  
202310030010000300000000000000046840                8000000000033663419949EJES SA                       000000006606600000000000000000000000000000000000000000000000000000000000000000000000000000000000000000000000000000000000PES00010000001000000000114660000000000000000000000000000                              000000000000000  
202310030010000600000000000000002085                8000000000030716383519TUPAPELERIA S.R.L.            000000000835505000000000000000000000000000000000000000000000000000000000000000000000000000000000000000000000000000000000PES00010000001000000000014500500000000000000000000000000                              000000000000000  
202310030010003700000000000000110969                8000000000033707366589FEDERACION PATRONAL SEGUROS S.000000003104216000000000000000000000003013802000000000000000000000000000000000000000090414000000000000000000000000000000PES00010000001000000000000000000000000000000000000000000                              000000000000000  
202310030110000100000000000000000088                8000000000020425669630PINELLA RODRIGO               000000020217165000000000000000000000000000000000000000000000000000000000000000000000000000000000000000000000000000000000PES00010000000000000000000000000000000000000000000000000                              000000000000000  
202310040010000200000000000000001801                8000000000030708916605METALURGICA LAGILLA S.R.L.    000000023595000000000000000000000000000000000000000000000000000000000000000000000000000000000000000000000000000000000000PES00010000001000000000409500000000000000000000000000000                              000000000000000  
202310040010000200000000000000014020                8000000000030710434863QUART PRODUCCIONES S.R.L.     000000029040000000000000000000000000000000000000000000000000000000000000000000000000000000000000000000000000000000000000PES00010000001000000000504000000000000000000000000000000                              000000000000000  
202310040010000300000000000000000571                8000000000020133822659RIGOLI CLAUDIO OMAR ENRIQUE   000000017563392000000000000000000000000000000000000000000000000000000000000000000000000000000000000000000000000000000000PES00010000001000000000304819200000000000000000000000000                              000000000000000  
202310040010000300000000000000001124                8000000000023239928749FERNANDEZ MUGICA JUAN IGNACIO 000000009831250000000000000000000000000000000000000000000000000000000000000000000000000000000000000000000000000000000000PES00010000001000000000170625000000000000000000000000000                              000000000000000  
202310040010000300000000000000004884                8000000000030688498615TELEFONIA DEL PLATA S.R.L.    000000003025000000000000000000000000000000000000000000000000000000000000000000000000000000000000000000000000000000000000PES00010000001000000000052500000000000000000000000000000                              000000000000000  
202310040010000400000000000000001385                8000000000033628540239L D INGENIERIA S R L          000000010039975000000000000000000000000000000000000000000000000000000000000000000000000000000000000000000000000000000000PES00010000001000000000174247500000000000000000000000000                              000000000000000  
202310040010000400000000000000001386                8000000000033628540239L D INGENIERIA S R L          000000010039975000000000000000000000000000000000000000000000000000000000000000000000000000000000000000000000000000000000PES00010000001000000000174247500000000000000000000000000                              000000000000000  
202310040010000300000000000000002206                8000000000033709470359L Y M PRODUCCIONES S.R.L.     000000052311688000000000000000000000000000000000000000000000000000000000000000000000000000000000000000000000000000000000PES00010000001000000000907888800000000000000000000000000                              000000000000000  
202310040010000500000000000000011680                8000000000030716271168ZHUO TECHNOLOGIES S.A.S.      000000004879446000000000000000000000000000000000000000000000000000000000000000000000000000000000000000000000000000000000PES00010000001000000000084684600000000000000000000000000                              000000000000000  
202310040030000800000000000000000111                8000000000030697578990EMPRENDIMIENTOS INMOBILIARIOS 000000007702111000000000000000000000000000000000000000000000000000000000000000000000000000000000000000000000000007702111PES00010000001000000000000000000000000000000000000000000                              000000000000000  
202310040010000800000000000000001052                8000000000030697578990EMPRENDIMIENTOS INMOBILIARIOS 000000584661110000000000000000000000000000000000000000000000000000000000000000000000000000000000000000000000000000000000PES00010000001000000010147011000000000000000000000000000                              000000000000000  
202310050010000700000000000000006113                8000000000030709325120ALTA DENSIDAD SA              000000087120000000000000000000000000000000000000000000000000000000000000000000000000000000000000000000000000000000000000PES00010000001000000001512000000000000000000000000000000                              000000000000000  
202310050010001600000000000000002599                8000000000030680759894QUETAL S.A.                   000000004000000000000000000000000000000000000000000000000000000000000000000000000000000000000000000000000000000000000000PES00010000001000000000069421500000000000000000000000000                              000000000000000  
202310050010000400000000000000009680                8000000000030715096419ASG S.A.                      000000010877900000000000000000000000000000000000000000000000000000000000000000000000000000000000000000000000000000000000PES00010000001000000000188790000000000000000000000000000                              000000000000000  
202310050010000400000000000000009682                8000000000030715096419ASG S.A.                      000000009317000000000000000000000000000000000000000000000000000000000000000000000000000000000000000000000000000000000000PES00010000001000000000161700000000000000000000000000000                              000000000000000  
202310050010000600000000000000008627                8000000000030709825905ALGUAR SA                     000000009000000000000000000000000000000000000000000000000000000000000000000000000000000000000000000000000000000000000000PES00010000001000000000156198300000000000000000000000000                              000000000000000  
202310050110000100000000000000000151                8000000000020438722476GRIMALDI THIAGO               000000004901000000000000000000000000000000000000000000000000000000000000000000000000000000000000000000000000000000000000PES00010000000000000000000000000000000000000000000000000                              000000000000000  
202310060010000200000000000000000004                8000000000020120117727PARRA DIEGO MIGUEL            000000242000000000000000000000000000000000000000000000000000000000000000000000000000000000000000000000000000000000000000PES00010000001000000004200000000000000000000000000000000                              000000000000000  
202310060010000200000000000000000864                8000000000030710287488LAS COSAS CLARAS PRODUCCIONES 000000006655000000000000000000000000000000000000000000000000000000000000000000000000000000000000000000000000000000000000PES00010000001000000000115500000000000000000000000000000                              000000000000000  
202310060010000200000000000000001417                8000000000030711058822MP WORKPLACES SA              000000021002875000000000000000000000000000000000000000000000000000000000000000000000000000000000000000000000000000000000PES00010000001000000000364512700000000000000000000000000                              000000000000000  
202310060010000300000000000000000285                8000000000030717130215SOLVERY S.R.L                 000000003599100000000000000000000000000000000000000000000000000000000000000000000000000000000000000000000000000000000000PES00010000001000000000034199600000000000000000000000000                              000000000000000  
202310060010000600000000000000008636                8000000000030709825905ALGUAR SA                     000000000305000000000000000000000000000000000000000000000000000000000000000000000000000000000000000000000000000000000000PES00010000001000000000005293400000000000000000000000000                              000000000000000  
202310060010007600000000000000007322                8000000000030677093427EL LAB TALLER DE IDIOMAS SRL  000000003219300000000000000000000000003219300000000000000000000000000000000000000000000000000000000000000000000000000000PES00010000001000000000000000000000000000000000000000000                              000000000000000  
202310060110000100000000000000000130                8000000000020200478453LOPREITE DARIO ESTEBAN        000000004750000000000000000000000000000000000000000000000000000000000000000000000000000000000000000000000000000000000000PES00010000000000000000000000000000000000000000000000000                              000000000000000  
202310070110000300000000000000000715                8000000000020320369585CAVALIERE ESTEBAN             000000003500000000000000000000000000000000000000000000000000000000000000000000000000000000000000000000000000000000000000PES00010000000000000000000000000000000000000000000000000                              000000000000000  
202310080010000200000000000000000010                8000000000020924627914COSTANZI MARCELO              000000193358000000000000000000000000000000000000000000000000000000000000000000000000000000000000000000000000000000000000PES00010000001000000003355800000000000000000000000000000                              000000000000000  
202310080010000200000000000000000011                8000000000020924627914COSTANZI MARCELO              000000010285000000000000000000000000000000000000000000000000000000000000000000000000000000000000000000000000000000000000PES00010000001000000000178500000000000000000000000000000                              000000000000000  
202310040010000200000000000000018525                8000000000033677679609SILMAR PRODUCCIONES S.R.L.    000000035065800000000000000000000000000000000000000000000000000000000000000000000000000000000000000000000000000000000000PES00010000001000000000608580000000000000000000000000000                              000000000000000  
202310090010000300000000000000029312                8000000000033628152689VOCACION S.R.L.               000000018218801000000000000000000000000000000000000000000000000000000000000000000000000000000000000000000000000000000000PES00010000001000000000316194100000000000000000000000000                              000000000000000  
202310090010003500000000000000820454                8000000000033692148229OFFICENET S.A.                000000017749763000000000000000000000000000000000000000000000000000000000000000000000429430000000000000000000000000000000PES00010000001000000000300600800000000000000000000000000                              000000000000000  
202310090010003500000000000000820478                8000000000033692148229OFFICENET S.A.                000000015062591000000000000000000000000000000000000000000000000000000000000000000000364418000000000000000000000000000000PES00010000001000000000255092300000000000000000000000000                              000000000000000  
202310090010003500000000000000820523                8000000000033692148229OFFICENET S.A.                000000005731450000000000000000000000000000000000000000000000000000000000000000000000138664000000000000000000000000000000PES00010000001000000000097064900000000000000000000000000                              000000000000000  
202310100010000300000000000000000320                8000000000020355345123VILLARRUEL NICOLAS NORBERTO   000000019965000000000000000000000000000000000000000000000000000000000000000000000000000000000000000000000000000000000000PES00010000001000000000346500000000000000000000000000000                              000000000000000  
202310110010001600000000000000002615                8000000000030680759894QUETAL S.A.                   000000005423946000000000000000000000000000000000000000000000000000000000000000000000000000000000000000000000000000000000PES00010000001000000000094134600000000000000000000000000                              000000000000000  
202310110010003500000000000000820713                8000000000033692148229OFFICENET S.A.                000000005624983000000000000000000000000000000000000000000000000000000000000000000000136088000000000000000000000000000000PES00010000001000000000095261800000000000000000000000000                              000000000000000  
202310110110000200000000000000000148                8000000000027261329102URIONA LUCIANA VANESA         000000008450000000000000000000000000000000000000000000000000000000000000000000000000000000000000000000000000000000000000PES00010000000000000000000000000000000000000000000000000                              000000000000000  
202310120010000200000000000000032231                8000000000030697616701MAYNAR SRL                    000000024829200000000000000000000000000000000000000000000000000000000000000000000000000000000000000000000000000000000000PES00010000001000000000430920000000000000000000000000000                              000000000000000  
202310120010000500000000000002881566                8000000000030702652975NSS S.A.                      000000290904740000000000000000000000000000000000000000000000000000000000000000000013743531000000000000000000000000000000PES00010000001000000004810235900000000000000000000000000                              000000000000000  
202310120010001200000000000000000182                8000000000030715213709FUTUROCK PRODUCCIONES SRL     000000021780000000000000000000000000000000000000000000000000000000000000000000000000000000000000000000000000000000000000PES00010000001000000000378000000000000000000000000000000                              000000000000000  
202310120010000200000000000000012715                8000000000023127670099ARAMBURU CARLOS ALEJANDRO     000000018728518000000000000000000000000000000000000000000000000000000000000000000000000000000000000000000000000000000000PES00010000001000000000325040400000000000000000000000000                              000000000000000  
202310120010000400000000000000311221                8000000000030696850972CPS COMUNICACIONES S.A.       000000022661000000000000000000000000000000000000000000000000000000000000000000000000548250000000000000000000000000000000PES00010000001000000000383775000000000000000000000000000                              000000000000000  
202310120010000400000000000000311222                8000000000030696850972CPS COMUNICACIONES S.A.       000000022661000000000000000000000000000000000000000000000000000000000000000000000000548250000000000000000000000000000000PES00010000001000000000383775000000000000000000000000000                              000000000000000  
202310120010000600000000000000002103                8000000000030716383519TUPAPELERIA S.R.L.            000000012726683000000000000000000000000000000000000000000000000000000000000000000000000000000000000000000000000000000000PES00010000001000000000220876300000000000000000000000000                              000000000000000  
202310120020001200000000000000011827                8000000000030696850972CPS COMUNICACIONES S.A.       000000012251749000000000000000000000000000000000000000000000000000000000000000000000296413000000000000000000000000000000PES00010000001000000000207489300000000000000000000000000                              000000000000000  
202310170010000200000000000000000451                8000000000030715471791ECONO JOURNAL SOCIEDAD DE RESP000000013650000000000000000000000000000000000000000000000000000000000000000000000000000000000000000000000000000000000000PES00010000001000000000065000000000000000000000000000000                              000000000000000  
202310170010000200000000000000008259                8000000000030580183928EMPRESA DE SEGURIDAD INTEGRAL 000000099105565000000000000000000000000000000000000000000000000000000000000000000000000000000000000000000000000000000000PES00010000001000000001720013900000000000000000000000000                              000000000000000  
202310170010000300000000000000001346                8000000000030711734631NEW BIZ SRL                   000000740000000000000000000000000000694796880000000000000000000000000000000000000000000000000000000000000000000000000000PES00010000001000000000784517000000000000000000000000000                              000000000000000  
202310170110000100000000000000000014                8000000000020371410644GONZALEZ NICOLAS              000000018375000000000000000000000000000000000000000000000000000000000000000000000000000000000000000000000000000000000000PES00010000000000000000000000000000000000000000000000000                              000000000000000  
202310170110000100000000000000000132                8000000000020200478453LOPREITE DARIO ESTEBAN        000000002500000000000000000000000000000000000000000000000000000000000000000000000000000000000000000000000000000000000000PES00010000000000000000000000000000000000000000000000000                              000000000000000  
202310170110000200000000000000000024                8000000000027326086121RIPOLL MARIANA BELEN          000000016800000000000000000000000000000000000000000000000000000000000000000000000000000000000000000000000000000000000000PES00010000000000000000000000000000000000000000000000000                              000000000000000  
202310170110000200000000000000000025                8000000000027326086121RIPOLL MARIANA BELEN          000000021840000000000000000000000000000000000000000000000000000000000000000000000000000000000000000000000000000000000000PES00010000000000000000000000000000000000000000000000000                              000000000000000  
202310170110000200000000000000000401                8000000000020269982536SUAREZ RUBEN DAMIAN           000000004500000000000000000000000000000000000000000000000000000000000000000000000000000000000000000000000000000000000000PES00010000000000000000000000000000000000000000000000000                              000000000000000  
202310180010001200000000000000001955                8000000000033711304989PIRGUI S.R.L.                 000000008149600000000000000000000000000000000000000000000000000000000000000000000000000000000000000000000000000000000000PES00010000002000000000089768900000000000000000000000000                              000000000000000  
202310190010000500000000000000024431                8000000000030715232355OFIT SRL                      000000120129187000000000000000000000000000000000000000000000000000000000000000000003175221000000000000000000000000000000PES00010000001000000001111327300000000000000000000000000                              000000000000000  
202310190010001700000000000000006783                8000000000030636827661TELEVISION ABC S.A.           000000031811505000000000000000000000000000000000000000000000000000000000000000000000000000000000000000000000000000000000PES00010000001000000000552100500000000000000000000000000                              000000000000000  
202310190010001700000000000000006784                8000000000030636827661TELEVISION ABC S.A.           000000040656000000000000000000000000000000000000000000000000000000000000000000000000000000000000000000000000000000000000PES00010000001000000000705600000000000000000000000000000                              000000000000000  
202310190110000100000000000000000077                8000000000027376202157MALDONADO PAULA DOLORES       000000041114003000000000000000000000000000000000000000000000000000000000000000000000000000000000000000000000000000000000PES00010000000000000000000000000000000000000000000000000                              000000000000000  
202310200010000100000000000000000055                8000000000027924914195GUALTER LOO SIU YIE CRISTINA  000000432196027000000000000000000000000000000000000000000000000000000000000000000000000000000000000000000000000000000000PES00010000001000000004106840100000000000000000000000000                              000000000000000  
202310200010000300000000000000004915                8000000000030688498615TELEFONIA DEL PLATA S.R.L.    000000008470000000000000000000000000000000000000000000000000000000000000000000000000000000000000000000000000000000000000PES00010000001000000000147000000000000000000000000000000                              000000000000000  
202310200010000900000000000000001644                8000000000030709184918QUALITY TECH SRL              000000044767800000000000000000000000000000000000000000000000000000000000000000000000000000000000000000000000000000000000PES00010000001000000000776961800000000000000000000000000                              000000000000000  
202310200010000600000000000000001306                8000000000030587511726POLIMAX S R L                 000000013599999000000000000000000000000000000000000000000000000000000000000000000000000000000000000000000000000000000000PES00010000001000000000236033000000000000000000000000000                              000000000000000  
202310200010246500000000000000311736                8000000000030708574836CORREO OFICIAL DE LA REPUBLICA000000000480000000000000000000000000000480000000000000000000000000000000000000000000000000000000000000000000000000000000PES00010000001000000000000000000000000000000000000000000                              000000000000000  
202310230010000200000000000000000872                8000000000030710287488LAS COSAS CLARAS PRODUCCIONES 000000006655000000000000000000000000000000000000000000000000000000000000000000000000000000000000000000000000000000000000PES00010000001000000000115500000000000000000000000000000                              000000000000000  
202310230010000200000000000000005015                8000000000027055716744SOBREIRA MARIA                000000003003616000000000000000000000003003616000000000000000000000000000000000000000000000000000000000000000000000000000PES00010000001000000000000000000000000000000000000000000                              000000000000000  
202310060010000300000000000000046841                8000000000033663419949EJES SA                       000000009861500000000000000000000000000000000000000000000000000000000000000000000000000000000000000000000000000000000000PES00010000001000000000171150000000000000000000000000000                              000000000000000  
202310230110000100000000000000000078                8000000000027376202157MALDONADO PAULA DOLORES       000000006080300000000000000000000000000000000000000000000000000000000000000000000000000000000000000000000000000000000000PES00010000000000000000000000000000000000000000000000000                              000000000000000  
202310230110000300000000000000000349                8000000000027249564023FOSSATI GUILLERMINA           000000002000000000000000000000000000000000000000000000000000000000000000000000000000000000000000000000000000000000000000PES00010000000000000000000000000000000000000000000000000                              000000000000000  
202310230110000300000000000000000350                8000000000027249564023FOSSATI GUILLERMINA           000000002000000000000000000000000000000000000000000000000000000000000000000000000000000000000000000000000000000000000000PES00010000000000000000000000000000000000000000000000000                              000000000000000  
202310240010000200000000000000001820                8000000000030708916605METALURGICA LAGILLA S.R.L.    000000047801225000000000000000000000000000000000000000000000000000000000000000000000000000000000000000000000000000000000PES00010000001000000000829608000000000000000000000000000                              000000000000000  
202310240010000200000000000000001821                8000000000030708916605METALURGICA LAGILLA S.R.L.    000000080589630000000000000000000000000000000000000000000000000000000000000000000000000000000000000000000000000000000000PES00010000001000000001398663000000000000000000000000000                              000000000000000  
202310240010000200000000000000001822                8000000000030708916605METALURGICA LAGILLA S.R.L.    000000460284000000000000000000000000000000000000000000000000000000000000000000000000000000000000000000000000000000000000PES00010000001000000007988400000000000000000000000000000                              000000000000000  
202310240010000300000000000000000821                8000000000020235739780LAVEZZI ERNESTO               000000005967000000000000000000000000000000000000000000000000000000000000000000000000000000000000000000000000000000000000PES00010000001000000000056700000000000000000000000000000                              000000000000000  
202310240010000300000000000000003595                8000000000027165217360ALVEOLITE MARIA CELIA         000000006134700000000000000000000000000000000000000000000000000000000000000000000000000000000000000000000000000000000000PES00010000001000000000106470000000000000000000000000000                              000000000000000  
202310230010000600000000000000009728                8000000000030709653780ACRILICOS MESCH S.A.          000000006368472000000000000000000000000000000000000000000000000000000000000000000000000000000000000000000000000000000000PES00010000001000000000110527200000000000000000000000000                              000000000000000  
202310240010636400000000000007873157                8000000000030639453738TELECOM ARGENTINA S.A.        000000009198202000000000000000000000000000000000000000216660000000000000000000000000223269000000000000000000000000003687PES00010000002000000000153261600000000000000000000000000                              000000000000000  
202310240130000100000000000000000003                8000000000027376202157MALDONADO PAULA DOLORES       000000006080300000000000000000000000000000000000000000000000000000000000000000000000000000000000000000000000000000000000PES00010000000000000000000000000000000000000000000000000                              000000000000000  
202310240110000100000000000000000079                8000000000027376202157MALDONADO PAULA DOLORES       000000005315300000000000000000000000000000000000000000000000000000000000000000000000000000000000000000000000000000000000PES00010000000000000000000000000000000000000000000000000                              000000000000000  
202310250010000100000000000000000274                8000000000030715298461MINTA GROUP SRL               000000024538800000000000000000000000000000000000000000000000000000000000000000000000000000000000000000000000000000000000PES00010000001000000000425880000000000000000000000000000                              000000000000000  
202310250010000100000000000000000275                8000000000030715298461MINTA GROUP SRL               000000029446560000000000000000000000000000000000000000000000000000000000000000000000000000000000000000000000000000000000PES00010000001000000000511056000000000000000000000000000                              000000000000000  
202310250010000200000000000000003571                8000000000030709192015COLORES AUSTRALES S.R.L.      000000002178000000000000000000000000000000000000000000000000000000000000000000000000000000000000000000000000000000000000PES00010000001000000000037800000000000000000000000000000                              000000000000000  
202310250010000300000000000000001555                8000000000030714739693BS AS IMPORT SRL              000000166980000000000000000000000000000000000000000000000000000000000000000000000000000000000000000000000000000000000000PES00010000001000000002898000000000000000000000000000000                              000000000000000  
202310250010000900000000000000241517                8000000000030575170125PROSEGUR S A                  000000060087066000000000000000000000000000000000000000000000000000000000000000000001806225000000000000000000000000000000PES00010000001000000001011485700000000000000000000000000                              000000000000000  
202310250010001200000000000000007604                8000000000030677909001RERIFE S.A.                   000000000350002000000000000000000000000000000000000000000000000000000000000000000000000000000000000000000000000000034353PES00010000001000000000005478200000000000000000000000000                              000000000000000  
202310250010001000000000000000323496                8000000000030652010489NATIONAL SERVICE ARGENTINA S.A000000021741910000000000000000000000000000000000000000000000000000000000000000000000526014000000000000000000000000000000PES00010000001000000000368209800000000000000000000000000                              000000000000000  
202310250130000100000000000000000002                8000000000020946060276CHEREY ANTONIO FEDERICO       000000018589806000000000000000000000000000000000000000000000000000000000000000000000000000000000000000000000000000000000PES00010000000000000000000000000000000000000000000000000                              000000000000000  
202310250110000100000000000000000048                8000000000020946060276CHEREY ANTONIO FEDERICO       000000018589806000000000000000000000000000000000000000000000000000000000000000000000000000000000000000000000000000000000PES00010000000000000000000000000000000000000000000000000                              000000000000000  
202310250110000100000000000000000049                8000000000020946060276CHEREY ANTONIO FEDERICO       000000018589806000000000000000000000000000000000000000000000000000000000000000000000000000000000000000000000000000000000PES00010000000000000000000000000000000000000000000000000                              000000000000000  
202310260010000300000000000000000531                8000000000030712286780ESCUELA ARGENTINA DE FINANZAS 000000014723280000000000000000000000000000000000000000000000000000000000000000000000000000000000000000000000000000000000PES00010000001000000000255528000000000000000000000000000                              000000000000000  
202310270010000400000000000000002470                8000000000020162255631PENDZIK JAVIER ENRIQUE        000000010164000000000000000000000000000000000000000000000000000000000000000000000000000000000000000000000000000000000000PES00010000001000000000176400000000000000000000000000000                              000000000000000  
202310270010000400000000000000002471                8000000000020162255631PENDZIK JAVIER ENRIQUE        000000010890000000000000000000000000000000000000000000000000000000000000000000000000000000000000000000000000000000000000PES00010000001000000000189000000000000000000000000000000                              000000000000000  
202310270010000600000000000000000212                8000000000027304290558MASSAUX CLARA DEL CORAZON DE J000000003599884000000000000000000000000000000000000000000000000000000000000000000000000000000000000000000000000000000000PES00010000001000000000062477300000000000000000000000000                              000000000000000  
202310300010000600000000000000000213                8000000000027304290558MASSAUX CLARA DEL CORAZON DE J000000001800000000000000000000000000000000000000000000000000000000000000000000000000000000000000000000000000000000000000PES00010000001000000000031239700000000000000000000000000                              000000000000000  
202310270010000900000000000001000628                8000000000030628455518NOSIS LAB. DE INVESTIGACION Y 000000023546484000000000000000000000000000000000000000000000000000000000000000000000569673000000000000000000000000000000PES00010000001000000000398771100000000000000000000000000                              000000000000000  
202310270110000100000000000000000032                8000000000020404075552PIERSIGILLI LAUTARO ADRIAN    000000011166100000000000000000000000000000000000000000000000000000000000000000000000000000000000000000000000000000000000PES00010000000000000000000000000000000000000000000000000                              000000000000000  
202310270110000100000000000000000033                8000000000020404075552PIERSIGILLI LAUTARO ADRIAN    000000000525390000000000000000000000000000000000000000000000000000000000000000000000000000000000000000000000000000000000PES00010000000000000000000000000000000000000000000000000                              000000000000000  
202310270110000100000000000000000103                8000000000027406413735DI FABIO PRISCILA             000000009944307000000000000000000000000000000000000000000000000000000000000000000000000000000000000000000000000000000000PES00010000000000000000000000000000000000000000000000000                              000000000000000  
202310270110000100000000000000000104                8000000000027406413735DI FABIO PRISCILA             000000000547311000000000000000000000000000000000000000000000000000000000000000000000000000000000000000000000000000000000PES00010000000000000000000000000000000000000000000000000                              000000000000000  
202310280010000100000000000000000807                8000000000030715442392RELATORES COOPERATIVA DE TRABA000000009638013000000000000000000000000000000000000000000000000000000000000000000000000000000000000000000000000000000000PES00010000001000000000167271300000000000000000000000000                              000000000000000  
202310280010000200000000000000000817                8000000000030709744816RABONA SRL                    000000024200000000000000000000000000000000000000000000000000000000000000000000000000000000000000000000000000000000000000PES00010000001000000000420000000000000000000000000000000                              000000000000000  
202310280010000200000000000000000818                8000000000030709744816RABONA SRL                    000000014520000000000000000000000000000000000000000000000000000000000000000000000000000000000000000000000000000000000000PES00010000001000000000252000000000000000000000000000000                              000000000000000  
202310280010000200000000000000000819                8000000000030709744816RABONA SRL                    000000070785000000000000000000000000000000000000000000000000000000000000000000000000000000000000000000000000000000000000PES00010000001000000001228500000000000000000000000000000                              000000000000000  
202310280010000200000000000000000820                8000000000030709744816RABONA SRL                    000000015609000000000000000000000000000000000000000000000000000000000000000000000000000000000000000000000000000000000000PES00010000001000000000270900000000000000000000000000000                              000000000000000  
202310300010000100000000000000000065                8000000000030716477823MARKETING Y NEGOCIOS SRL      000000008445800000000000000000000000000000000000000000000000000000000000000000000000000000000000000000000000000000000000PES00010000001000000000146580000000000000000000000000000                              000000000000000  
202310300010000100000000000000001729                8000000000030715558331COLMAN'S S.R.L.               000000025410000000000000000000000000000000000000000000000000000000000000000000000000000000000000000000000000000000000000PES00010000001000000000441000000000000000000000000000000                              000000000000000  
202310300010000200000000000000000769                8000000000030711548455INTERLOCK SA                  000000020570000000000000000000000000000000000000000000000000000000000000000000000000000000000000000000000000000000000000PES00010000001000000000357000000000000000000000000000000                              000000000000000  
202310300010000300000000000000000023                8000000000020957773592ANDERSON GUEVARA YEFFERSON JES000000000450000000000000000000000000000000000000000000000000000000000000000000000000000000000000000000000000000000000000PES00010000001000000000007809900000000000000000000000000                              000000000000000  
202310300010000300000000000000005182                8000000000030709388114DAK GRUPO CREATIVO S.R.L      000000006050000000000000000000000000000000000000000000000000000000000000000000000000000000000000000000000000000000000000PES00010000001000000000105000000000000000000000000000000                              000000000000000  
202310300010000400000000000000000011                8000000000027185286040GHELFI MARIA LIA              000000008418735000000000000000000000000000000000000000000000000000000000000000000000000000000000000000000000000000000000PES00010000001000000000020533500000000000000000000000000                              000000000000000  
202310300010000500000000000000000212                8000000000020372458349GONZALEZ PALUMBO JUAN MANUEL  000000025410000000000000000000000000000000000000000000000000000000000000000000000000000000000000000000000000000000000000PES00010000001000000000441000000000000000000000000000000                              000000000000000  
202310300010229600000000000000001525                8000000000030692138747FARMCITY S.A.                 000000002584927000000000000000000000001641195000000000022832000000000000000000000000000000000000000000000000000000000000PES00010000001000000000015982500000000000000000000000000                              000000000000000  
202310300110000100000000000000000581                8000000000020142068371LOPEZ KING EMILIO             000000008000000000000000000000000000000000000000000000000000000000000000000000000000000000000000000000000000000000000000PES00010000000000000000000000000000000000000000000000000                              000000000000000  
202310300110000200000000000000000338                8000000000020141421779MC GAW RICARDO MARCOS         000000003000000000000000000000000000000000000000000000000000000000000000000000000000000000000000000000000000000000000000PES00010000000000000000000000000000000000000000000000000                              000000000000000  
202310310010000100000000000000004566                8000000000030707722777CONSORCIO DE COPROPIETARIOS OL000000251053067000000000000000000000018463129000000000000000000000000000000000000000000000000000000000000000000000000000PES00010000002000000004278615500000000000000000000000000                              000000000000000  
202310310010000200000000000000000129                8000000000020182488144NORIEGA ADRIAN OCTAVIO        000000018150000000000000000000000000000000000000000000000000000000000000000000000000000000000000000000000000000000000000PES00010000001000000000315000000000000000000000000000000                              000000000000000  
202310310010000200000000000000000454                8000000000030709517801P & M PRODUCCIONES S.R.L.     000000006655000000000000000000000000000000000000000000000000000000000000000000000000000000000000000000000000000000000000PES00010000001000000000115500000000000000000000000000000                              000000000000000  
202310310010000200000000000000001495                8000000000020160716917RATIBEL ANIBAL GABRIEL        000002138675000000000000000000000000000000000000000000000000000000000000000000000000000000000000000000000000000000000000PES00010000001000000037117500000000000000000000000000000                              000000000000000  
202310310010000200000000000000001496                8000000000020160716917RATIBEL ANIBAL GABRIEL        000000067284591000000000000000000000000000000000000000000000000000000000000000000000000000000000000000000000000000000000PES00010000001000000001167749100000000000000000000000000                              000000000000000  
202310310010000200000000000000001497                8000000000020160716917RATIBEL ANIBAL GABRIEL        000000108900000000000000000000000000000000000000000000000000000000000000000000000000000000000000000000000000000000000000PES00010000001000000001890000000000000000000000000000000                              000000000000000  
202310310010000200000000000000001686                8000000000030717604977ELEGI FRUTA S. R. L.          000000011583936000000000000000000000000000000000000000000000000000000000000000000000000000000000000000000000000000000000PES00010000001000000000110073600000000000000000000000000                              000000000000000  
202310310010000200000000000000001903                8000000000020203709898ECHEVARRIA GONZALO            000000119306000000000000000000000000000000000000000000000000000000000000000000000000000000000000000000000000000000000000PES00010000001000000002070600000000000000000000000000000                              000000000000000  
202310310010000200000000000000002119                8000000000020045230911GARCIA ROBERTO ANGEL          000000033553300000000000000000000000000000000000000000000000000000000000000000000000000000000000000000000000000000000000PES00010000001000000000582330000000000000000000000000000                              000000000000000  
202310310010000200000000000000002152                8000000000020244247572GUARINO JULIAN                000000049840142000000000000000000000000000000000000000000000000000000000000000000000000000000000000000000000000000000000PES00010000001000000000864994200000000000000000000000000                              000000000000000  
202310310010000200000000000000003282                8000000000030683013184COMUNICACION PUBLICITARIA S.R.000000009815520000000000000000000000000000000000000000000000000000000000000000000000000000000000000000000000000000000000PES00010000001000000000170352000000000000000000000000000                              000000000000000  
202310310010000200000000000000003283                8000000000030683013184COMUNICACION PUBLICITARIA S.R.000000019631040000000000000000000000000000000000000000000000000000000000000000000000000000000000000000000000000000000000PES00010000001000000000340704000000000000000000000000000                              000000000000000  
202310310010000200000000000000003541                8000000000030695578713JMS Y ASOCIADOS S.A.          000000036468432000000000000000000000000000000000000000000000000000000000000000000000000000000000000000000000000000000000PES00010000001000000000632923200000000000000000000000000                              000000000000000  
202310310010000300000000000000000192                8000000000030714533793PIER MEDIA S.R.L.             000000132634150000000000000000000000000000000000000000000000000000000000000000000000000000000000000000000000000000000000PES00010000001000000002301915000000000000000000000000000                              000000000000000  
202310310010000300000000000000000193                8000000000030714533793PIER MEDIA S.R.L.             000000058213100000000000000000000000000000000000000000000000000000000000000000000000000000000000000000000000000000000000PES00010000001000000001010310000000000000000000000000000                              000000000000000  
202310310010000300000000000000000194                8000000000030714533793PIER MEDIA S.R.L.             000000156888600000000000000000000000000000000000000000000000000000000000000000000000000000000000000000000000000000000000PES00010000001000000002722860000000000000000000000000000                              000000000000000  
202310310010000400000000000000000232                8000000000023313423069FERRENTINO ARIEL LEANDRO      000000008712000000000000000000000000000000000000000000000000000000000000000000000000000000000000000000000000000000000000PES00010000001000000000151200000000000000000000000000000                              000000000000000  
202310310030000400000000000000000781                8000000000030712389512CADENAZZI PUBLICIDAD DE CADENA000000451484064000000000000000000000000000000000000000000000000000000000000000000000000000000000000000000000000000000000PES00010000001000000007835673800000000000000000000000000                              000000000000000  
202310310030000400000000000000000782                8000000000030712389512CADENAZZI PUBLICIDAD DE CADENA000000005601719000000000000000000000000000000000000000000000000000000000000000000000000000000000000000000000000000000000PES00010000001000000000097219900000000000000000000000000                              000000000000000  
202310310010000400000000000000001396                8000000000030712389512CADENAZZI PUBLICIDAD DE CADENA000000793469358000000000000000000000000000000000000000000000000000000000000000000000000000000000000000000000000000000000PES00010000001000000013770955800000000000000000000000000                              000000000000000  
202310310010000400000000000000001397                8000000000030712389512CADENAZZI PUBLICIDAD DE CADENA000000028798000000000000000000000000000000000000000000000000000000000000000000000000000000000000000000000000000000000000PES00010000001000000000499800000000000000000000000000000                              000000000000000  
202310310010000400000000000000001398                8000000000030712389512CADENAZZI PUBLICIDAD DE CADENA000000028798000000000000000000000000000000000000000000000000000000000000000000000000000000000000000000000000000000000000PES00010000001000000000499800000000000000000000000000000                              000000000000000  
202310310010000400000000000000001399                8000000000030712389512CADENAZZI PUBLICIDAD DE CADENA000000208785500000000000000000000000000000000000000000000000000000000000000000000000000000000000000000000000000000000000PES00010000001000000003623550000000000000000000000000000                              000000000000000  
202310310010000400000000000000001400                8000000000030712389512CADENAZZI PUBLICIDAD DE CADENA000000051667000000000000000000000000000000000000000000000000000000000000000000000000000000000000000000000000000000000000PES00010000001000000000896700000000000000000000000000000                              000000000000000  
202310310010000400000000000000001401                8000000000030712389512CADENAZZI PUBLICIDAD DE CADENA000000005601719000000000000000000000000000000000000000000000000000000000000000000000000000000000000000000000000000000000PES00010000001000000000097219900000000000000000000000000                              000000000000000  
202310310030000500000000000000000096                8000000000033708416679SAWGRASS S.R.L.               000000000280086000000000000000000000000000000000000000000000000000000000000000000000000000000000000000000000000000000000PES00010000001000000000004861000000000000000000000000000                              000000000000000  
202310310030000500000000000000000097                8000000000033708416679SAWGRASS S.R.L.               000000001800444000000000000000000000000000000000000000000000000000000000000000000000000000000000000000000000000000000000PES00010000001000000000031247400000000000000000000000000                              000000000000000  
202310310010000500000000000000000331                8000000000033708416679SAWGRASS S.R.L.               000000005601719000000000000000000000000000000000000000000000000000000000000000000000000000000000000000000000000000000000PES00010000001000000000097219900000000000000000000000000                              000000000000000  
202310310010000500000000000000000332                8000000000033708416679SAWGRASS S.R.L.               000000036008872000000000000000000000000000000000000000000000000000000000000000000000000000000000000000000000000000000000PES00010000001000000000624947400000000000000000000000000                              000000000000000  
202310310010000500000000000000001553                8000000000020116436648GOLDSTEIN SERGIO LUIS         000000006512220000000000000000000000000000000000000000000000000000000000000000000000000000000000000000000000000000000000PES00010000001000000000113022000000000000000000000000000                              000000000000000  
202310310010000500000000000000001554                8000000000020116436648GOLDSTEIN SERGIO LUIS         000000007163200000000000000000000000000000000000000000000000000000000000000000000000000000000000000000000000000000000000PES00010000001000000000124320000000000000000000000000000                              000000000000000  
202310310010000600000000000000001136                8000000000020147410507DUBOIS ALEJANDRO DANIEL       000000013937800000000000000000000000000000000000000000000000000000000000000000000000000000000000000000000000000000000000PES00010000001000000000241895700000000000000000000000000                              000000000000000  
202310310010000100000000000000001280                8000000000030709897612MEDIOS Y PARTICIPACIONES SA   000000024200000000000000000000000000000000000000000000000000000000000000000000000000000000000000000000000000000000000000PES00010000001000000000420000000000000000000000000000000                              000000000000000  
202310310010000100000000000000102023                8000000000030500003193BBVA BANCO FRANCES S.A.       000000060456645000000000000000000000000000000000000001331671000000000000000000000001331671000000000000000000000000000000PES00010000001000000001003023900000000000000000000000000                              000000000000000  
202310310010001000000000000000003106                8000000000030709663603MADERO ESTE PARKING S.A.      000000002160000000000000000000000000000000000000000000000000000000000000000000000000000000000000000000000000000000000000PES00010000001000000000037487600000000000000000000000000                              000000000000000  
202310310010000200000000000000000133                8000000000030717194884VACAS PUBLICIDAD S.A.S.       000000006088500000000000000000000000000000000000000000000000000000000000000000000000000000000000000000000000000000000000PES00010000001000000000014850000000000000000000000000000                              000000000000000  
202310310010000200000000000000000134                8000000000030717194884VACAS PUBLICIDAD S.A.S.       000000080596159000000000000000000000000000000000000000000000000000000000000000000000000000000000000000000000000000000000PES00010000001000000000765845900000000000000000000000000                              000000000000000  
202310310010000200000000000000000135                8000000000030717194884VACAS PUBLICIDAD S.A.S.       000000100901900000000000000000000000000000000000000000000000000000000000000000000000000000000000000000000000000000000000PES00010000001000000001751190000000000000000000000000000                              000000000000000  
202310310010000200000000000000000136                8000000000030717194884VACAS PUBLICIDAD S.A.S.       000000059946256000000000000000000000000000000000000000000000000000000000000000000000000000000000000000000000000000000000PES00010000001000000001040389600000000000000000000000000                              000000000000000  
202310310010000300000000000000198854                8000000000030609178430AMERICA TV S.A.               000000025985440000000000000000000000000000000000000000000000000000000000000000000000628680000000000000000000000000000000PES00010000001000000000440076000000000000000000000000000                              000000000000000  
202310310010000300000000000000199076                8000000000030609178430AMERICA TV S.A.               000000077453376000000000000000000000000000000000000000000000000000000000000000000001873872000000000000000000000000000000PES00010000001000000001311710400000000000000000000000000                              000000000000000  
202310310010004300000000000000005171                8000000000030708653078EMPRENDIMIENTOS CORPORATIVOS S000000000100000000000000000000000000000000000000000000000000000000000000000000000000000000000000000000000000000000000000PES00010000001000000000001735500000000000000000000000000                              000000000000000  
202310310010000600000000000000001309                8000000000030587511726POLIMAX S R L                 000000010225058000000000000000000000000000000000000000000000000000000000000000000000000000000000000000000000000000000000PES00010000001000000000177459700000000000000000000000000                              000000000000000  
202310310010000900000000000000242152                8000000000030575170125PROSEGUR S A                  000000060087066000000000000000000000000000000000000000000000000000000000000000000001806225000000000000000000000000000000PES00010000001000000001011485700000000000000000000000000                              000000000000000  
202310310010001600000000000000004942                8000000000030500090029EL CRONISTA COMERCIAL S.A.    000000057629000000000000000000000000000000000000000000000000000000000000000000000001394250000000000000000000000000000000PES00010000001000000000975975000000000000000000000000000                              000000000000000  
202310310010001700000000000000006888                8000000000030636827661TELEVISION ABC S.A.           000000034033065000000000000000000000000000000000000000000000000000000000000000000000000000000000000000000000000000000000PES00010000001000000000590656500000000000000000000000000                              000000000000000  
202310310010010000000000000000004666                8000000000030707221565NEFIR S.A.                    000000029835000000000000000000000000000000001000000000000000000000000000000000000000000000000000000000000000000000000000PES00010000001000000000283500000000000000000000000000000                              000000000000000  
202310310010135000000000000000022637                8000000000030500089624LA NACION S.A.                000000019508350000000000000000000000019508350000000000000000000000000000000000000000000000000000000000000000000000000000PES00010000001000000000000000000000000000000000000000000                              000000000000000  
202310310110000200000000000000000181                8000000000027248040357FERRARI NATALIA ANDREA        000000013508000000000000000000000000000000000000000000000000000000000000000000000000000000000000000000000000000000000000PES00010000000000000000000000000000000000000000000000000                              000000000000000  
202310310110000200000000000000000182                8000000000027248040357FERRARI NATALIA ANDREA        000000000635700000000000000000000000000000000000000000000000000000000000000000000000000000000000000000000000000000000000PES00010000000000000000000000000000000000000000000000000                              000000000000000  
202310200630000100000000000000000016                8000000000020222594910AVILES MARCELO DANIE          000000101640000000000000000000000000000000000000000000000000000000000000000000000000000000000000000000000000000000000000PES00010000001000000001764000000000000000000030718033612ADRIAN MERCADO SUBASTAS S.A.  000000000000000  
202310310630000100000000000000000018                8000000000020114461858TASCA SANTOS                  000000079778000000000000000000000000000000000000000000000000000000000000000000000000000000000000000000000000000000000000PES00010000002000000001297800000000000000000030718033612ADRIAN MERCADO SUBASTAS S.A.  000000000000000  
202310310630000100000000000000000021                8000000000030516997504SICAME ARGENTINA S.A          000001897425000000000000000000000000000000000000000000000000000000000000000000000000000000000000000000000000000000000000PES00010000002000000031867500000000000000000030718033612ADRIAN MERCADO SUBASTAS S.A.  000000000000000  
202310310630000100000000000000000022                8000000000030677058761RESIPOL S.A.                  000000087280000000000000000000000000000000000000000000000000000000000000000000000000000000000000000000000000000000000000PES00010000002000000001428000000000000000000030718033612ADRIAN MERCADO SUBASTAS S.A.  000000000000000  
202310310630000100000000000000000023                8000000000030717208087MM WINES                      000000314600000000000000000000000000000000000000000000000000000000000000000000000000000000000000000000000000000000000000PES00010000001000000005460000000000000000000030718033612ADRIAN MERCADO SUBASTAS S.A.  000000000000000  
202310310630000100000000000000000024                8000000000020226540688ELTERMAN ADRIAN               000000065824000000000000000000000000000000000000000000000000000000000000000000000000000000000000000000000000000000000000PES00010000001000000001142400000000000000000030718033612ADRIAN MERCADO SUBASTAS S.A.  000000000000000  
202310310630000100000000000000000028                8000000000020114461858TASCA SANTOS                  000001889015000000000000000000000000000000000000000000000000000000000000000000000000000000000000000000000000000000000000PES00010000002000000018301500000000000000000030718033612ADRIAN MERCADO SUBASTAS S.A.  000000000000000  
202310310630000100000000000000000029                8000000000020246281980PARNOFIELLO PABLO NI          000001128315000000000000000000000000000000000000000000000000000000000000000000000000000000000000000000000000000000000000PES00010000002000000013681500000000000000000030718033612ADRIAN MERCADO SUBASTAS S.A.  000000000000000  
